:020000040800F2
:1000000000800120652100087D1D00087F1D00087B
:10001000811D0008831D0008851D000800000000E8
:10002000000000000000000000000000871D000824
:10003000891D0008000000008B1D00088D1D0008B0
:10004000B5210008B5210008B5210008B521000838
:10005000B5210008B5210008B5210008B521000828
:10006000B5210008B5210008B5210008B521000818
:10007000B5210008B5210008B5210008B521000808
:10008000B5210008B5210008B5210008B5210008F8
:10009000B5210008B5210008B5210008B5210008E8
:1000A000B5210008B5210008B5210008B5210008D8
:1000B000B5210008B5210008B5210008B5210008C8
:1000C000B5210008B5210008B5210008B5210008B8
:1000D000B5210008951D0008B5210008B5210008CC
:1000E000A51D0008B5210008B5210008B5210008AC
:1000F000B5210008B5210008B5210008B521000888
:10010000B5210008B5210008B5210008B521000877
:10011000B5210008B5210008B5210008B521000867
:10012000B5210008B5210008B5210008B521000857
:10013000B5210008B5210008B5210008B521000847
:10014000B5210008B5210008B5210008B91D000837
:10015000B5210008B5210008B5210008B521000827
:10016000B5210008B5210008B5210008B521000817
:10017000B5210008B52100080000000000000000C3
:08018000B5210008B5210008BB
:1001C00081F0004102E000BF83F0004330B54FEA08
:1001D00041044FEA430594EA050F08BF90EA020F75
:1001E0001FBF54EA000C55EA020C7FEA645C7FEA08
:1001F000655C00F0E2804FEA5454D4EB5555B8BF2B
:100200006D420CDD2C4480EA020281EA030382EA9B
:10021000000083EA010180EA020281EA0303362D2D
:1002200088BF30BD11F0004F4FEA01314FF4801C00
:100230004CEA113102D0404261EB410113F0004F12
:100240004FEA03334CEA133302D0524263EB4303C9
:1002500094EA050F00F0A780A4F10104D5F1200E67
:100260000DDB02FA0EFC22FA05F2801841F10001C2
:1002700003FA0EF2801843FA05F359410EE0A5F196
:1002800020050EF1200E012A03FA0EFC28BF4CF0C7
:10029000020C43FA05F3C01851EBE37101F000457D
:1002A00007D54FF0000EDCF1000C7EEB00006EEB8A
:1002B0000101B1F5801F1BD3B1F5001F0CD3490814
:1002C0005FEA30004FEA3C0C04F101044FEA44526B
:1002D00012F5800F80F09A80BCF1004F08BF5FEAF2
:1002E000500C50F1000041EB045141EA050130BDD2
:1002F0005FEA4C0C404141EB0101013C28BFB1F5E4
:10030000801FE9D291F0000F04BF01460020B1FA2E
:1003100081F308BF2033A3F10B03B3F120020CDA01
:100320000C3208DD02F1140CC2F10C0201FA0CF0DF
:1003300021FA02F10CE002F11402D8BFC2F1200C44
:1003400001FA02F120FA0CFCDCBF41EA0C019040FA
:10035000E41AA2BF01EB0451294330BD6FEA040443
:100360001F3C1CDA0C340EDC04F11404C4F120022E
:1003700020FA04F001FA02F340EA030021FA04F340
:1003800045EA030130BDC4F10C04C4F1200220FA97
:1003900002F001FA04F340EA0300294630BD21FAD5
:1003A00004F0294630BD94F0000F83F4801306BF9B
:1003B00081F480110134013D4EE77FEA645C18BF8F
:1003C0007FEA655C29D094EA050F08BF90EA020F26
:1003D00005D054EA000C04BF1946104630BD91EA1E
:1003E000030F1EBF0021002030BD5FEA545C05D121
:1003F0004000494128BF41F0004130BD14F5800460
:100400003CBF01F5801130BD01F0004545F0FE41D3
:1004100041F470014FF0000030BD7FEA645C1ABF08
:10042000194610467FEA655C1CBF0B46024650EA3F
:10043000013406BF52EA033591EA030F41F400216B
:1004400030BD00BF90F0000F04BF0021704730B5F1
:100450004FF4806404F132044FF000054FF00001C6
:1004600050E700BF90F0000F04BF0021704730B587
:100470004FF4806404F1320410F0004548BF40425C
:100480004FF000013EE700BF42004FEAE2014FEAB1
:1004900031014FEA02701FBF12F07F4393F07F4F8C
:1004A00081F06051704732F07F4208BF704793F08F
:1004B0007F4F04BF41F40021704730B54FF46074A2
:1004C00001F0004521F000411CE700BF50EA0102A5
:1004D00008BF704730B54FF000050AE050EA01024E
:1004E00008BF704730B511F0004502D5404261EBBE
:1004F00041014FF4806404F132045FEA915C3FF4FF
:10050000D8AE4FF003025FEADC0C18BF03325FEA9B
:10051000DC0C18BF033202EBDC02C2F1200300FA4C
:1005200003FC20FA02F001FA03FE40EA0E0021FA71
:1005300002F11444BDE600BF70B54FF0FF0C4CF45F
:10054000E06C1CEA11541DBF1CEA135594EA0C0F11
:1005500095EA0C0F00F0DEF82C4481EA030621EA4C
:100560004C5123EA4C5350EA013518BF52EA033587
:1005700041F4801143F4801338D0A0FB02CE4FF039
:100580000005E1FB02E506F00042E0FB03E54FF069
:100590000006E1FB03569CF0000F18BF4EF0010E61
:1005A000A4F1FF04B6F5007F64F5407404D25FEA5D
:1005B0004E0E6D4146EB060642EAC62141EA555110
:1005C0004FEAC52040EA5E504FEACE2EB4F1FD0C52
:1005D00088BFBCF5E06F1ED8BEF1004F08BF5FEAD0
:1005E000500E50F1000041EB045170BD06F0004682
:1005F00046EA010140EA020081EA0301B4EB5C042F
:10060000C2BFD4EB0C0541EA045170BD41F4801126
:100610004FF0000E013C00F3AB8014F1360FDEBF4B
:10062000002001F0004170BDC4F10004203C35DA27
:100630000C341BDC04F11404C4F1200500FA05F3AA
:1006400020FA04F001FA05F240EA020001F000424B
:1006500021F0004110EBD37021FA04F642EB0601C1
:100660005EEA430E08BF20EAD37070BDC4F10C04EB
:10067000C4F1200500FA04F320FA05F001FA04F2AF
:1006800040EA020001F0004110EBD37041F100019B
:100690005EEA430E08BF20EAD37070BDC4F12005A6
:1006A00000FA05F24EEA020E20FA04F301FA05F20E
:1006B00043EA020321FA04F001F0004121FA04F2B6
:1006C00020EA020000EBD3705EEA430E08BF20EA86
:1006D000D37070BD94F0000F0FD101F000464000C0
:1006E00041EB010111F4801F08BF013CF7D041EA42
:1006F000060195F0000F18BF704703F00046520046
:1007000043EB030313F4801F08BF013DF7D043EA16
:100710000603704794EA0C0F0CEA135518BF95EACC
:100720000C0F0CD050EA410618BF52EA4306D1D153
:1007300081EA030101F000414FF0000070BD50EA72
:10074000410606BF1046194652EA430619D094EAFC
:100750000C0F02D150EA013613D195EA0C0F05D1E6
:1007600052EA03361CBF104619460AD181EA03013A
:1007700001F0004141F0FE4141F470014FF00000F2
:1007800070BD41F0FE4141F4780170BD70B54FF08D
:10079000FF0C4CF4E06C1CEA11541DBF1CEA13550D
:1007A00094EA0C0F95EA0C0F00F0A7F8A4EB0504EF
:1007B00081EA030E52EA03354FEA013100F08880E6
:1007C0004FEA03334FF0805545EA131343EA1263AF
:1007D0004FEA022245EA111545EA10654FEA002664
:1007E0000EF000419D4208BF964244F1FD0404F51D
:1007F000407402D25B084FEA3202B61A65EB030579
:100800005B084FEA32024FF480104FF4002CB6EB35
:10081000020E75EB030E22BFB61A754640EA0C00B5
:100820005B084FEA3202B6EB020E75EB030E22BFF5
:10083000B61A754640EA5C005B084FEA3202B6EB36
:10084000020E75EB030E22BFB61A754640EA9C00F5
:100850005B084FEA3202B6EB020E75EB030E22BFC5
:10086000B61A754640EADC0055EA060E18D04FEA83
:10087000051545EA16754FEA06164FEAC30343EA23
:1008800052734FEAC2025FEA1C1CC0D111F4801FF0
:100890000BD141EA00014FF000004FF0004CB6E7E9
:1008A00011F4801F04BF01430020B4F1FD0C88BF88
:1008B000BCF5E06F3FF6AFAEB5EB030C04BFB6EB93
:1008C000020C5FEA500C50F1000041EB045170BD86
:1008D0000EF0004E4EEA113114EB5C04C2BFD4EBB3
:1008E0000C0541EA045170BD41F480114FF0000E37
:1008F000013C90E645EA060E8DE60CEA135594EAB3
:100900000C0F08BF95EA0C0F3FF43BAF94EA0C0FB5
:100910000AD150EA01347FF434AF95EA0C0F7FF42A
:1009200025AF104619462CE795EA0C0F06D152EA7E
:1009300003353FF4FDAE1046194622E750EA410662
:1009400018BF52EA43067FF4C5AE50EA41047FF473
:100950000DAF52EA43057FF4EBAE12E74FF0FF3CD8
:1009600006E000BF4FF0010C02E000BF4FF0010CA9
:100970004DF804CD4FEA410C7FEA6C5C4FEA430C22
:1009800018BF7FEA6C5C1BD001B050EA410C0CBF71
:1009900052EA430C91EA030F02BF90EA020F0020D3
:1009A000704710F1000F91EA030F58BF994208BF3A
:1009B00090422CBFD8176FEAE37040F001007047F7
:1009C0004FEA410C7FEA6C5C02D150EA013C07D14E
:1009D0004FEA430C7FEA6C5CD6D152EA033CD3D099
:1009E0005DF8040B704700BF8446104662468C4693
:1009F0001946634600E000BF01B5FFF7B7FF0028C6
:100A000048BF10F1000F01BD4DF808EDFFF7F4FFEE
:100A10000CBF012000205DF808FB00BF4DF808ED79
:100A2000FFF7EAFF34BF012000205DF808FB00BF9C
:100A30004DF808EDFFF7E0FF94BF012000205DF8BE
:100A400008FB00BF4DF808EDFFF7CEFF94BF012073
:100A500000205DF808FB00BF4DF808EDFFF7C4FF6C
:100A600034BF012000205DF808FB00BF4FEA410CB5
:100A70007FEA6C5C02D150EA013C0AD14FEA430C98
:100A80007FEA6C5C02D152EA033C02D14FF00000D5
:100A900070474FF0010070474FEA410212F5001213
:100AA00015D211D56FF47873B3EB625212D94FEAB5
:100AB000C12343F0004343EA505311F0004F23FA9F
:100AC00002F018BF404270474FF00000704750EAF4
:100AD000013005D111F0004008BF6FF000407047B1
:100AE0004FF00000704700BF4FEA4102B2F1E0430F
:100AF00024BFB3F5001CDCF1FE5C0DD901F0004C05
:100B00004FEAC0024CEA5070B2F1004F40EB830054
:100B100008BF20F00100704711F0804F21D113F180
:100B20003872BCBF01F00040704741F480114FEAB9
:100B30005252C2F11802C2F1200C10FA0CF320FA42
:100B400002F018BF40F001004FEAC1234FEAD3235F
:100B500003FA0CFC40EA0C0023FA02F34FEA4303C9
:100B6000CCE77FEA625307D150EA01331EBF4FF052
:100B7000FE4040F44000704701F0004040F0FE406D
:100B800040F40000704700BF80F0004002E000BF6A
:100B900081F0004142001FBF5FEA410392EA030F68
:100BA0007FEA226C7FEA236C6AD04FEA1262D2EBB2
:100BB0001363C1BFD218414048404140B8BF5B42B7
:100BC000192B88BF704710F0004F40F4000020F050
:100BD0007F4018BF404211F0004F41F4000121F066
:100BE0007F4118BF494292EA030F3FD0A2F10102B0
:100BF00041FA03FC10EB0C00C3F1200301FA03F1EE
:100C000000F0004302D5494260EB4000B0F5000F10
:100C100013D3B0F1807F06D340084FEA310102F1CF
:100C20000102FE2A51D2B1F1004F40EBC25008BF81
:100C300020F0010040EA03007047490040EB00004B
:100C4000013A28BFB0F5000FEDD2B0FA80FCACF14C
:100C5000080CB2EB0C0200FA0CF0AABF00EBC25079
:100C600052421843BCBFD0401843704792F0000F67
:100C700081F4000106BF80F400000132013BB5E7BA
:100C80004FEA41037FEA226C18BF7FEA236C21D030
:100C900092EA030F04D092F0000F08BF0846704795
:100CA00090EA010F1CBF0020704712F07F4F04D163
:100CB000400028BF40F00040704712F100723CBF76
:100CC00000F50000704700F0004343F0FE4040F4A0
:100CD000000070477FEA226216BF08467FEA23635E
:100CE0000146420206BF5FEA412390EA010F40F449
:100CF000800070474FF0000304E000BF10F0004395
:100D000048BF40425FEA000C08BF704743F096437B
:100D100001464FF000001CE050EA010208BF704796
:100D20004FF000030AE000BF50EA010208BF70471D
:100D300011F0004302D5404261EB41015FEA010C32
:100D400002BF84460146002043F0B64308BFA3F12A
:100D50008053A3F50003BCFA8CF2083AA3EBC2530C
:100D600010DB01FA02FC634400FA02FCC2F120022B
:100D7000BCF1004F20FA02F243EB020008BF20F062
:100D80000100704702F1200201FA02FCC2F12002C8
:100D900050EA4C0021FA02F243EB020008BF20EABD
:100DA000DC7070474FF0FF0C1CEAD0521EBF1CEAEB
:100DB000D15392EA0C0F93EA0C0F6FD01A4480EAD9
:100DC000010C400218BF5FEA41211ED04FF00063C2
:100DD00043EA501043EA5111A0FB01310CF00040EE
:100DE000B1F5000F3EBF490041EAD3715B0040EA14
:100DF000010062F17F02FD2A1DD8B3F1004F40EBE4
:100E0000C25008BF20F00100704790F0000F0CF0B6
:100E1000004C08BF49024CEA502040EA51207F3A7A
:100E2000C2BFD2F1FF0340EAC250704740F4000055
:100E30004FF00003013A5DDC12F1190FDCBF00F046
:100E400000407047C2F10002410021FA02F1C2F1F4
:100E5000200200FA02FC5FEA310040F1000053EA90
:100E60004C0308BF20EADC70704792F0000F00F0DE
:100E7000004C02BF400010F4000F013AF9D040EAE4
:100E80000C0093F0000F01F0004C02BF490011F478
:100E9000000F013BF9D041EA0C018FE70CEAD15376
:100EA00092EA0C0F18BF93EA0C0F0AD030F0004CF6
:100EB00018BF31F0004CD8D180EA010000F00040AA
:100EC000704790F0000F17BF90F0004F084691F068
:100ED000000F91F0004F14D092EA0C0F01D14202A2
:100EE0000FD193EA0C0F03D14B0218BF084608D16B
:100EF00080EA010000F0004040F0FE4040F40000B5
:100F0000704740F0FE4040F4400070474FF0FF0C47
:100F10001CEAD0521EBF1CEAD15392EA0C0F93EA8E
:100F20000C0F69D0A2EB030280EA010C49024FEAE0
:100F3000402037D04FF0805343EA111143EA101399
:100F40000CF000408B4238BF5B0042F17D024FF451
:100F5000000C8B4224BF5B1A40EA0C00B3EB510F2C
:100F600024BFA3EB510340EA5C00B3EB910F24BF15
:100F7000A3EB910340EA9C00B3EBD10F24BFA3EB9A
:100F8000D10340EADC001B0118BF5FEA1C1CE0D162
:100F9000FD2A3FF650AF8B4240EBC25008BF20F015
:100FA000010070470CF0004C4CEA50207F32C2BF69
:100FB000D2F1FF0340EAC250704740F400004FF006
:100FC0000003013A37E792F0000F00F0004C02BF37
:100FD000400010F4000F013AF9D040EA0C0093F001
:100FE000000F01F0004C02BF490011F4000F013B5B
:100FF000F9D041EA0C0195E70CEAD15392EA0C0FC3
:1010000008D142027FF47DAF93EA0C0F7FF470AFFA
:10101000084676E793EA0C0F04D14B023FF44CAF3D
:1010200008466EE730F0004C18BF31F0004CCAD1D2
:1010300030F000427FF45CAF31F000437FF43CAF0E
:101040005FE700BF4FF0FF3C06E000BF4FF0010C30
:1010500002E000BF4FF0010C4DF804CD4FEA400212
:101060004FEA41037FEA226C18BF7FEA236C11D05C
:1010700001B052EA530C18BF90EA010F58BFB2EB0F
:10108000030088BFC81738BF6FEAE17018BF40F08F
:10109000010070477FEA226C02D15FEA402C05D143
:1010A0007FEA236CE4D15FEA412CE1D05DF8040BC8
:1010B000704700BF844608466146FFE70FB5FFF75B
:1010C000C9FF002848BF10F1000F0FBD4DF808ED13
:1010D000FFF7F4FF0CBF012000205DF808FB00BF04
:1010E0004DF808EDFFF7EAFF34BF012000205DF85E
:1010F00008FB00BF4DF808EDFFF7E0FF94BF0120AB
:1011000000205DF808FB00BF4DF808EDFFF7D2FFA7
:1011100094BF012000205DF808FB00BF4DF808EDEA
:10112000FFF7C8FF34BF012000205DF808FB00BFB7
:101130004FEA40024FEA41037FEA226C02D15FEAA4
:10114000402C08D17FEA236C02D15FEA412C02D106
:101150004FF0000070474FF0010070474FEA400227
:10116000B2F1FE4F0FD34FF09E03B3EB12620DD9D5
:101170004FEA002343F0004310F0004F23FA02F03F
:1011800018BF404270474FF00000704712F1610FE6
:1011900001D1420205D110F0004008BF6FF00040BD
:1011A00070474FF00000704753B94AB9002908BF93
:1011B00000281CBF4FF0FF314FF0FF3000F0E2B8C5
:1011C000ADF1080C6DE904CE3FF0BAF9DDF804E0AA
:1011D000DDE9022304B0704700F1340191E83800E2
:1011E0009C46A6464CF8045D90E8FF0FE54600BD1E
:1011F00090EC210B704700BF80EC210B704700BFC3
:1012000090EC200B704700BF80EC200B704700BFB4
:10121000D0EC200B704700BFC0EC200B704700BF24
:10122000F0EC0201F0EC0211F0EC0221F0EC0231E2
:10123000F0EC0241F0EC0251F0EC0261F0EC0271D2
:10124000F0EC0281F0EC0291F0EC02A1F0EC02B1C2
:10125000F0EC02C1F0EC02D1F0EC02E1F0EC02F1B2
:10126000704700BFE0EC0201E0EC0211E0EC02216B
:10127000E0EC0231E0EC0241E0EC0251E0EC026112
:10128000E0EC0271E0EC0281E0EC0291E0EC02A102
:10129000E0EC02B1E0EC02C1E0EC02D1E0EC02E1F2
:1012A000E0EC02F1704700BFB0FC0181B0FC01919D
:1012B000B0FC01A1B0FC01B1704700BFA0FC0181EE
:1012C000A0FC0191A0FC01A1A0FC01B1704700BFEE
:1012D000EC4600B52DE900502DE9FF1F4FF000034B
:1012E0002DE90C0001A93FF0DFFBDDF840E012B072
:1012F000704700BFEC4600B52DE900502DE9FF1FF7
:101300004FF000032DE90C0001A93FF009FCDDF8C6
:1013100040E012B0704700BFEC4600B52DE9005028
:101320002DE9FF1F4FF000032DE90C0001A93FF04C
:1013300019FCDDF840E012B0704700BFEC4600B584
:101340002DE900502DE9FF1F4FF000032DE90C009F
:1013500001AB3FF0DDFBDDF840E012B0704700BFAD
:10136000EC4600B52DE900502DE9FF1F4FF00003BA
:101370002DE90C0001AA3FF051FCDDF840E012B06D
:10138000704700BF704700BF4A0011D212F500122B
:1013900011D20DD56FF47873B3EB62520ED44FEACD
:1013A000C12343F0004343EA505323FA02F070474D
:1013B0004FF00000704750EA013002D14FF0FF308B
:1013C00070474FF000007047000000000000000070
:1013D000000000000000000000000000000000000D
:1013E000A2EB0300704700BF02780B78012A28BFE8
:1013F0009A42F5D16DE9044540EA0104CDE902675E
:101400006FF0000C4FEA447212B380EA010414F04A
:10141000070F6AD100F0070420F0070004F003056D
:1014200021F007014FEAC505F0E8042314F0040F8A
:10143000F1E804670CFA05F462EA040266EA0406BD
:101440000AD063EA0403624667EA0407664603E0DB
:10145000F0E80423F1E8046782FA4CF582EA060416
:10146000A4FA8CF46CBB83FA4CF583EA0705A5FA61
:101470008CF595B950E9022351E9026782FA4CF5DF
:1014800082EA0604A4FA8CF483FA4CF583EA070591
:10149000A5FA8CF52543DBD09CB92DBAB5FA85F4B5
:1014A00024F0070427FA04F1DDE9026723FA04F3C4
:1014B00003F0FF0001F0FF01FDE80445A0EB01008F
:1014C000704724BAB4FA84F424F0070426FA04F12D
:1014D000DDE9026722FA04F202F0FF0001F0FF01E9
:1014E000FDE80445A0EB0100704714F0030F3CD168
:1014F00010F0030428D150F8082B51F8083B82FA69
:101500004CF582EA0305A5FA8CF55DB950F8042C78
:1015100051F8043C82FA4CF582EA0305A5FA8CF5F1
:10152000002DE8D02DBAB5FA85F424F0070423FA8B
:1015300004F122FA04F202F0FF0001F0FF01FDE8DD
:101540000445A0EB010070474FEAC40420F00300FB
:1015500050F8082B21F0030151F8083B0CFA04F471
:1015600062EA040263EA0403C9E710F003041AD034
:10157000A1EB040120F00300E40750F8042B06D08F
:101580000FD28B785FFAA2F4E41A06D12BB1CB7894
:101590005FFAB2F4E41A00D11BB920465DF8104B93
:1015A000704701F1040150F8042BCC0721F003012E
:1015B00051F8043B48D824D222F07F4482FA4CF5FB
:1015C00094EA1325A5FA8CF50AD165B951F8043BC4
:1015D00084EA0204B4EB036F0ED150F8042BEBE75E
:1015E0004FEA132355E035F07F454DD10878FDE8EB
:1015F0000445C0F1000070474FEA126203F0FF0398
:1016000047E002EA1C4482FA4CF594EA1345A5FA35
:101610008CF50AD165B951F8043B84EA0204B4EBB5
:10162000034F0CD150F8042BEBE74FEA134330E0A3
:1016300015EA1C4528D10B884FEA124229E04FEAEF
:10164000124203EA1C4324E002F0FF0482FA4CF544
:1016500094EA1365A5FA8CF50AD165B951F8043BF3
:1016600084EA0204B4EB032F09D150F8042BEBE712
:101670004FEA13630DE015F0FF0F05D10B684FEA39
:10168000122223F07F4304E04FF00000FDE8044500
:10169000704712BA1BBA82FA4CF482EA0304A4FA25
:1016A0008CF5B5FA85F402FA04F203FA04F34FEA72
:1016B0001260FDE80445A0EB1360704700000000D5
:1016C00001F0FF01102A2BDB10F0070F08D010F8F3
:1016D000013B013A8B422DD010F0070F42B3F6D1F7
:1016E000F0B441EA012141EA014122F007047FF010
:1016F00000070023F0E80256083C85EA010586EA67
:10170000010685FA47F5A3FA87F586FA47F6A5FAA2
:1017100087F68EB9EED1F0BC01F0FF0102F00702AE
:1017200032B110F8013B013A83EA010313B1F8D159
:101730000020704701387047002D06BF354603383A
:10174000073815F0010F07D1013015F4807F02BF73
:10175000013015F4C03F0130F0BC0138704700BFC4
:10176000844641EA000313F003036DD1403A41D3AC
:1017700051F8043B40F8043B51F8043B40F8043B6B
:1017800051F8043B40F8043B51F8043B40F8043B5B
:1017900051F8043B40F8043B51F8043B40F8043B4B
:1017A00051F8043B40F8043B51F8043B40F8043B3B
:1017B00051F8043B40F8043B51F8043B40F8043B2B
:1017C00051F8043B40F8043B51F8043B40F8043B1B
:1017D00051F8043B40F8043B51F8043B40F8043B0B
:1017E00051F8043B40F8043B51F8043B40F8043BFB
:1017F000403ABDD2303211D351F8043B40F8043B9B
:1018000051F8043B40F8043B51F8043B40F8043BDA
:1018100051F8043B40F8043B103AEDD20C3205D3AA
:1018200051F8043B40F8043B043AF9D2043208D0A2
:10183000D2071CBF11F8013B00F8013B01D30B8814
:1018400003806046704700BF082A13D38B078DD0F2
:1018500010F003038AD0C3F10403D21ADB071CBFC4
:1018600011F8013B00F8013B80D331F8023B20F82E
:10187000023B7BE7043AD9D3013A11F8013B00F867
:10188000013BF9D20B7803704B7843708B788370EF
:1018900060467047000000000000000000000000EB
:1018A0000000000000000000000000000000000038
:1018B0000000000000000000000000000000000028
:1018C00090F800F06DE9024520F007016FF0000C80
:1018D00010F0070491F820F040F049804FF0000428
:1018E0006FF00700D1E9002391F840F000F1080003
:1018F00082FA4CF2A4FA8CF283FA4CF3A2FA8CF33B
:101900004BBBD1E9022382FA4CF200F10800A4FAA1
:101910008CF283FA4CF3A2FA8CF3E3B9D1E90423F5
:1019200082FA4CF200F10800A4FA8CF283FA4CF32C
:10193000A2FA8CF37BB9D1E9062301F1200182FAE6
:101940004CF200F10800A4FA8CF283FA4CF3A2FAEC
:101950008CF3002BC6D0002A04BF04301A4612BAFA
:10196000B2FA82F2FDE8024500EBD2007047D1E9FD
:10197000002304F00305C4F100004FEAC50514F08C
:10198000040F91F840F00CFA05F562EA05021CBF5D
:1019900063EA050362464FF00004A9E70348044BDD
:1019A000834202D0034B03B11847704770080020F0
:1019B00070080020000000000548064B1B1AD90FD4
:1019C00001EBA301491002D0034B03B11847704744
:1019D00070080020700800200000000010B5064CC0
:1019E000237843B9FFF7DAFF044B13B10448AFF390
:1019F00000800123237010BD70080020000000004B
:101A0000449D040808B5054B1BB105490548AFF3D3
:101A10000080BDE80840FFF7CFBF00BF0000000016
:101A200074080020449D040830B58BB00024059450
:101A30000694079408940994294BDA6C42F0040246
:101A4000DA64DA6C02F004020192019ADA6C42F074
:101A50000102DA64DA6C02F001020292029ADA6C94
:101A600042F00202DA64DA6C02F002020392039A94
:101A7000DA6C42F00802DA64DB6C03F008030493CA
:101A8000049B224620214FF0904001F01FFC4FF4B0
:101A9000005305934FF488150695079405A911483E
:101AA00001F076FA20230593012306930794089406
:101AB00005A94FF0904001F06BFA4FF400630593D5
:101AC0000695079405A9084801F062FA22462146C6
:101AD000282001F0B5F9282001F0EAF90BB030BD5B
:101AE0000010024000080048000C004800B583B018
:101AF0008DF807004FF0FF3301220DF10701034875
:101B000004F0D9FA03B05DF804FB00BF5C1B0020B1
:101B100000B583B04FF0FF3301220DF107010448F7
:101B200004F035FB9DF8070003B05DF804FB00BF2F
:101B30005C1B002008B5C0B2FFF7D8FF002008BD2D
:101B400010B5FFF7E5FF0446FFF7D0FF204610BDB4
:101B5000B0F5006F03D0044B01221A607047034BAD
:101B600001221A60704700BF8C080020C0080020C6
:101B700008B572B620214FF0904001F0ACFB322046
:101B800001F038F9F6E7000000B597B044220021D3
:101B900005A843F0ADFE0023009301930293039345
:101BA00004934FF4007002F0EFFD002831D102F0F1
:101BB000DBFD1B4AD2F8903023F01803C2F89030B6
:101BC00014230593012307930B9300220C926022A8
:101BD0000D9202220F921093119328231293072340
:101BE00013931492159205A802F0C0FE98B90F2322
:101BF000009303230193002302930393049304218E
:101C0000684603F0C1F940B903F034FE17B05DF83F
:101C100004FBFFF7ADFFFFF7ABFFFFF7A9FF00BF26
:101C20000010024010B58AB000230593D5238DF82B
:101C30001830194B0393194B0493194B0893194B04
:101C40000793194B0993194C03A9204600F096FD00
:101C50000DF10B01204600F0FAFC9DF80B306A2BC9
:101C600018D1124C204600F0ACFC1149204600F07F
:101C700087FC0421204600F08EFC0121204600F064
:101C8000B7FD01A9204600F017FD204600F004FC36
:101C90000AB010BDFFF76CFF792300087522000819
:101CA000E9220008AD220008252300089008002042
:101CB0000000404200B585B001F07AF8FFF764FFFC
:101CC000FFF7B2FE00F0E6F905F02AFF00230F4A05
:101CD00013600F4A1360FFF7A5FF0E4842F056FE4F
:101CE0000B4B1B68002BFBD0094B00221A6001A98B
:101CF000094800F0F7FC039B029A019907483FF05E
:101D000011FF074901A800F017F8E9E78C08002047
:101D1000C0080020A0A5040890080020BCA5040865
:101D2000C408002008B501460422024805F0A8F9BD
:101D300008BD00BF401C002008B508460A238B7070
:101D4000F6234B70FFF7EEFF08BD000082B00A4B90
:101D50001A6E42F001021A661A6E02F00102009237
:101D6000009A9A6D42F080529A659B6D03F0805301
:101D70000193019B02B0704700100240FEE7FEE7AE
:101D8000FEE7FEE7FEE770477047704708B501F0D1
:101D90001FF808BD08B5024803F0BAFD08BD00BF32
:101DA0005C1B002008B54FF4006001F09DFA4FF471
:101DB000005001F099FA08BD08B5024802F0AEF9EA
:101DC00008BD00BF102100200120704708B543F076
:101DD000C1FE162303604FF0FF3008BD08B54FF079
:101DE000FF31FFF7F3FFFEE770B50C4616460025FE
:101DF00006E0FFF7A5FE214601F8010B01350C4670
:101E0000B542F6DB304670BD70B50C46164600256F
:101E100004E014F8010BFFF78DFE0135B542F8DB45
:101E2000304670BD4FF0FF3070474FF400534B60A9
:101E300000207047012070470020704710B503460E
:101E40000C4A0D490D48006840B10C480068034435
:101E5000521A934206D8094A136010BD0748084C2D
:101E60000460F2E743F076FE0C2303604FF0FF308E
:101E7000F3E700BF0080012000040000C808002034
:101E8000882900207047002202604260826070470B
:101E9000002202604260826070470120704708B5EE
:101EA0000368DB69984708BD08B503681B6A984753
:101EB00008BD0000024A0260024A0260704700BF8B
:101EC000B4A90408ECA60408034A0260034A0260AD
:101ED000034A0260704700BF54A7040824A70408FF
:101EE00000A70408044A0260044A0260044A02602F
:101EF000044A0260704700BF84A7040854A704087E
:101F000024A7040800A70408844620290FD0002332
:101F10000CF5805252689A4207D90CEB4312101DFF
:101F200092698A4204D00133F2E700207047002012
:101F3000704710B400F58053D3F88842002300E0C6
:101F400001339C420BD9C21841F2080C12F80C2044
:101F50008A42F5D103F2224350F8230000E000202A
:101F600010BC704710B50446054B0360054B036079
:101F7000054B036041F2902135F092F9204610BDE7
:101F800054A7040824A7040800A7040810B50446B1
:101F9000064B0360064B0360064B0360064B036071
:101FA00041F2902135F07CF9204610BD84A7040849
:101FB00054A7040824A7040800A70408012800D097
:101FC000704738B54FF6FF73994200D038BD084DC1
:101FD0002A460849084835F0DFF8084C204606F044
:101FE000B1F82A460649204635F0D6F8EEE700BF9C
:101FF00000000020B51E000808000020CC080020CA
:10200000E51E0008F8B505460E46002400E0013440
:1020100005F580535B68A3420ED905EB44131F1DE1
:102020009B69202BF3D105EB44133146D869FFF7A8
:10203000DBF90028EBD100E000273846F8BD0000AE
:1020400010B50446044B0360044B0360042135F0D3
:1020500027F9204610BD00BFB4A90408ECA6040867
:10206000704708B50068FFF7FBFF08BD704708B56B
:102070000068FFF7FBFF08BD704708B50088FFF751
:10208000FBFF08BD08B54FF6FF710120FFF796FF73
:1020900008BD000008B50B480B4B03604FF4E1335B
:1020A000436000238360C36003610C22426183614B
:1020B000C3610362436204F034F900B908BDFFF75D
:1020C00057FDFBE75C1B00200038014010B5AAB0AB
:1020D0000446002125912691279128912991882253
:1020E00003A843F005FC22681B4B9A4201D02AB09A
:1020F00010BD0123039303A803F092F948BB174BCB
:102100001A6E42F480421A661A6E02F480420192FC
:10211000019ADA6C42F00202DA64DB6C03F002032B
:102120000293029BC0232593022326930024279425
:10213000032328930723299325A9094800F028FFA2
:1021400022462146252000F07BFE252000F0B0FE2F
:10215000CDE7FFF70DFDD2E7003801400010024047
:1021600000040048DFF834D0FFF78CFE0C480D491E
:102170000D4A002302E0D458C4500433C4188C42E2
:10218000F9D30A4A0A4C002301E013600432A24248
:10219000FBD343F0A7FDFFF78DFDFEE70080012094
:1021A0000000002070080020942F0508700800200F
:1021B00084290020FEE700002DE9F043ABB088221F
:1021C000002103A843F094FB8023039303A803F0AA
:1021D00027F91B4CE36C43F00203E364E36C03F068
:1021E00002030193019B4FF4806325934FF0120982
:1021F000CDF898904FF00008CDF89C8003272897E1
:10220000042629960F4D25A9284600F0C1FE4FF45B
:1022100000632593CDF89890CDF89C802897299657
:1022200025A9284600F0B4FEA36D43F48003A365FE
:10223000A36D03F480030293029B2BB0BDE8F083EF
:10224000001002400004004810B5084A936D23F4C2
:1022500080039365064C4FF48061204600F09EFF9A
:102260004FF40061204600F099FF10BD00100240BD
:10227000000400480B4B1B687BB1013B094A13600B
:102280000BB10020704710B5074C2046FFF7DCFF6C
:10229000204601F053FA10B910BD002070476FF0CE
:1022A0000700F9E7E01B0020E41B002010B584B014
:1022B0004FF4805402940193009201230A46014690
:1022C000084801F054FA10B9002004B010BD0548C8
:1022D00001F0FDFB042802D06FF00300F5E76FF07A
:1022E0006500F2E7E41B002010B584B04FF4805481
:1022F00002940193009201230A460146084801F026
:102300000BFB10B9002004B010BD054801F0DFFB45
:10231000042802D06FF00300F5E76FF06500F2E7E4
:10232000E41B002008B500F05FFD08BD38B5044689
:102330000F4B03600F4B4360002383600122C26098
:10234000036143618361C361036201F098F905464B
:1023500000B101250021204601F0BBFB00B10125A1
:102360000021204601F0E3FB00B10125284638BDDD
:102370000058004091297000124B134A1A60134A0A
:102380001368591C11600BB10020704710B50D483F
:1023900001F09AFB08B1002010BD0A4C2046FFF75F
:1023A0000BFF2046FFF7C2FF48B90021204601F08D
:1023B00090FB08B90020EFE76FF00700ECE76FF043
:1023C0000700E9E7E41B002000580040E01B002064
:1023D00038B505460C4622492046FEF78BFE48BB21
:1023E00020492046FEF786FE48BB1F492046FEF7DF
:1023F00081FE30BB1D492046FEF77CFE18BB1C4900
:102400002046FEF777FE00BB1A492046FEF772FE13
:10241000E8B919492046FEF76DFED0B917492046A4
:10242000FEF768FEB8B916492046FEF763FEA0B174
:10243000092300E0012385F82B30002038BD02235A
:10244000F9E70323F7E70423F5E70523F3E706237A
:10245000F1E70723EFE70823EDE70A23EBE700BFE7
:10246000000048410000D041000050420000D0422E
:10247000000050430000D043004050440080CF444F
:102480000020504510B54469007BA04710BD10B531
:102490000469007BA04710BD90F82930012B0BD0B8
:1024A00010B5044690F82B101C3000F008FA28B93B
:1024B000012384F8293010BD002070474FF0FF3011
:1024C000F9E7000038B505460C4624492046FEF7DA
:1024D00011FE48BB22492046FEF70CFE58BB21499D
:1024E0002046FEF707FE40BB1F492046FEF702FECE
:1024F00028BB1E492046FEF7FDFD10BB1C492046A7
:10250000FEF7F8FDF8B91B492046FEF7F3FDE0B9E8
:1025100019492046FEF7EEFDC8B918492046FEF7D6
:10252000E9FDB0B1092100E0012105F11C0000F036
:10253000C6F980B938BD0221F7E70321F5E7042188
:10254000F3E70521F1E70621EFE70721EDE7082191
:10255000EBE70A21E9E74FF0FF30EBE700004841E5
:102560000000D041000050420000D0420000504323
:102570000000D043004050440080CF44002050452C
:1025800008B590F82930012B02D0FFF721FF08BDD4
:10259000FFF798FFFBE708B5022905DD042909DDEF
:1025A000082909DC032100E000211C3000F04CF96F
:1025B00020B908BD0221F8E70121F6E74FF0FF300E
:1025C000F7E738B5054600F11C040121204600F06C
:1025D00003FA38BB0121204600F0BCF928BB0021DA
:1025E000204600F0A3FB18BB042385F82B30002104
:1025F000204600F064F9F0B90021204600F024F9EB
:10260000E0B9042385F82C300021204600F089F938
:10261000B8B90621204600F06BF9A8B9012385F866
:10262000283038BD4FF0FF30FBE74FF0FF30F8E7C0
:102630004FF0FF30F5E74FF0FF30F2E74FF0FF309B
:10264000EFE74FF0FF30ECE74FF0FF30E9E708B578
:102650001C3000F0BAF900B908BD4FF0FF30FBE7BD
:1026600010B582B00C460DF107011C3000F005F9E1
:10267000A0B99DF80730032B13D8DFE803F0020C54
:102680000609094B236002B010BD084B2360FAE72E
:10269000074B2360F7E7074B2360F4E74FF0FF3069
:1026A000F1E74FF0FF30EEE723DB793D23DBF93D27
:1026B00023DB793E23DBF93E10B582B00C46694638
:1026C0001C3000F060F950B9BDF900302380BDF92D
:1026D00002306380BDF90430A38002B010BD4FF01A
:1026E000FF30FAE770B584B005460C46002301932D
:1026F00002A91C3000F047F940BB01A92846FFF7AA
:10270000AFFF064628BBBDF90800FEF7F7FA0199AE
:10271000FEF748FBFEF722FD2060BDF90A00FEF738
:10272000EDFA019D2946FEF73DFBFEF717FD6060BF
:10273000BDF90C00FEF7E2FA01462846FEF732FB2F
:10274000FEF70CFDA060304604B070BD4FF0FF36C0
:10275000F9E74FF0FF36F6E700B583B08DF80720B4
:1027600001230DF107021C3000F069F810B903B025
:102770005DF804FB4FF0FF30F9E70000002829D096
:1027800010B504460B6803604A6842608A6882603C
:102790000A7B02730A6902614A6942618A6982613D
:1027A000114A0262114AC2614062B3B19847B8B996
:1027B000A368022B00D010BD94F82830002BFAD16A
:1027C0000C2212212046FFF7C7FF0028F3D04FF05C
:1027D000FF30F0E74FF0FF3070474FF0FF30EAE78F
:1027E0004FF0FF30E7E700BF852400088F24000882
:1027F00030B583B00D4600F11C0401A9204600F05D
:1028000005FA70B9012D0FD89DF8043065F3000367
:102810008DF804300199204600F0F7F838B903B07C
:1028200030BD4FF0FF30FAE74FF0FF30F7E74FF0E1
:10283000FF30F4E710B544688068A04710BD10B5BC
:1028400004688068A04710BD30B583B004460D46CB
:10285000012301AA1021FFF7EDFF08B103B030BD3D
:102860009DF8043065F383038DF80430012301AA39
:1028700010212046FFF7E3FFF0E710B582B00C46C9
:10288000012301AA1021FFF7D5FF9DF80430C3F3FF
:102890008103032B10D8DFE803F00206090C0023A4
:1028A000237002B010BD01232370FAE702232370C6
:1028B000F7E703232370F4E704232370F1E730B52F
:1028C00083B004460D46012301AA1021FFF7B2FF91
:1028D00008B103B030BD9DF8043065F307138DF8DF
:1028E0000430012301AA10212046FFF7A8FFF0E7DA
:1028F00030B583B004460D46012301AA1121FFF72C
:1029000099FF08B103B030BD9DF8043065F343036F
:102910008DF80430012301AA11212046FFF78FFF13
:10292000F0E730B583B004460D46012301AA11211A
:10293000FFF780FF08B103B030BD9DF8043065F3A8
:1029400007138DF80430012301AA11212046FFF757
:1029500076FFF0E730B583B004460D46012301AAA7
:102960001221FFF767FF08B103B030BD9DF80430B6
:1029700065F386138DF80430012301AA1221204645
:10298000FFF75DFFF0E710B582B00C4606236A46FC
:102990002821FFF74FFF9DF8012022809DF800308D
:1029A00003EB022323809DF8032062809DF8023010
:1029B00003EB022363809DF80520A2809DF804307C
:1029C00003EB0223A38002B010BD08B50A46012321
:1029D0000F21FFF72FFF08BD30B583B004460D4629
:1029E000012301AA1221FFF725FF08B103B030BD72
:1029F0009DF8043065F382038DF80430012301AAA9
:102A000012212046FFF71BFFF0E710B588B00446FF
:102A10000191012306AA0D21FFF70CFFC8B1002880
:102A200056D000285BD0002860D0002800F09D80A0
:102A3000002800F0A180002800F0AD80002800F000
:102A4000B180002800F0BD80002800F0D88008B0D8
:102A500010BD9DF804309DF8182063F300028DF836
:102A60001820C3F34001D2B261F341028DF818205F
:102A7000C3F38001D2B261F382028DF81820C3F350
:102A8000C001D2B261F3C3028DF81820C3F3001164
:102A9000D2B261F304128DF81820C3F34011D2B200
:102AA00061F345128DF81820C3F38011D2B261F39F
:102AB00086128DF81820DB09D2B263F3C7128DF8A5
:102AC0001820012306AA0D212046FFF7B8FEA6E72D
:102AD000012305AA5E212046FFF7ACFEA1E70123F2
:102AE00004AA5F212046FFF7A5FE9CE79DF805306C
:102AF0009DF8142063F300028DF81420C3F3400105
:102B0000D2B261F341028DF81420C3F38001D2B236
:102B100061F382028DF81420C3F3C001D2B261F3D5
:102B2000C3028DF81420C3F30011D2B261F3041272
:102B30008DF81420C3F34011D2B261F345128DF821
:102B40001420C3F38011D2B261F386128DF81420E1
:102B5000DB09D2B263F3C7128DF81420012305AA52
:102B60005E212046FFF76BFE5FE7012303AA1321D6
:102B70002046FFF75FFE5BE79DF806209DF80C30CE
:102B800062F304138DF80C30012303AA13212046AD
:102B9000FFF755FE4FE7012307AA1A212046FFF74A
:102BA00049FE4BE79DF806209DF81C3062F3C713E1
:102BB0008DF81C30012307AA1A212046FFF73FFE9B
:102BC0003FE7012302AA58212046FFF733FE9DF874
:102BD000053013F0FC0F04D19DF8103013F0FC0FFA
:102BE00006D09DF8083043F080038DF808302BE7BD
:102BF0009DF808306FF3C7138DF8083024E70123E0
:102C000002AA58212046FFF71AFE20E730B585B00A
:102C100005460C46012302AA0D21FFF70BFE08B161
:102C200005B030BD9DF80830227863F300022270B1
:102C3000C3F34001D2B261F341022270C3F38001B9
:102C4000D2B261F382022270C3F3C001D2B261F347
:102C5000C3022270C3F30011D2B261F304122270D6
:102C6000C3F34011D2B261F345122270C3F3801155
:102C7000D2B261F386122270DB09D2B263F3C712BB
:102C80002270012301AA5E212846FFF7D3FD002808
:102C9000C6D19DF80430627863F300026270C3F31A
:102CA0004001D2B261F341026270C3F38001D2B23B
:102CB00061F382026270C3F3C001D2B261F3C30256
:102CC0006270C3F30011D2B261F304126270C3F3F5
:102CD0004011D2B261F345126270C3F38011D2B2D7
:102CE00061F386126270DB09D2B263F3C7126270BD
:102CF00001236A4613212846FFF79CFD00288FD147
:102D00009DF80030C3F30013A27863F30002A270B1
:102D1000012303AA1A212846FFF78CFD9DF80C30E9
:102D2000DB09A27863F30002A27079E730B583B0C3
:102D300004460D46012301AA0A21FFF77BFD08B1D5
:102D400003B030BD9DF8043065F302038DF8043004
:102D5000012301AA0A212046FFF771FDF0E70000D8
:102D6000104B1B780BB90120704710B504464FF487
:102D70007A70B0FBF3F30C4A1068B0FBF3F000F08C
:102D8000A5F868B90F2C01D901200AE000222146DC
:102D90004FF0FF3000F054F8044B1C60002000E0BE
:102DA000012010BD0C0000200400002010000020B5
:102DB00010B5032000F032F80020FFF7D1FF10B16A
:102DC0000124204610BD0446FEF7C0FFF9E70000CD
:102DD000034B1B78034A11680B441360704700BF14
:102DE0000C000020381C0020014B1868704700BF01
:102DF000381C002038B50446FFF7F6FF0546B4F14D
:102E0000FF3F02D0044B1B781C44FFF7EDFF401B33
:102E1000A042FAD338BD00BF0C000020074AD36897
:102E200023F4E0631B041B0C000200F4E060034386
:102E300043F0BF6343F40033D360704700ED00E01C
:102E400000B5194BDB68C3F30223C3F1070CBCF1D7
:102E5000040F28BF4FF0040C03F1040EBEF1060F5F
:102E600018D9033B4FF0FF3E0EFA0CFC21EA0C018F
:102E700099400EFA03FE22EA0E020A4300280BDBF9
:102E80001201D2B200F1604000F5614080F80023E9
:102E90005DF804FB0023E5E700F00F001201D2B259
:102EA000024B1A54F4E700BF00ED00E014ED00E01F
:102EB000002807DB00F01F02400901239340024A6B
:102EC00042F82030704700BF00E100E00138B0F167
:102ED000807F0BD24FF0E0235861054AF02182F841
:102EE00023100020986107221A6170470120704763
:102EF00000ED00E090F82530DBB2022B06D0042371
:102F0000C363002380F824300120704702681368EF
:102F100023F00E0313600268136823F001031360AB
:102F2000436C03F01C03016C012202FA03F34B60B3
:102F300080F82520002380F824301846704708B513
:102F400090F82530DBB2022B03D00423C3630120A9
:102F500008BD0268136823F00E031360026813684B
:102F600023F001031360436C03F01C03016C012286
:102F700002FA03F34B6080F82520002380F8243008
:102F8000836B13B198470020E2E70020E0E70000E0
:102F900070B582B000236EE085685E000324B44003
:102FA00025EA0405CC68B4402C438460456825EAD2
:102FB0000C054C68C4F300149C402C4344606DE045
:102FC000C56A25EA0C05C4F3C0049C402C43C462C6
:102FD0006AE0DD08083550F8254003F0070C4FEA99
:102FE0008C0C4FF00F0E0EFA0CFE24EA0E0E0C693C
:102FF00004FA0CF444EA0E0440F825406CE0062480
:1030000000E0002404FA0EF42C430CF1020C5F4D96
:1030100045F82C405E4CA568D44325EA0206D1F859
:1030200004C01CF4801F01D042EA0506584DAE6072
:10303000ED6804EA0506D1F804C01CF4001F01D0B5
:1030400042EA0506524DEE606D6804EA0506D1F8C5
:1030500004C01CF4003F01D042EA05064C4D6E60EE
:103060002D682C404E6816F4803F01D042EA0504DA
:10307000474A146001330A6832FA03F400F083808F
:103080004FF0010C0CFA03FC1CEA0202F2D04C686F
:1030900004F00304013C012C7FF67EAF4C6804F081
:1030A000030EBEF1030F8BD04C6804F00304032C15
:1030B0000CD0C4685D004FF0030C0CFA05FC24EA48
:1030C0000C0C8C68AC4044EA0C04C4604C6804F0FE
:1030D0000304022C3FF47DAF04684FEA430E4FF027
:1030E000030C0CFA0EFC24EA0C0C4C6804F00304EC
:1030F00004FA0EF444EA0C0404604C6814F4403FF3
:10310000B8D0244C256E45F001052566246E04F0E8
:1031100001040194019C4FEA930C0CF102051B4C35
:1031200054F8255003F0030E4FEA8E0E0F2404FAD4
:103130000EF425EA0405B0F1904F3FF462AF164C4F
:10314000A04216D004F58064A04214D004F5806437
:10315000A04212D004F58064A04210D004F580642F
:10316000A0420ED004F58064A0423FF448AF07248B
:1031700048E7012446E7022444E7032442E7042405
:1031800040E705243EE702B070BD00BF00000140EB
:10319000000401400010024000040048002331FAFE
:1031A00003F200F08B80F0B532E0062500E0002548
:1031B00005FA0CF5A54265D004685D004FF0030CDC
:1031C0000CFA05FC44EA0C0404604FEAD30E0EF13D
:1031D000080E50F82E4003F00706B6000F25B54044
:1031E00024EA050440F82E40846824EA0C04846034
:1031F000446824EA02044460C46824EA0C04C460FD
:10320000C46A24EA0202C262013331FA03F254D0E2
:1032100001229A4012EA0107F6D04FEA930E0EF10E
:103220000205274C54F8254003F0030C4FEA8C0CA0
:103230000F2505FA0CF63440B0F1904FB7D0214D70
:10324000A84215D005F58065A84213D005F5806524
:10325000A84211D005F58065A8420FD005F580651C
:10326000A8420DD005F58065A8429ED007259FE7AE
:1032700001259DE702259BE7032599E7042597E7AC
:10328000052595E7104C256825EA07052560656842
:1032900025EA07056560E56825EA0705E560A56894
:1032A00025EA0705A560064F0EF1020457F82450E1
:1032B00025EA060547F824507EE7F0BD704700BFB9
:1032C0000000014000040048000401400AB181618F
:1032D000704781627047436901EA030221EA0301F2
:1032E00041EA02418161704708B5054B5B690342C1
:1032F00000D108BD024B5861FEF72AFCF9E700BF78
:103300000004014003689A6912F0020F01D0002204
:103310009A6203689A6912F0010F03D19A6942F028
:1033200001029A61704710B4019CC1F3090141EA9E
:1033300002411943214321F0004102685368640DA2
:1033400004F4806444F07F7444F4583444F47F748B
:1033500044F0030423EA04030B43536010BC70479A
:103360002DE9F041044603689F6917F010074CD01F
:103370000E4690461022DA6100252368986910F005
:10338000200F3BD1002D39D1B6F1FF3FF5D0FFF72B
:103390002BFDA0EB0800B04201D8002EEDD1216832
:1033A0004B6803F4804394F84220D2B2886910F449
:1033B000004F02D00BB9202A18D123689B6913F063
:1033C000200FDAD1FFF710FDA0EB08001928F4D97F
:1033D000636C43F020036364202384F841300023AE
:1033E00084F8423084F840300125E6E74B6843F426
:1033F00080434B60FFF7F8FC8046DEE7002D40D1AC
:103400002022DA610427012500E000252268936963
:1034100013F4807F05D047F001074FF48071D1612C
:10342000012513F4806F06D047F0080722684FF497
:103430008061D161012513F4007F24D047F0020799
:1034400023684FF40072DA6101252046FFF75AFF26
:103450002268536823F0FF7323F48B3323F4FF7344
:1034600023F001035360636C3B436364202384F8BF
:103470004130002384F8423084F840302846BDE8CB
:10348000F0810427C2E7002DF8D0DEE770B50446CE
:103490000D46164623689B6913F0020F1DD1324674
:1034A00029462046FFF75CFFC8B9B5F1FF3FF1D0D0
:1034B000FFF79AFC801BA84201D8002DEAD1636C6B
:1034C00043F020036364202384F84130002384F810
:1034D000423084F84030012000E0002070BD01201F
:1034E000FCE72DE9F0410646884617461D4634683C
:1034F000A46938EA04040CBF01240024BC4218D19A
:10350000B5F1FF3FF3D0FFF76FFC069BC01AA8424E
:1035100001D8002DEBD1736C43F02003736420239A
:1035200086F84130002386F8423086F8403001208A
:1035300000E00020BDE8F0812DE9F04182B00446B2
:1035400090461D46089E099F194B00934FF08073CB
:10355000EAB2FFF7E8FE3A4631462046FFF796FF0B
:10356000F8B9012D0ED123685FFA88F29A620097AC
:103570003346002280212046FFF7B3FFA8B902B0EE
:10358000BDE8F08123684FEA18229A623A46314634
:103590002046FFF77BFF30B923685FFA88F29A6212
:1035A000E5E70120EBE70120E9E70120E7E700BFBD
:1035B000002000802DE9F04182B0044690461D466F
:1035C000089E099F184B00930023EAB2FFF7ABFE59
:1035D0003A4631462046FFF759FFF8B9012D0ED182
:1035E00023685FFA88F29A620097334600224021EE
:1035F0002046FFF776FFA8B902B0BDE8F081236846
:103600004FEA18229A623A4631462046FFF73EFFBB
:1036100030B923685FFA88F29A62E5E70120EBE7A8
:103620000120E9E70120E7E70020008070B50546AA
:103630000C4616462B689B6913F0200F1AD13246B0
:1036400021462846FFF78CFEB0B9FFF7CDFB801B63
:10365000A04201D8002CEDD16B6C43F020036B64C9
:10366000202385F84130002385F8423085F840302A
:10367000012070BD0020FCE70120FAE77047002818
:1036800059D010B5044690F84130002B43D0242384
:1036900084F841302268136823F0010313606368E3
:1036A000226823F0706313612268936823F4004357
:1036B0009360E368012B33D0A368226843F404438A
:1036C0009360E368022B31D02268536843F00073A3
:1036D00043F4004353602268D36823F40043D3606B
:1036E000236962691343A169226843EA0123D36015
:1036F000E369216A22680B4313602268136843F070
:103700000103136000206064202384F841302063AB
:1037100084F8420010BD80F84030FFF7AFFFB6E7F5
:10372000A368226843F400439360CAE723684FF418
:1037300000625A60C8E7012070477047A8B110B511
:103740000446242380F841300268136823F0010303
:103750001360FFF7F2FF0020606484F841002063EB
:1037600084F8420084F8400010BD012070472DE924
:10377000F04F83B00E46BDF834A00E9D90F8411076
:10378000C9B2202940F0BB800446904699460C9B64
:10379000CBB1BAF1000F16D090F84030012B00F0F9
:1037A000B2804FF0010B80F840B0FFF71DFB0746D9
:1037B000009019235A464FF400412046FFF791FE2E
:1037C00030B101209CE04FF400736364012097E066
:1037D000212384F84130402384F84230002363647D
:1037E0000C9A6262A4F82AA06363019700954B4685
:1037F000424631462046FFF79FFE70B9638D9BB26B
:10380000FF2B0FD9FF222285002300934FF08073F6
:1038100031462046FFF787FD21E0002384F8403041
:1038200058466DE0628D92B22285002300934FF0DE
:103830000073D2B231462046FFF775FD0FE0628D6E
:1038400092B22285002300934FF00073D2B231462A
:103850002046FFF768FD638D9BB2002B33D03A46BC
:1038600029462046FFF712FE00284ED1626A2368DF
:1038700012789A62636A01336362638D9BB2013B83
:103880009BB26385238D013B9BB22385628D92B2EF
:10389000002AE0D0002BDED100972B4600228021A9
:1038A0002046FFF71EFE90BB638D9BB2FF2BC6D94F
:1038B000FF222285002300934FF08073314620467B
:1038C000FFF731FDC7E73A4629462046FFF7AEFE2F
:1038D000F8B923682022DA6121684B6823F0FF736E
:1038E00023F48B3323F4FF7323F001034B6084F83C
:1038F0004120002384F8423084F8403000E0022068
:1039000003B0BDE8F08F0220FAE70120F8E70120BC
:10391000F6E70120F4E700002DE9F04F83B00E46F2
:10392000BDF834A00E9D90F84110C9B2202940F096
:10393000BC800446904699460C9BCBB1BAF1000F6F
:1039400016D090F84030012B00F0B3804FF0010BFF
:1039500080F840B0FFF748FA0746009019235A460E
:103960004FF400412046FFF7BCFD30B101209DE03F
:103970004FF400736364012098E0222384F84130FF
:10398000402384F84230002363640C9A6262A4F8F6
:103990002AA06363019700954B4642463146204674
:1039A000FFF708FE70B9638D9BB2FF2B0FD9FF2282
:1039B0002285444B00934FF0807331462046FFF739
:1039C000B2FC21E0002384F8403058466EE0628D5E
:1039D00092B222853B4B00934FF00073D2B2314636
:1039E0002046FFF7A0FC0FE0628D92B222850023F3
:1039F00000934FF00073D2B231462046FFF793FC9C
:103A0000638D9BB2002B34D000972B4600220421FB
:103A10002046FFF766FD00284DD123685A6A636A85
:103A20001A70636A01336362228D013A92B2228571
:103A3000638D9BB2013B9BB26385638D9BB2002B70
:103A4000DED0002ADCD100972B4680212046FFF7EC
:103A500048FD90BB638D9BB2FF2BC5D9FF22228509
:103A6000002300934FF0807331462046FFF75BFC44
:103A7000C6E73A4629462046FFF7D8FDF8B923683D
:103A80002022DA6121684B6823F0FF7323F48B3323
:103A900023F4FF7323F001034B6084F841200023DB
:103AA00084F8423084F8403000E0022003B0BDE8E2
:103AB000F08F0220FAE70120F8E70120F6E7012065
:103AC000F4E700BF0024008090F841007047406C8C
:103AD0007047034690F84120D2B2202A23D190F8B3
:103AE0004020012A21D0012280F84020242280F8A1
:103AF00041200068026822F0010202601868026832
:103B000022F480520260186802681143016019684B
:103B10000A6842F001020A60202283F84120002056
:103B200083F8400070470220704702207047034628
:103B300090F84120D2B2202A21D190F84020012AC9
:103B40001FD0012280F84020242280F84120006804
:103B5000026822F0010202601868026822F47062B2
:103B600042EA0122026019680A6842F001020A6012
:103B7000202283F84120002083F840007047022073
:103B80007047022070472DE9F843076801EBC10335
:103B900000EB8303DA6D5B6D9A4254D880460C4685
:103BA0009B1A01EBC10200EB8202926C9A4200D395
:103BB0001A4602F103094FEA990913E006F10309D5
:103BC0004FEA990904EBC40508EB8505B3B2E2B2EC
:103BD000E96C384602F047FFEB6C3344EB64EB6D65
:103BE0003344EB6507EB441303F510639B699BB209
:103BF0004B4512D304EBC40308EB8303DA6D5B6D12
:103C00009A420AD24BB19B1A04EBC40208EB82021F
:103C1000966C9E42D2D31E46D0E704EBC40308EB59
:103C20008308D8F85420D8F85C309A420ED804F0B3
:103C30000F040122A240D7F8343823EA0203C7F860
:103C40003438002000E00120BDE8F8830020FBE7C5
:103C500070B58AB0002800F097800546046890F897
:103C6000BD343BB3032385F8BD34E36B13F4807F8D
:103C700001D100232B61286802F042FC2C4654F845
:103C8000106BEC460FCCACE80F000FCCACE80F008B
:103C900094E803008CE803002B1D0ECB304602F0A5
:103CA0009BFB044658B1022385F8BD34012420460D
:103CB0000AB070BD80F8BC3403F0F6FFD2E70021F3
:103CC000286803F098F8234616E003EBC30205EBDF
:103CD0008202012182F83D1082F83C30A2F8443083
:103CE000002182F840109164D16403EBC30205EB1C
:103CF000820251650133DBB269688B42E5D316E07D
:103D000004EBC40305EB8303002283F87D2283F8D0
:103D10007C4283F88022C3F88822C3F88C2204EB0B
:103D2000C40305EB8303C3F894220134E4B2A14237
:103D3000E6D82C4654F8106BEC460FCCACE80F00DC
:103D40000FCCACE80F0094E803008CE803002B1DB7
:103D50000ECB304602F030FC044660B9002385F8F3
:103D60003830012385F8BD346B6A012B08D02868F0
:103D700003F000F89BE7022385F8BD34012496E7A1
:103D8000284600F0DDFCF2E7012490E7026890F895
:103D9000BC34012B16D010B50446012380F8BC3486
:103DA000836A012B09D0206802F0A4FB206802F08E
:103DB000D3FF002084F8BC0410BD936B43F4803320
:103DC0009363F0E70220704738B503681C6C03EB7F
:103DD000411303F530639D680B4A94420FD115F4EB
:103DE000004F03D04FF400429A600BE015F0200F13
:103DF00001D020229A60C9B203F0D0FF02E0C9B21C
:103E000003F0CCFF002038BD0A31544F10B50368D1
:103E10001C6C03EB4113D3F8081B074A944207D9E3
:103E200003F5306311F4004F02D04FF400429A6062
:103E300003F0ACFF002010BD0A30544F90F8BC34A2
:103E4000012B0DD010B50446012380F8BC3480F856
:103E50003810006802F070FF002084F8BC0410BD28
:103E60000220704738B505468C4611F0800F29D1E5
:103E700001F00F0E0EEBCE04A40004F51E740444F2
:103E8000211D0EEBCE0E00EB8E0E00208EF87D0273
:103E90000CF00F0C81F800C0CA600B714A780AB1AF
:103EA000A1F808C0022B1DD095F8BC34012B1CD002
:103EB000012385F8BC34286802F03EFC002085F818
:103EC000BC0438BD01F00F0000EBC001890038319F
:103ED0002944043100EBC00005EB8000012480F888
:103EE0003D40D5E700234B71DEE70220E9E710B53E
:103EF00004460A4611F0800F20D101F00F0000EBBC
:103F0000C0039B0003F51E732344191D00EBC00082
:103F100004EB8000002380F87D3202F00F020A706B
:103F200094F8BC34012B19D0012384F8BC342068E8
:103F300002F050FC002084F8BC0410BD01F00F001A
:103F400000EBC0039B0038332344191D00EBC00075
:103F500004EB8000012380F83D30DEE70220ECE72F
:103F600010B501F00F0404EBC401890001F51E71C6
:103F70000144043104EBC40C00EB8C0CCCF88C2213
:103F8000CCF894320023CCF89C328CF87D328CF83B
:103F90007C4224B9006802F08DFC002010BD00684E
:103FA00002F076FDF9E710B501F00F0404EBC4014F
:103FB000890038310144043104EBC40C00EB8C0C53
:103FC000CCF84C20CCF854300023CCF85C300123E2
:103FD0008CF83D308CF83C4024B9006802F06AFC53
:103FE000002010BD006802F053FDF9E738B501F07C
:103FF0000F054268954238D804460B4611F0800FF1
:104000001FD101EBC101890001F51E71014404318A
:1040100003EBC30300EB8303002283F87D2201231B
:104020008B700D7094F8BC34012B20D0012384F8E0
:10403000BC34206802F025FE8DB1002084F8BC0459
:1040400038BD05EBC501890038310144043105EB69
:10405000C50300EB8303012283F83D20DFE704F270
:10406000C441206802F008FFE7E70120E8E70220EA
:10407000E6E701F00F034268934231D810B50446D9
:1040800011F0800F1ED103EBC301890001F51E71F1
:104090000144043103EBC30200EB8202002082F8EA
:1040A0007D0200228A700B7094F8BC34012B19D069
:1040B000012384F8BC34206802F010FE002084F84C
:1040C000BC0410BD03EBC301890038310144043145
:1040D00003EBC30200EB8202012082F83D00E0E71F
:1040E000012070470220ECE708B511F0800F0CD1D9
:1040F00001F00F0101EBC101890001F51E710144BE
:104100000431006802F051FC08BD01F00F0101EB21
:10411000C1018900383101440431F2E72DE9F04F43
:1041200083B004460568284602F061FE10B103B072
:10413000BDE8F08F0646206802F02AFE0028F6D07F
:1041400005F50067BB68C3F30D23C4F8FC34206891
:1041500002F01EFE10F0020F04D02268536903F033
:1041600002035361206802F013FE10F0100F14D008
:104170002268936923F010039361D5F8208008F03A
:104180000F09C8F34343022B69D0062B00F08D8042
:104190002268936943F010039361206802F0F8FDF0
:1041A00010F4002F40F09380206802F0F1FD10F42D
:1041B000802F40F0FC80206802F0EAFD0028C0F269
:1041C0006581206802F0E4FD10F4006F09D0BB683F
:1041D00013F0010F40F072812268536903F4006309
:1041E0005361206802F0D4FD10F0006F15D02268F2
:1041F000536903F00063536194F8F434002B40F0EA
:104200006181012184F8F41423685B6DC3F3830397
:10421000C4F8F834204603F001FF206802F0B8FD2E
:1042200010F4805F40F05281206802F0B1FD10F47C
:10423000005F40F09E81206802F0AAFD10F0080F98
:1042400040F0AF81206802F0A3FD10F0800F00F075
:10425000C281AB6923F08003AB610126ABE147F675
:10426000F07318EA030F93D04FEA181B4FEAC90303
:10427000019309EBC90A04EB8A0AC8F30A12DAF8B7
:104280008C12284602F0DAFCCBF30A0BDAF88C32F7
:104290005B44CAF88C32019B4B4404EB8303D3F894
:1042A0009C325B44CAF89C3272E7082204F2C44193
:1042B000284602F0C3FCC8F30A1809EBC90204EB54
:1042C0008202D2F89C324344C2F89C3260E72068F4
:1042D00002F062FD8046B14635E005EB491301224C
:1042E000C3F8082B49462046FFF76EFD3CE005EB7E
:1042F00049130822C3F8082B49462046FFF786FDDC
:1043000035E009EBC90304EB830393F87F32012BFB
:1043100041D005EB49130222C3F8082B1AF0200FF5
:1043200004D005EB49132022C3F8082B1AF4005FD0
:1043300005D005EB49134FF40052C3F8082B09F1DF
:1043400001094FEA5808B8F1000F3FF42DAF18F0FB
:10435000010FF4D05FFA89FB5946206802F02CFD6A
:10436000824610F0010FB8D11AF0080FBFD11AF031
:10437000100F04D005EB49131022C3F8082B1AF0D4
:10438000020FCBD06B6913F0800FBAD07B6843F477
:1043900080637B60B5E709EBC90304EB830300226C
:1043A00083F87F225946204603F05AFDB1E7206882
:1043B00002F0FAFC8046B1461BE009F00F02012131
:1043C00001FA02F27B6B23EA02037B6305EB4913DC
:1043D000C3F808195946204603F0ECFC1AE01AF01D
:1043E000020F30D11AF0800F4BD109F101094FEAC9
:1043F0005808B8F1000F3FF4DEAE18F0010FF4D00A
:104400005FFA89FB5946206802F0DFFC824610F013
:10441000010FD2D11AF0080F04D005EB491308227E
:10442000C3F808291AF0100F04D005EB4913102225
:10443000C3F808291AF0400FD1D005EB49134022E8
:10444000C3F80829CBE74946284602F05FF809EB94
:10445000C90304EB830393F83F30012B05D005EB30
:1044600049130222C3F80829BCE709EBC90304EB8E
:104470008303002283F83F205946204603F0F6FCD0
:10448000EDE749462046FFF77EFBAEE77B6823F069
:1044900001037B6094F8F434012B08D0204603F02C
:1044A000C5FC2268536903F00043536189E600218B
:1044B00084F8F414204603F0B1FDF2E7204603F03F
:1044C0009DFC89E6204603F099FCA6E67B6823F074
:1044D00001037B601021206802F018F81AE005EB58
:1044E00046134FF67F31C3F80819D3F8002922F498
:1044F0000012C3F80029C3F8081BD3F8002B22F4DC
:104500000012C3F8002BD3F8002B42F00062C3F86E
:10451000002B01366368B342E1D8FB6943F0011315
:10452000FB61236BD3B1D7F8843043F00B03C7F89A
:1045300084307B6C43F00B037B64D5F8003823F4A4
:10454000FE63C5F8003804F2C441206802F094FC10
:104550002268536903F48053536165E67B6943F431
:10456000005343F02B037B613B6943F00B033B613A
:10457000E3E7206802F070FC206802F0CFF8E0600A
:10458000266800F0C5FD0146227B304601F040FF61
:10459000204603F020FC2268536903F40053536162
:1045A00049E6204603F011FC2268536903F0080332
:1045B000536147E601366368B3420CD906EBC60384
:1045C00004EB830393F87F32012BF3D1F1B2204641
:1045D000FFF78AFDEEE7206802F0DAFB10F4801F97
:1045E00027D1206802F0D4FB10F4001F5BD0012318
:1045F00028E001366368B3421DD905EB4613D3F8B2
:10460000002906EBC60304EB830393F84030012B2B
:10461000EFD1002AEDDA06EBC60304EB8303012297
:1046200083F83F2066F07F01C9B22046FFF75CFDAA
:10463000DFE70126DEE72268536903F48013536144
:10464000CFE7013362689A4228D905EB4312D2F8CA
:10465000001B03EBC30204EB820292F88022012AC2
:10466000EFD10029EDDA01F48031D4F8FC2402F016
:1046700001029142E5D103EBC30204EB8202012166
:1046800082F87F12AA6942F08002AA616A6912F078
:10469000800FD6D17B6843F400737B602268536936
:1046A00003F400135361206802F072FB10F0804F96
:1046B00010D1206802F06CFB10F0040F3FF437AD0E
:1046C00023685D6815F0040F0DD1226853682B43F1
:1046D00053602CE5204603F0CFFB2268536903F0BA
:1046E00080435361E5E7204603F0CCFBEDE710B4CF
:1046F0000468606A29B940EA0240A062002010BC48
:1047000070478C46A36A00EB1340002308E003F1D6
:10471000400104EB8101496800EB11400133DBB239
:104720000CF1FF318B42F2D340EA02400CF13F0121
:1047300004EB81046060E1E7036859620020704780
:10474000034602680121C0F80015002083F8F40434
:10475000936943F000639361536D43F0805343F0DA
:104760000303536570470000024A136843F48073E3
:104770001360704700700040024B186800F4C0607E
:10478000704700BF00700040B0F5007F0FD01F4B96
:104790001B6803F4C063B3F5806F34D01B4A136801
:1047A00023F4C06343F48063136000207047174B09
:1047B0001B6803F4C063B3F5007F20D0134A13686D
:1047C00023F4C06343F400731360114B1B6832225F
:1047D00002FB03F30F4AA2FB03239B0C013300E00F
:1047E000013B0A4A526912F4806F01D0002BF7D1C5
:1047F000064B5B6913F4806F03D1002070470020E3
:104800007047032070470020704700BF00700040D1
:104810000400002083DE1B43024A536843F4806394
:10482000536070470070004030B583B00446204BA1
:104830009B6D13F0805F0BD0FFF79EFFB0F5007FFC
:1048400017D0802C1FD82DD0702C2DD000211BE02C
:10485000174DAB6D43F08053AB65AB6D03F08053E8
:104860000193019BFFF788FFAB6D23F08053AB658D
:10487000E4E7802C03D9A02C03D9022104E0002115
:1048800002E0012100E003210A4A136823F0070334
:104890000B431360136803F007038B4206D100201B
:1048A00003B030BD0221EFE70121EDE70120F7E77A
:1048B0000010024000200240284A9368D26802F0AB
:1048C000030213F00C030AD00C2B06D0042B1FD0CC
:1048D000082B20D00020024610E0012AF6D11F4A02
:1048E000126812F0080F0CD11C4AD2F89420C2F3BF
:1048F00003221B4951F8222043B100200C2B0DD07C
:104900007047164A1268C2F30312F2E71046F5E741
:1049100014480022F2E714480022EFE70F4BDB684F
:1049200003F00303022B16D0032B00D10E4A0B49D0
:10493000CB68C3F302130133C868C0F3062002FB3F
:1049400000F0B0FBF3F0CB68C3F3416301335B00CD
:10495000B0FBF3F0D4E7034AE9E700BF00100240E0
:10496000E8A504080024F40000127A00002800F0F2
:10497000F182F0B583B00446964B9D6805F00C05B6
:10498000DE6806F00306036813F0100F5AD0E5B195
:104990000C2D18D0A369002B00F0BB808D4A136842
:1049A00043F001031360FEF71FFA0746894B1B68AB
:1049B00013F0020F40F09A80FEF716FAC01B02288F
:1049C000F4D90320D1E2012EE4D1824B1B6813F00D
:1049D000020F03D0A369002B00F0BE82206A7D4B3A
:1049E0001B6813F0080F5BD07A4B1B6803F0F003D1
:1049F00098425CD8774B1A6842F008021A601A682D
:104A000022F0F002216A0A431A605A6822F47F42B7
:104A1000E16942EA01225A60002D60D0FFF74CFFA5
:104A20006C4B9B68C3F303136B4AD35C03F01F0307
:104A3000D8406A4B18606A4B1868FEF791F9002855
:104A400040F09382236813F0010F00F08180082D5D
:104A500075D00C2D71D06368B3F5803F00F097805E
:104A6000B3F5A02F00F099805A4B1A6822F48032D7
:104A70001A601A6822F480221A606368002B00F022
:104A80009980FEF7B1F90746524B1B6813F4003FBB
:104A90005ED1FEF7A9F9C01B6428F5D9032064E2B2
:104AA0004C4BD3F894301B0903F0F003A0E7FFF759
:104AB000BBFE002840F05282464B1A6842F00802C2
:104AC0001A601A6822F0F002216A0A431A605A68D2
:104AD00022F47F42E16942EA01225A609EE7206A9D
:104AE000FFF7A2FE002899D001203EE2394B1A6858
:104AF00042F008021A601A6822F0F002216A0A43A2
:104B00001A605A6822F47F42E16942EA01225A603F
:104B100098E7304A136823F001031360FEF764F945
:104B200007462C4B1B6813F0020F8BD0FEF75CF985
:104B3000C01B0228F5D9032017E2032E8BD1254B89
:104B40001B6813F4003F03D06368002B00F0088259
:104B5000236813F0020F58D0042D45D00C2D41D0FE
:104B6000E368002B77D01B4A136843F4807313600B
:104B7000FEF73AF90646174B1B6813F4806F61D1B4
:104B8000FEF732F9801B0228F5D90320EDE1114A26
:104B9000136843F4803313606FE703F18043A3F598
:104BA0003C331A6842F480221A601A6842F4803258
:104BB0001A6062E7FEF718F90746064B1B6813F404
:104BC000003FC5D0FEF710F9C01B6428F5D90320BB
:104BD000CBE100BF00100240D0A504080400002073
:104BE00010000020022EBBD1A34B1B6813F4806F72
:104BF00003D0E368002B00F0B5819F4A536823F08F
:104C0000F853216943EA01635360236813F0080FE6
:104C10004CD063699BB3984AD2F8943043F00103B7
:104C2000C2F89430FEF7E0F80646934BD3F8943080
:104C300013F0020F3AD1FEF7D7F8801B0228F4D9FF
:104C4000032092E18C4A536823F0F853216943EA28
:104C500001635360D9E7884A136823F480731360B3
:104C6000FEF7C2F80646844B1B6813F4806FCCD065
:104C7000FEF7BAF8801B0228F5D9032075E17E4AB9
:104C8000D2F8943023F00103C2F89430FEF7ACF868
:104C90000646794BD3F8943013F0020F06D0FEF796
:104CA000A3F8801B0228F4D903205EE1236813F0E7
:104CB000040F7AD0704B9B6D13F0805F36D16E4B32
:104CC0009A6D42F080529A659B6D03F08053019378
:104CD000019B0126694B1B6813F4807F28D0A368D1
:104CE000012B39D0052B3FD0634BD3F8902022F015
:104CF0000102C3F89020D3F8902022F00402C3F8F8
:104D00009020A368002B3DD0FEF76EF807465A4B63
:104D1000D3F8903013F0020F46D1FEF765F8C01BB0
:104D200041F288339842F2D903201EE10026D1E7F0
:104D3000524A136843F480731360FEF755F8074630
:104D40004E4B1B6813F4807FC9D1FEF74DF8C01B92
:104D50000228F5D9032008E1474AD2F8903043F001
:104D60000103C2F89030CCE7434BD3F8902042F0D7
:104D70000402C3F89020D3F8902042F00102C3F857
:104D80009020BEE7FEF730F807463B4BD3F8903053
:104D900013F0020F08D0FEF727F8C01B41F288334A
:104DA0009842F2D90320E0E0EEB9A36A002B00F0AC
:104DB000DB80022B1DD00C2D00F0DD802E4A136805
:104DC00023F080731360FEF70FF804462A4B1B682C
:104DD00013F0007F00F0B780FEF706F8001B0228F2
:104DE000F4D90320C1E0244A936D23F080539365E6
:104DF000DBE7214BDB6803F00301E26A91420FD04D
:104E00000C2D00F0B4801C4B1B6813F0806F40F039
:104E1000B080194B1B6813F0805F31D00120A4E0F3
:104E200003F07002216B0139B2EB011FE8D103F4EA
:104E3000FE42616BB2EB012FE2D103F40031A26BB1
:104E4000073A18BF01229142DAD103F4C001E26BA4
:104E50005208013AB1EB425FD2D103F0C063226C39
:104E60005208013AB3EB426FCAD1034B1B6813F0EF
:104E7000007F4ED0002078E000100240007000401B
:104E80003E4A136823F080731360FDF7ADFF0546BB
:104E90003A4B1B6813F0007F06D0FDF7A5FF401BBF
:104EA0000228F5D9032060E0344AD3683449194018
:104EB000E36A206B013843EA0013606B43EA002386
:104EC000E06B4008013843EA4053206C4008013849
:104ED00043EA4063A06B000943EA40431943D160B1
:104EE000136843F080731360D36843F08073D3601A
:104EF000FDF77AFF0446214B1B6813F0007F06D1B3
:104F0000FDF772FF001B0228F5D903202DE00020D9
:104F10002BE01A4B1A6842F080721A60DA6842F08D
:104F20008072DA60FDF760FF0446144B1B6813F0D3
:104F3000007F06D1FDF758FF031B022BF5D9032094
:104F400013E0002011E00D4AD1680E4B0B40D360F6
:104F500000200AE001207047012006E0012004E063
:104F6000012002E0012000E0002003B0F0BD01209C
:104F7000FBE70120F9E70120F7E700BF001002403E
:104F80008C809DF9FCFFEEFE002800F0AF8070B52C
:104F90000D460446594B1B6803F007038B420BD2A6
:104FA000564A136823F007030B431360136803F09A
:104FB00007038B4240F09C80236813F0020F0CD053
:104FC000A2684F4B9B6803F0F0039A4205D94C4905
:104FD0008B6823F0F0031A438A60236813F0010FF3
:104FE00039D06368032B09D0022B26D063BB444A17
:104FF000126812F0020F06D1012076E0404A1268D2
:1050000012F0007F76D03E498A6822F003021343F3
:105010008B60FDF7E9FE0646394B9B6803F00C03F5
:105020006268B3EB820F16D0FDF7DEFE801B41F203
:1050300088339842F0D9032057E0314A126812F4BD
:10504000003FE0D1012050E02D4A126812F4806F39
:10505000D9D1012049E0236813F0020F0CD0A268D7
:10506000274B9B6803F0F0039A4205D224498B68D2
:1050700023F0F0031A438A60204B1B6803F00703F8
:10508000AB420AD91D4A136823F007032B43136070
:10509000136803F00703AB422ED1236813F0040F0B
:1050A00006D0174A936823F4E063E1680B439360EA
:1050B000236813F0080F07D0114A936823F4605354
:1050C000216943EAC1039360FFF7F6FB0C4B9B6831
:1050D000C3F303130B4AD35C03F01F03D8400A4BFE
:1050E00018600A4B1868FDF73BFE70BD0120704741
:1050F0000120FAE70120F8E70120F6E7002002404E
:1051000000100240D0A50408040000201000002078
:10511000014B1868704700BF0400002008B5FFF776
:10512000F7FF054B9B68C3F30223044AD35C03F0EB
:105130001F03D84008BD00BF00100240E0A50408CE
:1051400008B5FFF7E5FF054B9B68C3F3C223044A8C
:10515000D35C03F01F03D84008BD00BF001002401D
:10516000E0A50408F8B504460F46594BDB6813F078
:10517000030F18D0564BDB6803F003030268934219
:1051800002D001252846F8BD002A00F09E80504B31
:10519000DB68C3F3021301334268934201D0012557
:1051A000F0E7002509E00368022B57D0032B5CD001
:1051B000012B42D00125002DE4D1454A136823F08C
:1051C00080631360FDF710FE0646414B1B6813F029
:1051D000006F05D0FDF708FE831B022BF5D90325D0
:1051E000002DCFD1002F4ED139490B6923F41F3345
:1051F00023F44073A068E2681209520442EA0022D4
:1052000013430B61324A136843F080631360FDF768
:10521000EBFD06462E4B1B6813F0006F05D1FDF722
:10522000E3FD831B022BF5D90325002DAAD1284AC3
:105230001369A1690B431361A4E7254A126812F0B0
:10524000020F1ED02248C26822F073026168013941
:1052500043EA01131343C3600025ACE71C4A1268FC
:1052600012F4806FEED10125A5E7194A126812F4F5
:10527000003FE7D1164A126812F4802FE2D10125CF
:1052800099E7012597E7012F0FD01148026922F015
:10529000C06222F4FE42A16863695B08013B5B06C1
:1052A00043EA01231A430261ACE70948026922F488
:1052B000C00222F4FE42A16823695B08013B5B0542
:1052C00043EA01231A4302619CE701255AE700BF24
:1052D00000100240F8B504460F46504BDB6813F04F
:1052E000030F18D04D4BDB6803F0030302689342B1
:1052F00002D001252846F8BD002A00F08C80474BDB
:10530000DB68C3F3021301334268934201D00125E5
:10531000F0E7002509E00368022B57D0032B5CD08F
:10532000012B42D00125002DE4D13C4A136823F023
:1053300080531360FDF758FD0646384B1B6813F089
:10534000005F05D0FDF750FD831B022BF5D9032527
:10535000002DCFD1002F4ED130494B6923F41F339C
:1053600023F44073A068E2681209520442EA002262
:1053700013434B61294A136843F080531360FDF7D0
:1053800033FD0646254B1B6813F0005F05D1FDF782
:105390002BFD831B022BF5D90325002DAAD11F4A13
:1053A000536961690B435361A4E71C4A126812F008
:1053B000020F1ED01948C26822F0730261680139D9
:1053C00043EA01131343C3600025ACE7134A126894
:1053D00012F4806FEED10125A5E7104A126812F48D
:1053E000003FE7D10D4A126812F4802FE2D1012567
:1053F00099E7012597E70948426922F0C06222F443
:10540000FE42A16823695B08013B5B0643EA012376
:105410001A434261AEE701256CE700BF001002406D
:105420002DE9F04182B00446036813F4006F33D0D5
:10543000436EB3F5000F1FD00CD823B3B3F5800F24
:1054400005D100212030FFF745FF064620E0012767
:105450003E4623E0B3F5400F0BD10026604AD2F858
:10546000883023F44003616E0B43C2F88830002774
:1054700014E001273E4611E0594AD36843F48033D3
:10548000D3600026EAE700210430FFF76BFE0646F2
:10549000002EE3D0374601E000273E46236813F490
:1054A000805F30D0A36EB3F1007F1FD00DD81BB347
:1054B000B3F1807F06D1002104F12000FFF70AFF3D
:1054C000064605E001273E461DE0B3F1407F0AD1C4
:1054D000C6B9434AD2F8883023F04073A16E0B431B
:1054E000C2F888300FE001273E460CE03C4AD36802
:1054F00043F48033D360EBE70021201DFFF732FE39
:105500000646E5E73746236813F4003F71D0344B75
:105510009B6D13F0805F4ED1314B9A6D42F08052FB
:105520009A659B6D03F080530193019B4FF0010836
:105530002C4A136843F480731360FDF755FC05464D
:10554000284B1B6813F4807F05D1FDF74DFC401BF1
:105550000228F5D90326002E46D1214BD3F89030EE
:1055600013F4407316D0D4F884209A4212D01C4A07
:10557000D2F8903023F44073D2F8901041F4803187
:10558000C2F89010D2F8901021F48031C2F8901037
:10559000C2F8903013F0010F10D1002E40F0278197
:1055A0000F4AD2F8903023F44073D4F884100B43A0
:1055B000C2F8903019E04FF00008B9E7FDF714FC8D
:1055C0000546074BD3F8903013F0020FE5D1FDF7F5
:1055D0000BFC401B41F288339842F2D90326DCE7EA
:1055E00000100240007000403746B8F1000F40F054
:1055F0000081236813F0010F08D09D4AD2F888304B
:1056000023F00303A16B0B43C2F88830236813F027
:10561000020F08D0964AD2F8883023F00C03E16BD1
:105620000B43C2F88830236813F0040F08D0904A67
:10563000D2F8883023F03003216C0B43C2F8883055
:10564000236813F0080F08D0894AD2F8883023F075
:10565000C003616C0B43C2F88830236813F0100F4D
:1056600008D0834AD2F8883023F44073A16C0B43EE
:10567000C2F88830236813F0200F08D07C4AD2F893
:10568000883023F44063E16C0B43C2F88830236810
:1056900013F4007F08D0764AD2F8883023F44023F0
:1056A000E16D0B43C2F88830236813F4806F08D093
:1056B0006F4AD2F8883023F44013216E0B43C2F8AE
:1056C0008830236813F0400F08D0694AD2F8883038
:1056D00023F44053216D0B43C2F88830236813F044
:1056E000800F08D0624AD2F8883023F44043616DBD
:1056F0000B43C2F88830236813F4807F08D05C4ADB
:10570000D2F8883023F44033A16D0B43C2F88830BF
:10571000236813F4005F0FD0554AD2F8883023F085
:105720004063E16E0B43C2F88830E36EB3F1006F63
:1057300065D0B3F1806F67D0236813F4002F0FD0CA
:105740004B4AD2F8883023F04063216F0B43C2F8F4
:105750008830236FB3F1006F5ED0B3F1806F60D0FB
:10576000236813F4802F0FD0414AD2F8883023F0F9
:105770004063616F0B43C2F88830636FB3F1006F11
:1057800057D0B3F1806F59D0236813F4804F0FD0F6
:10579000374AD2F8883023F04053A16F0B43C2F848
:1057A0008830A36FB3F1805F50D0B3F1005F55D064
:1057B000236813F4004F08D02D4AD2F8883023F024
:1057C0008043E16F0B43C2F88830236813F4803FB5
:1057D00009D0274AD2F8883023F00043D4F880104B
:1057E0000B43C2F88830384602B0BDE8F081374636
:1057F000FBE61F4A936D23F080539365F9E6D36867
:1058000043F48013D36097E70121201DFFF7AAFC22
:10581000002891D007468FE7D36843F48013D36004
:105820009EE70121201DFFF79DFC002898D0074628
:1058300096E7D36843F48013D360A5E70121201DC8
:10584000FFF790FC00289FD007469DE70221201D0E
:10585000FFF788FC0028ABD00746A9E7022104F136
:105860002000FFF737FD0028A2D00746A0E700BFC1
:1058700000100240024A136843F0040313607047AB
:1058800000100240026852E8003F23F4907342E89F
:1058900000310029F6D1026802F1080353E8003F05
:1058A00023F00103083242E800310029F3D1036EEE
:1058B000012B05D02023C36700230366436670478E
:1058C000026852E8003F23F0100342E8003100294B
:1058D000F6D1EFE7704708B5026852E8003F23F0C1
:1058E000400342E800310029F6D1202383670023DA
:1058F0008366FFF7EFFF08BD704708B5806A002395
:10590000A0F85A30A0F85230FFF7F6FF08BD7047F4
:1059100070B504460168CB6908688D6840F60F02CF
:105920001A4005D113F0200F02D010F0200F20D123
:105930002AB115F0010222D1AC4E30421FD1226EA5
:10594000012A00F0AB8013F4801F03D015F4800F00
:1059500040F0398113F0800F03D010F0800F40F039
:10596000398113F0400F03D010F0400F40F039811F
:1059700070BD636E002BFBD020469847F8E713F00C
:10598000010F09D010F4807F06D001250D62D4F8F4
:1059900080102943C4F8801013F0020F09D042B1DF
:1059A000216802250D62D4F8801041F00401C4F88A
:1059B000801013F0040F09D042B1216804250D6254
:1059C000D4F8801041F00201C4F8801013F0080FE1
:1059D0000BD010F0200F00D13AB1226808211162DB
:1059E000D4F880200A43C4F8802013F4006F0CD050
:1059F00010F0806F09D022684FF400611162D4F872
:105A0000802042F02002C4F88020D4F88020002AB0
:105A1000AED013F0200F06D010F0200F03D0636E2D
:105A20000BB120469847D4F8802023689B6813F078
:105A3000400F02D112F0280F29D02046FFF722FF95
:105A400023689B6813F0400F1DD0226802F1080301
:105A500053E8003F23F04003083242E800310029B8
:105A6000F3D1236F5BB1624A9A63206FFDF767FA47
:105A700000283FF47DAF206F836B984778E720467E
:105A8000FFF73AFF74E72046FFF736FF70E720463E
:105A9000FFF732FF0023C4F8803069E713F0100FDE
:105AA0003FF451AF10F0100F3FF44DAF10230B62D5
:105AB00023689B6813F0400F4ED0226F13685B6819
:105AC0009BB2002B3FF454AFB4F8581099427FF6C4
:105AD0004FAFA4F85A3013681B6813F0200F30D171
:105AE000226852E8003F23F4807342E80031002925
:105AF000F6D1226802F1080353E8003F23F00103C6
:105B0000083242E800310029F3D1226802F108038B
