:020000040800F2
:100000000080012075090008B9070008BB07000837
:10001000BD070008BF070008C10700080000000076
:10002000000000000000000000000000C3070008FE
:10003000C507000800000000C7070008C90700083E
:10004000C5090008C5090008C5090008C509000858
:10005000C5090008C5090008C5090008C509000848
:10006000C5090008C5090008C5090008C509000838
:10007000C5090008C5090008C5090008C509000828
:10008000C5090008C5090008C5090008C509000818
:10009000C5090008C5090008C5090008C509000808
:1000A000C5090008C5090008C5090008C5090008F8
:1000B000C5090008C5090008C5090008C5090008E8
:1000C000C5090008C5090008C5090008C5090008D8
:1000D000C5090008D1070008C5090008C5090008BE
:1000E000E1070008C5090008C5090008C50900089E
:1000F000C5090008C5090008C5090008C5090008A8
:10010000C5090008C5090008C5090008C509000897
:10011000C5090008C5090008C5090008C509000887
:10012000C5090008C5090008C5090008C509000877
:10013000C5090008C5090008C5090008C509000867
:10014000C5090008C5090008C5090008F507000829
:10015000C5090008C5090008C5090008C509000847
:10016000C5090008C5090008C5090008C509000837
:10017000C5090008C50900080000000000000000D3
:08018000C5090008C5090008CB
:1001C00053B94AB9002908BF00281CBF4FF0FF31BE
:1001D0004FF0FF3000F00CB8ADF1080C6DE904CE23
:1001E00005F0A6F8DDF804E0DDE9022304B070476D
:1001F000704700BF00000000000000000000000089
:1002000001F0FF01102A2BDB10F0070F08D010F8C7
:10021000013B013A8B422DD010F0070F42B3F6D1CB
:10022000F0B441EA012141EA014122F007047FF0E4
:1002300000070023F0E80256083C85EA010586EA3B
:10024000010685FA47F5A3FA87F586FA47F6A5FA77
:1002500087F68EB9EED1F0BC01F0FF0102F0070283
:1002600032B110F8013B013A83EA010313B1F8D12E
:100270000020704701387047002D06BF354603380F
:10028000073815F0010F07D1013015F4807F02BF48
:10029000013015F4C03F0130F0BC0138704700BF99
:1002A000844641EA000313F003036DD1403A41D381
:1002B00051F8043B40F8043B51F8043B40F8043B40
:1002C00051F8043B40F8043B51F8043B40F8043B30
:1002D00051F8043B40F8043B51F8043B40F8043B20
:1002E00051F8043B40F8043B51F8043B40F8043B10
:1002F00051F8043B40F8043B51F8043B40F8043B00
:1003000051F8043B40F8043B51F8043B40F8043BEF
:1003100051F8043B40F8043B51F8043B40F8043BDF
:1003200051F8043B40F8043B51F8043B40F8043BCF
:10033000403ABDD2303211D351F8043B40F8043B6F
:1003400051F8043B40F8043B51F8043B40F8043BAF
:1003500051F8043B40F8043B103AEDD20C3205D37F
:1003600051F8043B40F8043B043AF9D2043208D077
:10037000D2071CBF11F8013B00F8013B01D30B88E9
:1003800003806046704700BF082A13D38B078DD0C7
:1003900010F003038AD0C3F10403D21ADB071CBF99
:1003A00011F8013B00F8013B80D331F8023B20F803
:1003B000023B7BE7043AD9D3013A11F8013B00F83C
:1003C000013BF9D20B7803704B7843708B788370C4
:1003D00060467047000000000000000000000000C0
:1003E000000000000000000000000000000000000D
:1003F00000000000000000000000000000000000FD
:1004000090F800F06DE9024520F007016FF0000C54
:1004100010F0070491F820F040F049804FF00004FC
:100420006FF00700D1E9002391F840F000F10800D7
:1004300082FA4CF2A4FA8CF283FA4CF3A2FA8CF30F
:100440004BBBD1E9022382FA4CF200F10800A4FA76
:100450008CF283FA4CF3A2FA8CF3E3B9D1E90423CA
:1004600082FA4CF200F10800A4FA8CF283FA4CF301
:10047000A2FA8CF37BB9D1E9062301F1200182FABB
:100480004CF200F10800A4FA8CF283FA4CF3A2FAC1
:100490008CF3002BC6D0002A04BF04301A4612BACF
:1004A000B2FA82F2FDE8024500EBD2007047D1E9D2
:1004B000002304F00305C4F100004FEAC50514F061
:1004C000040F91F840F00CFA05F562EA05021CBF32
:1004D00063EA050362464FF00004A9E70348044BB2
:1004E000834202D0034B03B118477047B80600207F
:1004F000B8060020000000000548064B1B1AD90F63
:1005000001EBA301491002D0034B03B11847704718
:10051000B8060020B80600200000000010B5064C08
:10052000237843B9FFF7DAFF044B13B10448AFF364
:1005300000800123237010BDB806002000000000D9
:10054000B86F000808B5054B1BB105490548AFF366
:100550000080BDE80840FFF7CFBF00BF00000000EB
:10056000BC060020B86F000830B58BB0002405949D
:100570000694079408940994294BDA6C42F004021B
:10058000DA64DA6C02F004020192019ADA6C42F049
:100590000102DA64DA6C02F001020292029ADA6C69
:1005A00042F00202DA64DA6C02F002020392039A69
:1005B000DA6C42F00802DA64DB6C03F0080304939F
:1005C000049B224620214FF0904000F01BFC4FF48A
:1005D000005305934FF488150695079405A9114813
:1005E00000F00AFB20230593012306930794089447
:1005F00005A94FF0904000F0FFFA4FF40063059317
:100600000695079405A9084800F0F6FA2246214607
:10061000282000F049FA282000F07EFA0BB030BD07
:100620000010024000080048000C004800B583B0EC
:100630008DF807004FF0FF3301220DF10701034849
:1006400002F095FE03B05DF804FB00BFE006002059
:1006500000B583B04FF0FF3301220DF107010448CC
:1006600002F0F1FE9DF8070003B05DF804FB00BF47
:10067000E006002008B5C0B2FFF7D8FF002008BD93
:1006800010B5FFF7E5FF0446FFF7D0FF204610BD89
:1006900008B572B620214FF0904000F0B8FB322030
:1006A00000F0DCF9F6E7000000B597B04422002125
:1006B00005A806F09DF8002300930193029303938D
:1006C00004934FF4007001F0BBF9002831D101F020
:1006D000A7F91B4AD2F8903023F01803C2F89030E3
:1006E00014230593012307930B9300220C9260229D
:1006F0000D9202220F921093119328231293072335
:1007000013931492159205A801F08CFA98B90F234F
:100710000093032301930023029303930493042182
:10072000684601F08DFD40B902F000FA17B05DF89F
:1007300004FBFFF7ADFFFFF7ABFFFFF7A9FF00BF1B
:100740000010024008B500F067F9FFF7ADFFFFF7B2
:100750000BFF00F0A7F804F021FB024805F060FA57
:10076000FEE700BFD06F0008B0F5006F03D0044B68
:1007700001221A707047034B01221A60704700BFB4
:10078000D4060020D806002082B00A4B1A6E42F030
:1007900001021A661A6E02F001020092009A9A6D26
:1007A00042F080529A659B6D03F080530193019B48
:1007B00002B0704700100240FEE7FEE7FEE7FEE7EA
:1007C000FEE770477047704708B500F035F908BD7F
:1007D00008B5024802F0F8F908BD00BFE0060020A5
:1007E00008B54FF4006000F01BFB4FF4005000F020
:1007F00017FB08BD08B5024800F0ECFD08BD00BFBE
:100800003C0C002070B50C461646002506E0FFF7AC
:1008100037FF214601F8010B01350C46B542F6DBE6
:10082000304670BD70B50C461646002504E014F83D
:10083000010BFFF71FFF0135B542F8DB304670BDF5
:100840004FF0FF3070474FF400534B60002070476B
:10085000012070470020704710B503460C4A0D492F
:100860000D48006840B10C4800680344521A934296
:1008700006D8094A136010BD0748084C0460F2E727
:1008800006F01AF80C2303604FF0FF30F3E700BFC7
:100890000080012000040000DC06002080140020FD
:1008A0007047000008B50B480B4B03604FF4E13371
:1008B000436000238360C36003610C224261836153
:1008C000C3610362436202F088FE00B908BDFFF70E
:1008D000DFFEFBE7E00600200038014010B5AAB0BB
:1008E000044600212591269127912891299188225B
:1008F00003A805F07DFF22681B4B9A4201D02AB065
:1009000010BD0123039303A801F0E6FE48BB174B7B
:100910001A6E42F480421A661A6E02F48042019204
:10092000019ADA6C42F00202DA64DB6C03F0020333
:100930000293029BC023259302232693002427942D
:10094000032328930723299325A9094800F054F984
:1009500022462146252000F0A7F8252000F0DCF8EB
:10096000CDE7FFF795FED2E70038014000100240C6
:1009700000040048DFF834D0FFF792FF0C480D491F
:100980000D4A002302E0D458C4500433C4188C42EA
:10099000F9D30A4A0A4C002301E013600432A24250
:1009A000FBD305F08FFFFFF7CDFEFEE700800120AF
:1009B00000000020B806002090700008B806002053
:1009C00080140020FEE70000104B1B780BB90120BB
:1009D000704710B504464FF47A70B0FBF3F30C4A3D
:1009E0001068B0FBF3F000F0A5F868B90F2C01D93E
:1009F00001200AE0002221464FF0FF3000F054F8B9
:100A0000044B1C60002000E0012010BD0400002009
:100A1000000000200800002010B5032000F032F88C
:100A20000020FFF7D1FF10B10124204610BD04467D
:100A3000FFF7AAFEF9E70000034B1B78034A116891
:100A40000B441360704700BF0400002064070020BF
:100A5000014B1868704700BF6407002038B5044692
:100A6000FFF7F6FF0546B4F1FF3F02D0044B1B78B9
:100A70001C44FFF7EDFF401BA042FAD338BD00BF76
:100A800004000020074AD36823F4E0631B041B0C16
:100A9000000200F4E060034343F0BF6343F400331B
:100AA000D360704700ED00E000B5194BDB68C3F37D
:100AB0000223C3F1070CBCF1040F28BF4FF0040C54
:100AC00003F1040EBEF1060F18D9033B4FF0FF3EB1
:100AD0000EFA0CFC21EA0C0199400EFA03FE22EA00
:100AE0000E020A4300280BDB1201D2B200F1604073
:100AF00000F5614080F800235DF804FB0023E5E782
:100B000000F00F001201D2B2024B1A54F4E700BFFA
:100B100000ED00E014ED00E0002807DB00F01F020C
:100B2000400901239340024A42F82030704700BF39
:100B300000E100E00138B0F1807F0BD24FF0E023FC
:100B40005861054AF02182F823100020986107229D
:100B50001A6170470120704700ED00E090F82530E1
:100B6000DBB2022B06D00423C363002380F82430B9
:100B7000012070470268136823F00E0313600268B7
:100B8000136823F001031360436C03F01C03016C32
:100B9000012202FA03F34B6080F82520002380F83D
:100BA00024301846704708B590F82530DBB2022B88
:100BB00003D00423C363012008BD0268136823F037
:100BC0000E0313600268136823F001031360436C83
:100BD00003F01C03016C012202FA03F34B6080F85E
:100BE0002520002380F82430836B13B19847002020
:100BF000E2E70020E0E7000070B582B000236EE07D
:100C000085685E000324B44025EA0405CC68B4403E
:100C10002C438460456825EA0C054C68C4F3001435
:100C20009C402C4344606DE0C56A25EA0C05C4F382
:100C3000C0049C402C43C4626AE0DD08083550F8CB
:100C4000254003F0070C4FEA8C0C4FF00F0E0EFA04
:100C50000CFE24EA0E0E0C6904FA0CF444EA0E04AD
:100C600040F825406CE0062400E0002404FA0EF46D
:100C70002C430CF1020C5F4D45F82C405E4CA568EE
:100C8000D44325EA0206D1F804C01CF4801F01D029
:100C900042EA0506584DAE60ED6804EA0506D1F853
:100CA00004C01CF4001F01D042EA0506524DEE605C
:100CB0006D6804EA0506D1F804C01CF4003F01D0B9
:100CC00042EA05064C4D6E602D682C404E6816F4C5
:100CD000803F01D042EA0504474A146001330A68A4
:100CE00032FA03F400F083804FF0010C0CFA03FC9D
:100CF0001CEA0202F2D04C6804F00304013C012C0F
:100D00007FF67EAF4C6804F0030EBEF1030F8BD06C
:100D10004C6804F00304032C0CD0C4685D004FF051
:100D2000030C0CFA05FC24EA0C0C8C68AC4044EA79
:100D30000C04C4604C6804F00304022C3FF47DAF43
:100D400004684FEA430E4FF0030C0CFA0EFC24EA41
:100D50000C0C4C6804F0030404FA0EF444EA0C048E
:100D600004604C6814F4403FB8D0244C256E45F024
:100D700001052566246E04F001040194019C4FEAEC
:100D8000930C0CF102051B4C54F8255003F0030E94
:100D90004FEA8E0E0F2404FA0EF425EA0405B0F192
:100DA000904F3FF462AF164CA04216D004F5806419
:100DB000A04214D004F58064A04212D004F58064EF
:100DC000A04210D004F58064A0420ED004F58064E7
:100DD000A0423FF448AF072448E7012446E7022435
:100DE00044E7032442E7042440E705243EE702B039
:100DF00070BD00BF0000014000040140001002402F
:100E0000000400480AB181617047816270474369FC
:100E100001EA030221EA030141EA024181617047CC
:100E200008B5054B5B69034200D108BD024B586110
:100E3000FFF79AFCF9E700BF000401402DE9F843F1
:100E4000076801EBC10300EB8303DA6D5B6D9A4227
:100E500054D880460C469B1A01EBC10200EB82027B
:100E6000926C9A4200D31A4602F103094FEA99099B
:100E700013E006F103094FEA990904EBC40508EBF6
:100E80008505B3B2E2B2E96C384602F048FFEB6C7C
:100E90003344EB64EB6D3344EB6507EB441303F52C
:100EA00010639B699BB24B4512D304EBC40308EB60
:100EB0008303DA6D5B6D9A420AD24BB19B1A04EB45
:100EC000C40208EB8202966C9E42D2D31E46D0E743
:100ED00004EBC40308EB8308D8F85420D8F85C303E
:100EE0009A420ED804F00F040122A240D7F83438F9
:100EF00023EA0203C7F83438002000E00120BDE8EF
:100F0000F8830020FBE770B58AB0002800F09780D6
:100F10000546046890F8BD343BB3032385F8BD341F
:100F2000E36B13F4807F01D100232B61286802F06A
:100F300043FC2C4654F8106BEC460FCCACE80F0089
:100F40000FCCACE80F0094E803008CE803002B1DE5
:100F50000ECB304602F09CFB044658B1022385F8C4
:100F6000BD34012420460AB070BD80F8BC3403F0C3
:100F7000D9FFD2E70021286803F099F8234616E04C
:100F800003EBC30205EB8202012182F83D1082F8D7
:100F90003C30A2F84430002182F840109164D164C2
:100FA00003EBC30205EB820251650133DBB26968D2
:100FB0008B42E5D316E004EBC40305EB8303002268
:100FC00083F87D2283F87C4283F88022C3F888224C
:100FD000C3F88C2204EBC40305EB8303C3F894220B
:100FE0000134E4B2A142E6D82C4654F8106BEC462A
:100FF0000FCCACE80F000FCCACE80F0094E8030076
:101000008CE803002B1D0ECB304602F031FC044669
:1010100060B9002385F83830012385F8BD346B6A48
:10102000012B08D0286803F001F89BE7022385F81C
:10103000BD34012496E7284600F0DEFCF2E70124E7
:1010400090E7026890F8BC34012B16D010B5044626
:10105000012380F8BC34836A012B09D0206802F098
:10106000A5FB206802F0D4FF002084F8BC0410BD6A
:10107000936B43F480339363F0E7022070470000E2
:1010800038B503681C6C03EB411303F530639D68AE
:101090000B4A94420FD115F4004F03D04FF4004295
:1010A0009A600BE015F0200F01D020229A60C9B29F
:1010B00003F0B2FF02E0C9B203F0AEFF002038BD7A
:1010C0000A31544F10B503681C6C03EB4113D3F87D
:1010D000081B074A944207D903F5306311F4004F07
:1010E00002D04FF400429A6003F08EFF002010BD42
:1010F0000A30544F90F8BC34012B0DD010B5044683
:10110000012380F8BC3480F83810006802F070FFCA
:10111000002084F8BC0410BD0220704738B5054695
:101120008C4611F0800F29D101F00F0E0EEBCE048A
:10113000A40004F51E740444211D0EEBCE0E00EB3A
:101140008E0E00208EF87D020CF00F0C81F800C08E
:10115000CA600B714A780AB1A1F808C0022B1DD0F1
:1011600095F8BC34012B1CD0012385F8BC342868C9
:1011700002F03EFC002085F8BC0438BD01F00F00F1
:1011800000EBC001890038312944043100EBC00074
:1011900005EB8000012480F83D40D5E700234B712A
:1011A000DEE70220E9E710B504460A4611F0800F99
:1011B00020D101F00F0000EBC0039B0003F51E736C
:1011C0002344191D00EBC00004EB8000002380F8CD
:1011D0007D3202F00F020A7094F8BC34012B19D052
:1011E000012384F8BC34206802F050FC002084F80D
:1011F000BC0410BD01F00F0000EBC0039B003833AE
:101200002344191D00EBC00004EB8000012380F88B
:101210003D30DEE70220ECE710B501F00F0404EBEF
:10122000C401890001F51E710144043104EBC40CB2
:1012300000EB8C0CCCF88C22CCF894320023CCF848
:101240009C328CF87D328CF87C4224B9006802F024
:101250008DFC002010BD006802F076FDF9E710B5A6
:1012600001F00F0404EBC40189003831014404315A
:1012700004EBC40C00EB8C0CCCF84C20CCF85430B4
:101280000023CCF85C3001238CF83D308CF83C40D6
:1012900024B9006802F06AFC002010BD006802F06A
:1012A00053FDF9E738B501F00F054268954238D88B
:1012B00004460B4611F0800F1FD101EBC1018900DC
:1012C00001F51E710144043103EBC30300EB8303FA
:1012D000002283F87D2201238B700D7094F8BC34BA
:1012E000012B20D0012384F8BC34206802F025FEB5
:1012F0008DB1002084F8BC0438BD05EBC501890020
:1013000038310144043105EBC50300EB83030122AE
:1013100083F83D20DFE704F2C441206802F008FFB3
:10132000E7E70120E8E70220E6E701F00F03426863
:10133000934231D810B5044611F0800F1ED103EB53
:10134000C301890001F51E710144043103EBC3029E
:1013500000EB8202002082F87D0200228A700B706E
:1013600094F8BC34012B19D0012384F8BC342068D4
:1013700002F010FE002084F8BC0410BD03EBC30192
:10138000890038310144043103EBC30200EB8202CF
:10139000012082F83D00E0E7012070470220ECE7E1
:1013A00008B511F0800F0CD101F00F0101EBC10164
:1013B000890001F51E7101440431006802F051FCFE
:1013C00008BD01F00F0101EBC10189003831014472
:1013D0000431F2E72DE9F04F83B004460568284652
:1013E00002F061FE10B103B0BDE8F08F0646206840
:1013F00002F02AFE0028F6D005F50067BB68C3F3AB
:101400000D23C4F8FC34206802F01EFE10F0020F19
:1014100004D02268536903F002035361206802F08C
:1014200013FE10F0100F14D02268936923F01003FC
:101430009361D5F8208008F00F09C8F34343022BCD
:1014400069D0062B00F08D802268936943F0100369
:101450009361206802F0F8FD10F4002F40F09380B3
:10146000206802F0F1FD10F4802F40F0FC8020682D
:1014700002F0EAFD0028C0F26581206802F0E4FD78
:1014800010F4006F09D0BB6813F0010F40F07281B7
:101490002268536903F400635361206802F0D4FDAD
:1014A00010F0006F15D02268536903F00063536198
:1014B00094F8F434002B40F06181012184F8F41495
:1014C00023685B6DC3F38303C4F8F834204603F04C
:1014D000E3FE206802F0B8FD10F4805F40F0528116
:1014E000206802F0B1FD10F4005F40F09E8120689A
:1014F00002F0AAFD10F0080F40F0AF81206802F062
:10150000A3FD10F0800F00F0C281AB6923F08003CF
:10151000AB610126ABE147F6F07318EA030F93D0F5
:101520004FEA181B4FEAC903019309EBC90A04EB00
:101530008A0AC8F30A12DAF88C12284602F0DAFC9A
:10154000CBF30A0BDAF88C325B44CAF88C32019B7D
:101550004B4404EB8303D3F89C325B44CAF89C32BF
:1015600072E7082204F2C441284602F0C3FCC8F323
:101570000A1809EBC90204EB8202D2F89C324344F8
:10158000C2F89C3260E7206802F062FD8046B146F6
:1015900035E005EB49130122C3F8082B49462046E4
:1015A000FFF76EFD3CE005EB49130822C3F8082B5A
:1015B00049462046FFF786FD35E009EBC90304EBF9
:1015C000830393F87F32012B41D005EB49130222AC
:1015D000C3F8082B1AF0200F04D005EB4913202282
:1015E000C3F8082B1AF4005F05D005EB49134FF43C
:1015F0000052C3F8082B09F101094FEA5808B8F165
:10160000000F3FF42DAF18F0010FF4D05FFA89FB03
:101610005946206802F02CFD824610F0010FB8D127
:101620001AF0080FBFD11AF0100F04D005EB4913C0
:101630001022C3F8082B1AF0020FCBD06B6913F0FD
:10164000800FBAD07B6843F480637B60B5E709EB19
:10165000C90304EB8303002283F87F225946204606
:1016600003F03CFDB1E7206802F0FAFC8046B14689
:101670001BE009F00F02012101FA02F27B6B23EA61
:1016800002037B6305EB4913C3F80819594620464A
:1016900003F0CEFC1AE01AF0020F30D11AF0800FDE
:1016A0004BD109F101094FEA5808B8F1000F3FF496
:1016B000DEAE18F0010FF4D05FFA89FB59462068BE
:1016C00002F0DFFC824610F0010FD2D11AF0080FB1
:1016D00004D005EB49130822C3F808291AF0100FAB
:1016E00004D005EB49131022C3F808291AF0400F63
:1016F000D1D005EB49134022C3F80829CBE749466E
:10170000284602F05FF809EBC90304EB830393F862
:101710003F30012B05D005EB49130222C3F80829FD
:10172000BCE709EBC90304EB8303002283F83F20E5
:101730005946204603F0D8FCEDE749462046FFF71E
:101740007DFBAEE77B6823F001037B6094F8F43403
:10175000012B08D0204603F0A7FC2268536903F050
:101760000043536189E6002184F8F414204603F015
:1017700093FDF2E7204603F07FFC89E6204603F064
:101780007BFCA6E67B6823F001037B6010212068C8
:1017900002F018F81AE005EB46134FF67F31C3F854
:1017A0000819D3F8002922F40012C3F80029C3F85D
:1017B000081BD3F8002B22F40012C3F8002BD3F837
:1017C000002B42F00062C3F8002B01366368B3427D
:1017D000E1D8FB6943F00113FB61236BD3B1D7F868
:1017E000843043F00B03C7F884307B6C43F00B0369
:1017F0007B64D5F8003823F4FE63C5F8003804F2A2
:10180000C441206802F094FC2268536903F48053B9
:10181000536165E67B6943F4005343F02B037B611E
:101820003B6943F00B033B61E3E7206802F070FC87
:10183000206802F0CFF8E060266800F0C5FD0146A0
:10184000227B304601F040FF204603F002FC226874
:10185000536903F40053536149E6204603F0F3FB58
:101860002268536903F00803536147E60136636851
:10187000B3420CD906EBC60304EB830393F87F3223
:10188000012BF3D1F1B22046FFF78AFDEEE7206885
:1018900002F0DAFB10F4801F27D1206802F0D4FB9D
:1018A00010F4001F5BD0012328E001366368B342C7
:1018B0001DD905EB4613D3F8002906EBC60304EB4C
:1018C000830393F84030012BEFD1002AEDDA06EBC9
:1018D000C60304EB8303012283F83F2066F07F01F7
:1018E000C9B22046FFF75CFDDFE70126DEE722688C
:1018F000536903F480135361CFE7013362689A425E
:1019000028D905EB4312D2F8001B03EBC30204EB0A
:10191000820292F88022012AEFD10029EDDA01F447
:101920008031D4F8FC2402F001029142E5D103EBAE
:10193000C30204EB8202012182F87F12AA6942F0FD
:101940008002AA616A6912F0800FD6D17B6843F4E5
:1019500000737B602268536903F4001353612068AD
:1019600002F072FB10F0804F10D1206802F06CFB87
:1019700010F0040F3FF437AD23685D6815F0040FD5
:101980000DD1226853682B4353602CE5204603F0A9
:10199000B1FB2268536903F080435361E5E72046B9
:1019A00003F0AEFBEDE710B40468606A29B940EAC1
:1019B0000240A062002010BC70478C46A36A00EB76
:1019C0001340002308E003F1400104EB8101496862
:1019D00000EB11400133DBB20CF1FF318B42F2D34B
:1019E00040EA02400CF13F0104EB81046060E1E752
:1019F0000368596200207047034602680121C0F85D
:101A00000015002083F8F404936943F000639361A8
:101A1000536D43F0805343F0030353657047000058
:101A2000024A136843F480731360704700700040EB
:101A3000024B186800F4C060704700BF007000409F
:101A4000B0F5007F0FD01F4B1B6803F4C063B3F5E4
:101A5000806F34D01B4A136823F4C06343F480635F
:101A6000136000207047174B1B6803F4C063B3F585
:101A7000007F20D0134A136823F4C06343F400733B
:101A80001360114B1B68322202FB03F30F4AA2FBC7
:101A900003239B0C013300E0013B0A4A526912F414
:101AA000806F01D0002BF7D1064B5B6913F4806F78
:101AB00003D10020704700207047032070470020AA
:101AC000704700BF007000400000002083DE1B4311
:101AD000024A536843F480635360704700700040CB
:101AE00030B583B00446204B9B6D13F0805F0BD064
:101AF000FFF79EFFB0F5007F17D0802C1FD82DD0A8
:101B0000702C2DD000211BE0174DAB6D43F080539E
:101B1000AB65AB6D03F080530193019BFFF788FF2A
:101B2000AB6D23F08053AB65E4E7802C03D9A02C88
:101B300003D9022104E0002102E0012100E0032199
:101B40000A4A136823F007030B431360136803F07A
:101B500007038B4206D1002003B030BD0221EFE71E
:101B60000121EDE70120F7E70010024000200240CC
:101B7000284A9368D26802F0030213F00C030AD0DB
:101B80000C2B06D0042B1FD0082B20D0002002469F
:101B900010E0012AF6D11F4A126812F0080F0CD18A
:101BA0001C4AD2F89420C2F303221B4951F8222088
:101BB00043B100200C2B0DD07047164A1268C2F3B7
:101BC0000312F2E71046F5E714480022F2E7144842
:101BD0000022EFE70F4BDB6803F00303022B16D064
:101BE000032B00D10E4A0B49CB68C3F30213013318
:101BF000C868C0F3062002FB00F0B0FBF3F0CB682E
:101C0000C3F3416301335B00B0FBF3F0D4E7034A55
:101C1000E9E700BF00100240047000080024F4004F
:101C200000127A00002800F0F182F0B583B004467B
:101C3000964B9D6805F00C05DE6806F00306036808
:101C400013F0100F5AD0E5B10C2D18D0A369002B5A
:101C500000F0BB808D4A136843F001031360FEF768
:101C6000F7FE0746894B1B6813F0020F40F09A807D
:101C7000FEF7EEFEC01B0228F4D90320D1E2012EAC
:101C8000E4D1824B1B6813F0020F03D0A369002B31
:101C900000F0BE82206A7D4B1B6813F0080F5BD0FA
:101CA0007A4B1B6803F0F00398425CD8774B1A68B4
:101CB00042F008021A601A6822F0F002216A0A4310
:101CC0001A605A6822F47F42E16942EA01225A60AE
:101CD000002D60D0FFF74CFF6C4B9B68C3F30313E0
:101CE0006B4AD35C03F01F03D8406A4B18606A4B01
:101CF0001868FEF769FE002840F09382236813F00D
:101D0000010F00F08180082D75D00C2D71D0636813
:101D1000B3F5803F00F09780B3F5A02F00F09980D5
:101D20005A4B1A6822F480321A601A6822F4802210
:101D30001A606368002B00F09980FEF789FE074661
:101D4000524B1B6813F4003F5ED1FEF781FEC01BAF
:101D50006428F5D9032064E24C4BD3F894301B0976
:101D600003F0F003A0E7FFF7BBFE002840F052822B
:101D7000464B1A6842F008021A601A6822F0F00214
:101D8000216A0A431A605A6822F47F42E16942EAF2
:101D900001225A609EE7206AFFF7A2FE002899D030
:101DA00001203EE2394B1A6842F008021A601A68B4
:101DB00022F0F002216A0A431A605A6822F47F4234
:101DC000E16942EA01225A6098E7304A136823F039
:101DD00001031360FEF73CFE07462C4B1B6813F013
:101DE000020F8BD0FEF734FEC01B0228F5D903206A
:101DF00017E2032E8BD1254B1B6813F4003F03D051
:101E00006368002B00F00882236813F0020F58D09B
:101E1000042D45D00C2D41D0E368002B77D01B4A10
:101E2000136843F480731360FEF712FE0646174BE7
:101E30001B6813F4806F61D1FEF70AFE801B022835
:101E4000F5D90320EDE1114A136843F480331360A0
:101E50006FE703F18043A3F53C331A6842F4802214
:101E60001A601A6842F480321A6062E7FEF7F0FDE9
:101E70000746064B1B6813F4003FC5D0FEF7E8FD8C
:101E8000C01B6428F5D90320CBE100BF001002403D
:101E9000EC6F00080000002008000020022EBBD1DB
:101EA000A34B1B6813F4806F03D0E368002B00F092
:101EB000B5819F4A536823F0F853216943EA0163CF
:101EC0005360236813F0080F4CD063699BB3984AA2
:101ED000D2F8943043F00103C2F89430FEF7B8FD15
:101EE0000646934BD3F8943013F0020F3AD1FEF725
:101EF000AFFD801B0228F4D9032092E18C4A53687D
:101F000023F0F853216943EA01635360D9E7884A13
:101F1000136823F480731360FEF79AFD0646844B22
:101F20001B6813F4806FCCD0FEF792FD801B022853
:101F3000F5D9032075E17E4AD2F8943023F00103ED
:101F4000C2F89430FEF784FD0646794BD3F89430FE
:101F500013F0020F06D0FEF77BFD801B0228F4D998
:101F600003205EE1236813F0040F7AD0704B9B6D61
:101F700013F0805F36D16E4B9A6D42F080529A65B5
:101F80009B6D03F080530193019B0126694B1B68F5
:101F900013F4807F28D0A368012B39D0052B3FD0C4
:101FA000634BD3F8902022F00102C3F89020D3F8BD
:101FB000902022F00402C3F89020A368002B3DD0AB
:101FC000FEF746FD07465A4BD3F8903013F0020F48
:101FD00046D1FEF73DFDC01B41F288339842F2D94D
:101FE00003201EE10026D1E7524A136843F48073B0
:101FF0001360FEF72DFD07464E4B1B6813F4807FE0
:10200000C9D1FEF725FDC01B0228F5D9032008E140
:10201000474AD2F8903043F00103C2F89030CCE741
:10202000434BD3F8902042F00402C3F89020D3F839
:10203000902042F00102C3F89020BEE7FEF708FDB1
:1020400007463B4BD3F8903013F0020F08D0FEF751
:10205000FFFCC01B41F288339842F2D90320E0E034
:10206000EEB9A36A002B00F0DB80022B1DD00C2DF3
:1020700000F0DD802E4A136823F080731360FEF7B2
:10208000E7FC04462A4B1B6813F0007F00F0B78082
:10209000FEF7DEFC001B0228F4D90320C1E0244A2D
:1020A000936D23F080539365DBE7214BDB6803F0EE
:1020B0000301E26A91420FD00C2D00F0B4801C4B5A
:1020C0001B6813F0806F40F0B080194B1B6813F051
:1020D000805F31D00120A4E003F07002216B013950
:1020E000B2EB011FE8D103F4FE42616BB2EB012FAA
:1020F000E2D103F40031A26B073A18BF01229142EA
:10210000DAD103F4C001E26B5208013AB1EB425F4D
:10211000D2D103F0C063226C5208013AB3EB426F94
:10212000CAD1034B1B6813F0007F4ED0002078E02B
:1021300000100240007000403E4A136823F0807394
:102140001360FEF785FC05463A4B1B6813F0007FD1
:1021500006D0FEF77DFC401B0228F5D9032060E085
:10216000344AD36834491940E36A206B013843EAA2
:102170000013606B43EA0023E06B4008013843EA38
:102180004053206C4008013843EA4063A06B0009CB
:1021900043EA40431943D160136843F080731360EE
:1021A000D36843F08073D360FEF752FC0446214BA2
:1021B0001B6813F0007F06D1FEF74AFC001B0228C3
:1021C000F5D903202DE000202BE01A4B1A6842F0CD
:1021D00080721A60DA6842F08072DA60FEF738FCCA
:1021E0000446144B1B6813F0007F06D1FEF730FC49
:1021F000031B022BF5D9032013E0002011E00D4A48
:10220000D1680E4B0B40D36000200AE001207047DC
:10221000012006E0012004E0012002E0012000E0AE
:10222000002003B0F0BD0120FBE70120F9E7012009
:10223000F7E700BF001002408C809DF9FCFFEEFE26
:10224000002800F0AF8070B50D460446594B1B685E
:1022500003F007038B420BD2564A136823F007039F
:102260000B431360136803F007038B4240F09C801C
:10227000236813F0020F0CD0A2684F4B9B6803F049
:10228000F0039A4205D94C498B6823F0F0031A43B6
:102290008A60236813F0010F39D06368032B09D0DB
:1022A000022B26D063BB444A126812F0020F06D1FB
:1022B000012076E0404A126812F0007F76D03E4955
:1022C0008A6822F0030213438B60FEF7C1FB0646C7
:1022D000394B9B6803F00C036268B3EB820F16D096
:1022E000FEF7B6FB801B41F288339842F0D90320F9
:1022F00057E0314A126812F4003FE0D1012050E06B
:102300002D4A126812F4806FD9D1012049E0236868
:1023100013F0020F0CD0A268274B9B6803F0F00368
:102320009A4205D224498B6823F0F0031A438A604D
:10233000204B1B6803F00703AB420AD91D4A136800
:1023400023F007032B431360136803F00703AB422A
:102350002ED1236813F0040F06D0174A936823F494
:10236000E063E1680B439360236813F0080F07D024
:10237000114A936823F46053216943EAC1039360CF
:10238000FFF7F6FB0C4B9B68C3F303130B4AD35CBC
:1023900003F01F03D8400A4B18600A4B1868FEF779
:1023A00013FB70BD012070470120FAE70120F8E718
:1023B0000120F6E70020024000100240EC6F000808
:1023C0000000002008000020014B1868704700BF83
:1023D0000000002008B5FFF7F7FF054B9B68C3F32B
:1023E0000223044AD35C03F01F03D84008BD00BF9A
:1023F00000100240FC6F000808B5FFF7E5FF054B31
:102400009B68C3F3C223044AD35C03F01F03D84084
:1024100008BD00BF00100240FC6F0008F8B504467C
:102420000F46594BDB6813F0030F18D0564BDB688F
:1024300003F003030268934202D001252846F8BD49
:10244000002A00F09E80504BDB68C3F30213013377
:102450004268934201D00125F0E7002509E00368B6
:10246000022B57D0032B5CD0012B42D00125002D2D
:10247000E4D1454A136823F080631360FEF7E8FA5D
:102480000646414B1B6813F0006F05D0FEF7E0FADB
:10249000831B022BF5D90325002DCFD1002F4ED160
:1024A00039490B6923F41F3323F44073A068E268B1
:1024B0001209520442EA002213430B61324A1368A4
:1024C00043F080631360FEF7C3FA06462E4B1B6889
:1024D00013F0006F05D1FEF7BBFA831B022BF5D971
:1024E0000325002DAAD1284A1369A1690B43136162
:1024F000A4E7254A126812F0020F1ED02248C268D3
:1025000022F073026168013943EA01131343C36087
:102510000025ACE71C4A126812F4806FEED1012549
:10252000A5E7194A126812F4003FE7D1164A12686B
:1025300012F4802FE2D1012599E7012597E7012FB9
:102540000FD01148026922F0C06222F4FE42A16855
:1025500063695B08013B5B0643EA01231A4302619E
:10256000ACE70948026922F4C00222F4FE42A168E5
:1025700023695B08013B5B0543EA01231A430261BF
:102580009CE701255AE700BF00100240F8B5044659
:102590000F46504BDB6813F0030F18D04D4BDB6830
:1025A00003F003030268934202D001252846F8BDD8
:1025B000002A00F08C80474BDB68C3F30213013321
:1025C0004268934201D00125F0E7002509E0036845
:1025D000022B57D0032B5CD0012B42D00125002DBC
:1025E000E4D13C4A136823F080531360FEF730FABD
:1025F0000646384B1B6813F0005F05D0FEF728FA3B
:10260000831B022BF5D90325002DCFD1002F4ED1EE
:1026100030494B6923F41F3323F44073A068E26808
:102620001209520442EA002213434B61294A1368FB
:1026300043F080531360FEF70BFA0646254B1B68E8
:1026400013F0005F05D1FEF703FA831B022BF5D9C7
:102650000325002DAAD11F4A536961690B435361B9
:10266000A4E71C4A126812F0020F1ED01948C26873
:1026700022F073026168013943EA01131343C36016
:102680000025ACE7134A126812F4806FEED10125E1
:10269000A5E7104A126812F4003FE7D10D4A12680C
:1026A00012F4802FE2D1012599E7012597E7094827
:1026B000426922F0C06222F4FE42A16823695B08ED
:1026C000013B5B0643EA01231A434261AEE7012561
:1026D0006CE700BF001002402DE9F04182B00446D3
:1026E000036813F4006F33D0436EB3F5000F1FD0AF
:1026F0000CD823B3B3F5800F05D100212030FFF7AC
:1027000045FF064620E001273E4623E0B3F5400F93
:102710000BD10026604AD2F8883023F44003616E62
:102720000B43C2F88830002714E001273E4611E031
:10273000594AD36843F48033D3600026EAE7002186
:102740000430FFF76BFE0646002EE3D0374601E06B
:1027500000273E46236813F4805F30D0A36EB3F1A8
:10276000007F1FD00DD81BB3B3F1807F06D10021AD
:1027700004F12000FFF70AFF064605E001273E4668
:102780001DE0B3F1407F0AD1C6B9434AD2F8883080
:1027900023F04073A16E0B43C2F888300FE001278D
:1027A0003E460CE03C4AD36843F48033D360EBE709
:1027B0000021201DFFF732FE0646E5E73746236875
:1027C00013F4003F71D0344B9B6D13F0805F4ED1FA
:1027D000314B9A6D42F080529A659B6D03F08053A5
:1027E0000193019B4FF001082C4A136843F4807356
:1027F0001360FEF72DF90546284B1B6813F4807F04
:1028000005D1FEF725F9401B0228F5D90326002E35
:1028100046D1214BD3F8903013F4407316D0D4F83E
:1028200084209A4212D01C4AD2F8903023F440738C
:10283000D2F8901041F48031C2F89010D2F8901084
:1028400021F48031C2F89010C2F8903013F0010FDB
:1028500010D1002E40F027810F4AD2F8903023F497
:102860004073D4F884100B43C2F8903019E04FF055
:102870000008B9E7FEF7ECF80546074BD3F89030AF
:1028800013F0020FE5D1FEF7E3F8401B41F2883365
:102890009842F2D90326DCE70010024000700040A5
:1028A0003746B8F1000F40F00081236813F0010FA4
:1028B00008D09D4AD2F8883023F00303A16B0B4364
:1028C000C2F88830236813F0020F08D0964AD2F875
:1028D000883023F00C03E16B0B43C2F88830236887
:1028E00013F0040F08D0904AD2F8883023F0300358
:1028F000216C0B43C2F88830236813F0080F08D00E
:10290000894AD2F8883023F0C003616C0B43C2F8C7
:102910008830236813F0100F08D0834AD2F888302B
:1029200023F44073A16C0B43C2F88830236813F082
:10293000200F08D07C4AD2F8883023F44063E16C41
:102940000B43C2F88830236813F4007F08D0764A1E
:10295000D2F8883023F44023E16D0B43C2F888306D
:10296000236813F4806F08D06F4AD2F8883023F4BC
:102970004013216E0B43C2F88830236813F0400FD8
:1029800008D0694AD2F8883023F44053216D0B43B4
:10299000C2F88830236813F0800F08D0624AD2F85A
:1029A000883023F44043616D0B43C2F888302368BC
:1029B00013F4807F08D05C4AD2F8883023F4403387
:1029C000A16D0B43C2F88830236813F4005F0FD069
:1029D000554AD2F8883023F04063E16E0B43C2F8C9
:1029E0008830E36EB3F1006F65D0B3F1806F67D0CC
:1029F000236813F4002F0FD04B4AD2F8883023F00D
:102A00004063216F0B43C2F88830236FB3F1006F2E
:102A10005ED0B3F1806F60D0236813F4802F0FD0A5
:102A2000414AD2F8883023F04063616F0B43C2F80B
:102A30008830636FB3F1006F57D0B3F1806F59D016
:102A4000236813F4804F0FD0374AD2F8883023F030
:102A50004053A16F0B43C2F88830A36FB3F1805F7E
:102A600050D0B3F1005F55D0236813F4004F08D065
:102A70002D4AD2F8883023F08043E16F0B43C2F82F
:102A80008830236813F4803F09D0274AD2F8883071
:102A900023F00043D4F880100B43C2F88830384646
:102AA00002B0BDE8F0813746FBE61F4A936D23F084
:102AB00080539365F9E6D36843F48013D36097E7B6
:102AC0000121201DFFF7AAFC002891D007468FE7BF
:102AD000D36843F48013D3609EE70121201DFFF7E4
:102AE0009DFC002898D0074696E7D36843F48013EE
:102AF000D360A5E70121201DFFF790FC00289FD09F
:102B000007469DE70221201DFFF788FC0028ABD077
:102B10000746A9E7022104F12000FFF737FD00284E
:102B2000A2D00746A0E700BF00100240024A136887
:102B300043F004031360704700100240026852E83B
:102B4000003F23F4907342E800310029F6D1026877
:102B500002F1080353E8003F23F00103083242E882
:102B600000310029F3D1036E012B05D02023C36768
:102B70000023036643667047026852E8003F23F073
:102B8000100342E800310029F6D1EFE7704708B59D
:102B9000026852E8003F23F0400342E80031002978
:102BA000F6D12023836700238366FFF7EFFF08BD7C
:102BB000704708B5806A0023A0F85A30A0F8523058
:102BC000FFF7F6FF08BD704770B504460168CB6992
:102BD00008688D6840F60F021A4005D113F0200FE7
:102BE00002D010F0200F20D12AB115F0010222D11D
:102BF000AC4E30421FD1226E012A00F0AB8013F49C
:102C0000801F03D015F4800F40F0398113F0800F3E
:102C100003D010F0800F40F0398113F0400F03D043
:102C200010F0400F40F0398170BD636E002BFBD077
:102C300020469847F8E713F0010F09D010F4807F81
:102C400006D001250D62D4F880102943C4F8801005
:102C500013F0020F09D042B1216802250D62D4F8A9
:102C6000801041F00401C4F8801013F0040F09D063
:102C700042B1216804250D62D4F8801041F00201B0
:102C8000C4F8801013F0080F0BD010F0200F00D103
:102C90003AB1226808211162D4F880200A43C4F8AE
:102CA000802013F4006F0CD010F0806F09D02268E0
:102CB0004FF400611162D4F8802042F02002C4F881
:102CC0008020D4F88020002AAED013F0200F06D048
:102CD00010F0200F03D0636E0BB120469847D4F854
:102CE000802023689B6813F0400F02D112F0280F58
:102CF00029D02046FFF722FF23689B6813F0400F7E
:102D00001DD0226802F1080353E8003F23F040037E
:102D1000083242E800310029F3D1236F5BB1624AE7
:102D20009A63206FFDF73FFF00283FF47DAF206FCF
:102D3000836B984778E72046FFF73AFF74E7204611
:102D4000FFF736FF70E72046FFF732FF0023C4F895
:102D5000803069E713F0100F3FF451AF10F0100FFF
:102D60003FF44DAF10230B6223689B6813F0400FB4
:102D70004ED0226F13685B689BB2002B3FF454AFB8
:102D8000B4F8581099427FF64FAFA4F85A30136840
:102D90001B6813F0200F30D1226852E8003F23F463
:102DA000807342E800310029F6D1226802F108035D
:102DB00053E8003F23F00103083242E800310029C4
:102DC000F3D1226802F1080353E8003F23F04003E7
:102DD000083242E800310029F3D12023E3670023C1
:102DE0002366226852E8003F23F0100342E80031D6
:102DF0000029F6D1206FFDF7B1FEB4F85810B4F8F1
:102E00005A309BB2C91A89B22046FFF7DCFE0BE7A5
:102E1000B4F85810B4F85A309BB2C91A89B2B4F851
:102E20005A309BB2002B3FF4FFAE00293FF4FCAEBA
:102E3000226852E8003F23F4907342E800300028F3
:102E4000F6D1226802F1080353E8003F23F00103A2
:102E5000083242E800300028F3D12023E367002342
:102E600023666366226852E8003F23F0100342E8BD
:102E700000300028F6D12046FFF7A5FED4E64FF437
:102E800080130B62204600F0D9FBCDE6A36E002B29
:102E90003FF4CAAE20469847C6E62046FFF777FEC5
:102EA000C2E600BF20010004B32B000810B50446A1
:102EB000016883680269134342691343C26913437B
:102EC00008688E4A02401A430A602268536823F455
:102ED0004053E1680B435360A1692268884B9A42D2
:102EE00001D0236A1943936823F430630B43936042
:102EF0002368844A934210D0834A934221D0834A64
:102F0000934237D0824A93425CD0824A93426BD03C
:102F10007B4A93427DD010223AE002F55842D2F823
:102F2000882002F00302032A09D8DFE802F0020435
:102F3000870601222CE004222AE0082228E0102241
:102F400026E002F5E632D2F8882002F00C020C2AC4
:102F50000ED8DFE802F0070D0D0D090D0D0D750DF2
:102F60000D0D0B00002213E0042211E008220FE0F7
:102F700010220DE002F5E432D2F8882002F030028F
:102F8000202A5FD01AD8002A5ED0102A5ED10422EF
:102F90005B498B4276D0E069B0F5004F00F0A3802A
:102FA000082A00F20E81DFE812F0DD00F300DB00FA
:102FB0000C01F6000C010C010C01F900302A47D17C
:102FC0000822E5E702F5E232D2F8882002F0C002DA
:102FD000802A3FD004D8FAB3402A3FD10422D7E751
:102FE000C02A3DD10822D3E702F5E032D2F888208A
:102FF00002F44072B2F5007F34D005D8A2B3B2F526
:10300000807F33D10422C3E7B2F5407F30D108225C
:10301000BEE702F5C832D2F8882002F44062B2F569
:10302000006F27D005D83AB3B2F5806F26D10422BD
:10303000AEE7B2F5406F23D10822A9E70222A7E745
:103040000222A5E70222A3E70022A1E710229FE7C0
:1030500010229DE702229BE7002299E7102297E7C2
:10306000102295E7022293E7002291E710228FE7D2
:1030700010228DE702228BE7002289E7102287E7E2
:10308000102285E7082A00F28C80DFE802F0088A27
:103090002A8A278A8A8A05004FF4004003E0FFF756
:1030A00099F900287FD0626802EB420383427CD802
:1030B000B0EB023F7BD8010E00025308C0184FF05E
:1030C000000341F10001FDF77BF8A0F54072124BBF
:1030D0009A426ED82368D860002055E0FEF748FD7C
:1030E000DFE70E48DFE7082A65D8DFE802F019338A
:1030F0000564366464641D00084815E0F369FFEF59
:10310000008000400038014000440040004800407A
:10311000004C004000500040FFFC0F000024F40071
:10312000FFF758F9002848D06268530803EB4003C2
:10313000B3FBF2F3A3F110014FF6EF7291423ED8C8
:103140009AB222F00F02C3F3420313432268D36002
:10315000002019E0FFF750F9E4E7FEF709FDE1E789
:103160001B4802E0FFF736F968B3636800EB5300D1
:10317000B0FBF3F0A0F110024FF6EF739A4224D89F
:10318000236880B2D860002000236366A36610BD68
:10319000FFF732F9E8E7FEF7EBFCE5E74FF4004014
:1031A000E3E70120F0E70020EEE70120ECE7012053
:1031B000EAE70120E8E70120E6E70020E4E7012054
:1031C000E2E70120E0E70020DEE70120DCE700BFC6
:1031D0000024F400436A13F0010F06D0026853681C
:1031E00023F40033816A0B435360436A13F0020FE8
:1031F00006D00268536823F48033C16A0B435360DE
:10320000436A13F0040F06D00268536823F4802346
:10321000016B0B435360436A13F0080F06D002683A
:10322000536823F40043416B0B435360436A13F02C
:10323000100F06D00268936823F48053816B0B4310
:103240009360436A13F0200F06D00268936823F45A
:103250000053C16B0B439360436A13F0400F0AD0D5
:103260000268536823F48013016C0B435360036CB2
:10327000B3F5801F0BD0436A13F0800F06D00268AD
:10328000536823F40023816C0B435360704702683A
:10329000536823F4C003416C0B435360EBE72DE903
:1032A000F84305460F4616469946DDF820802B6800
:1032B000DC6937EA04040CBF01240024B44253D172
:1032C000B8F1FF3FF3D0FDF7C3FBA0EB0900404589
:1032D0002DD8B8F1000F2AD02B681A6812F0040F0D
:1032E000E5D0DA6912F4006FE1D04FF400621A629F
:1032F0002A6852E8003F23F4D07342E800310029E5
:10330000F6D12A6802F1080353E8003F23F00103D5
:10331000083242E800310029F3D12023AB67EB6784
:10332000C5F88030002385F8743003201DE02A683A
:1033300052E8003F23F4D07342E800310029F6D16F
:103340002A6802F1080353E8003F23F00103083222
:1033500042E800310029F3D12023AB67EB6700235B
:1033600085F87430032000E00020BDE8F8832DE9E3
:10337000F04182B01E46836F202B56D104460D4685
:103380009046002955D0002A55D090F87430012B72
:1033900053D0012380F874300023C0F880302123FB
:1033A0008367FDF755FB0746A4F85080A4F85280C8
:1033B000A368B3F5805F05D04FF00008002384F8C0
:1033C000743014E0236913B14FF00008F6E7A84603
:1033D0000025F3E738F8023B2268C3F3080313859E
:1033E000B4F8522092B2013A92B2A4F85220B4F842
:1033F00052309BB273B100963B460022802120469A
:10340000FFF74DFFD8B9002DE4D0236815F8012B44
:103410001A85E5E700963B46002240212046FFF74B
:103420003EFF70B92023A36700E0022002B0BDE890
:10343000F0810120FAE70120F8E70220F6E70320F7
:10344000F4E70320F2E72DE9F04383B01E46C36F93
:10345000202B7ED104460D46904600297DD0002ABF
:103460007DD090F87430012B7BD0012380F874302C
:103470000023C0F880302222C2670366FDF7E8FA15
:103480000746A4F85880A4F85A80A368B3F5805F73
:1034900006D0A3B9226972B9FF22A4F85C2014E017
:1034A000226922B940F2FF12A4F85C200DE0FF224D
:1034B000A4F85C2009E07F22A4F85C2005E0B3F1C9
:1034C000805F0DD00022A4F85C20B4F85C80B3F5D6
:1034D000805F0FD04FF00009002384F874301EE0A5
:1034E00022691AB97F22A4F85C20EEE73F22A4F8F3
:1034F0005C20EAE7236913B14FF00009ECE7A94625
:103500000025E9E723689B8C08EA030329F8023BBE
:10351000B4F85A2092B2013A92B2A4F85A20B4F800
:103520005A309BB28BB100963B46002220212046A8
:10353000FFF7B5FEB8B9002DE4D023689A8C5FFA86
:1035400088F3134005F8013BE2E72023E3670020FE
:1035500000E0022003B0BDE8F0830120FAE701207B
:10356000F8E70220F6E70320F4E730B583B004461D
:103570000023C0F88030FDF76BFA05462268126818
:1035800012F0080F0DD123681B6813F0040F16D139
:103590002023A367E3670020206684F8740003B04B
:1035A00030BD6FF07E430093034600224FF40011BC
:1035B0002046FFF774FE0028E5D00320EFE76FF008
:1035C0007E4300932B4600224FF480012046FFF7F4
:1035D00066FE0028DCD00320E1E768B310B504469E
:1035E000836F03B32423A3672268136823F00103C6
:1035F00013602046FFF75AFC012813D0636ABBB959
:103600002268536823F4904353602268936823F040
:103610002A0393602268136843F001031360204675
:10362000FFF7A3FF10BD80F87430FDF757F9D9E715
:103630002046FFF7CFFDE3E7012070477047000009
:1036400082B000230193019B01330193019A0F4B38
:103650009A4215D80369002BF5DA00230193036918
:1036600043F001030361019B01330193019A074B6E
:103670009A4208D8036913F0010FF4D1002000E04A
:10368000032002B070470320FBE700BF400D03009A
:1036900084B010B504460DF10C0C8CE80E00C36824
:1036A00043F04003C360FFF7CBFF0C9B3BB9A36B18
:1036B00043F48033A363BDE8104004B07047A36BAC
:1036C00023F48033A363F6E7022A0AD00922C368F1
:1036D00023F47053C360C36843EA8223C3600020AD
:1036E0007047234B0B44234A93422FD9224B0B4460
:1036F000224A93422CD9A1F57403A3F51053204A12
:10370000934227D9A1F18373A3F5E7431D4A93425E
:1037100022D31D4B0B441D4A93421FD91C4B0B4413
:103720001C4A93421CD31C4B0B441C4A934219D392
:10373000A1F1B773A3F55853194A934214D3194B07
:103740000B44194A934211D20722C0E70F22BEE769
:103750000E22BCE70D22BAE70C22B8E70B22B6E72F
:103760000A22B4E70922B2E70822B0E70622AEE750
:10377000405327FFFF340C00401E1BFF3F420F0049
:103780007F4F120020D6130060B6E5FE5FE31600FF
:1037900000D3CEFE40771B00C05BB3FEC09121007A
:1037A00020753800E05459FEE09C4100836843F0E6
:1037B0000103836000207047836823F00103836066
:1037C0000020704782B000230193019B01330193D5
:1037D000019A0F4B9A4215D80369002BF5DA0023A2
:1037E0000193890141F020010161019B01330193A3
:1037F000019A074B9A4208D8036913F0200FF4D1BD
:10380000002000E0032002B070470320FBE700BF68
:10381000400D030082B000230193019B013301930B
:10382000019A0E4B9A4213D80369002BF5DA002354
:10383000019310230361019B01330193019A074B0C
:103840009A4208D8036913F0100FF4D1002000E069
:10385000032002B070470320FBE700BF400D0300C8
:10386000D0F800381943C0F8001800207047000055
:1038700084B02DE9F041044607A880E80E0000233B
:1038800006E003F1400204EB8202002151600133A3
:103890000E2BF6D9119F8FBBD4F8043843F00203E6
:1038A000C4F80438A36B23F40013A363236843F024
:1038B00040032360236843F0800323600023C4F89F
:1038C000003E04F50065D4F80038C4F80038032140
:1038D0002046FFF7C5FF10212046FFF773FF804603
:1038E00008B14FF001082046FFF794FF08B14FF0F0
:1038F000010800232B616B61EB610FE0A36B43F4C4
:103900000013A363DAE7C3B94FF00060C2F80009FF
:1039100000220A614FF67F328A600133079999428B
:1039200010D904EB431202F51061D2F80009002807
:10393000E9DB0020C2F80009EAE74FF09040C2F846
:103940000009E5E700230AE0C3B14FF0904CC2F84C
:1039500000CB002202614FF67F3282600133994230
:1039600011D904EB431202F53060D2F8006B002E3F
:10397000EADB4FF0000CC2F800CBEAE74FF0006C36
:10398000C2F800CBE5E72B6923F480732B61002399
:10399000A3616FF080436361A36943F01003A361E7
:1039A000A2690B4B1343A3610D9B1BB1A36943F0A9
:1039B0000803A361012F04D04046BDE8F04104B0E4
:1039C0007047A36943F0804343F00403A361F3E726
:1039D00000383C80D0F8083803F00603022B05D0ED
:1039E000062B01D00F20704702207047022070473D
:1039F00010B591F800C04B78012B23D000F5006E74
:103A0000D0F81C380CF00F040122A24043EA024314
:103A1000C0F81C3800EB4C10D0F8003B13F4004FFA
:103A20000ED1D0F8003BCA68C2F30A02097942EA13
:103A30008142134343F0805343F40043C0F8003BFA
:103A4000002010BDD0F81C280CF00F0E03FA0EF366
:103A50009BB21343C0F81C3800EB4C10D0F800396F
:103A600013F4004FECD1D0F80039CA68C2F30A024F
:103A7000097942EA814242EA8C52134343F080536F
:103A800043F40043C0F80039DAE7000030B40B78A3
:103A90004A78012A26D000EB4313D3F8002B002AE2
:103AA00052DBD0F83C480A7802F00F024FF0010CCC
:103AB0000CFA02F224EA0242C0F83C28D0F81C2892
:103AC000097801F00F010CFA01FC22EA0C42C0F85F
:103AD0001C28D3F8001B234A0A40C3F8002B0020FF
:103AE00030BC704700EB4313D3F80029002A1EDBDB
:103AF000D0F83C580A7802F00F02012404FA02F2CE
:103B000092B225EA0202C0F83C28D0F81C280978B5
:103B100001F00F018C40A4B222EA0402C0F81C2874
:103B2000D3F80019104A0A40C3F80029D7E7D3F8A0
:103B3000002942F00062C3F80029D3F8002942F0BE
:103B40008042C3F80029D3E7D3F8002B42F000628B
:103B5000C3F8002BD3F8002B42F08042C3F8002BAF
:103B60009FE700BF0078F3EF007833EC0B784A78DA
:103B7000012A25D000EB431000F530631A69D20CFE
:103B8000D2041A611A6922F0FF5222F4C0121A619B
:103B90008A690AB1CA688A61CA68CA611A6942F444
:103BA00000221A611A69C969C1F312010A431A6134
:103BB000D0F8003B43F00443C0F8003B00207047BE
:103BC00010B48A6962BB00EB4312D2F8104924F0AA
:103BD000FF5424F4C014C2F81049D2F8104944F438
:103BE0000024C2F81049D2F81049E40CE404C2F8E9
:103BF000104900EB4313D3F8002942F00442C3F804
:103C000000298B694BB1D0F83438097801F00F01E5
:103C100001228A401343C0F83438002010BC70479A
:103C200000EB431202F510621469E40CE404146121
:103C3000146924F0FF5424F4C0141461CC68D1F842
:103C400018C0A44500D98C61146944F4002414619F
:103C50001469D1F818C0CCF3120C44EA0C041461B6
:103C6000C7E710B483B002460023019348780128C7
:103C70000AD00B7802EB4313D3F8000B00282CDB9F
:103C8000002003B010BC70470B7802EB4313D3F84D
:103C90000049002C01DB0020F3E7D3F8004944F091
:103CA0000064C3F800490B7802EB4313D3F80049D2
:103CB00044F08044C3F80049019B01330193019C07
:103CC00042F210739C42DCD80B7802EB4313D3F81A
:103CD0000039002BF0DB0020D3E7D3F8000B40F0D5
:103CE0000060C3F8000B0B7802EB4313D3F8000B12
:103CF00040F08040C3F8000B019B01330193019811
:103D000042F21073984208D80B7802EB4313D3F8B1
:103D1000003B002BF0DB0020B3E70120B1E710B53A
:103D2000DC1CA4084FF0000E09E000EB023C0CF58F
:103D3000805C51F8043BCCF800300EF1010EA64532
:103D4000F3D3002010BD000070B50B784A78012A2B
:103D500027D000EB431303F530621469E40CE4044C
:103D60001461146924F0FF5424F4C01414618C69A4
:103D7000002C40F093801469CD68C5F312052C43E4
:103D80001461146944F4002414610A79012A00F0D2
:103D90009B80D3F8002B42F00442C3F8002B002094
:103DA00070BD8A6972BB00EB4312D2F8104924F04F
:103DB000FF5424F4C014C2F81049D2F8104944F456
:103DC0000024C2F81049D2F81049E40CE404C2F807
:103DD000104900EB4313D3F8002942F00442C3F822
:103DE00000290A79012A41D08B69002BD7D0D0F85D
:103DF0003438097801F00F0101228A401343C0F8DA
:103E00003438CCE700EB4312D2F81049E40CE40458
:103E1000C2F81049D2F8104924F0FF5424F4C01419
:103E2000C2F81049D2F810598C69CE683444013C6C
:103E3000B4FBF6F42E4E06EAC4442C43C2F81049F3
:103E4000D2F810498D69C5F312052C43C2F8104908
:103E500002F510620C79012CBBD1146924F0C04426
:103E60001461146944F000541461B2E7D0F80828D2
:103E700012F4807F0BD1D3F8002942F00052C3F82E
:103E800000290B8B0A780969FFF749FF87E7D3F808
:103E9000002942F08052C3F80029F2E7CD682C4493
:103EA000013CB4FBF5F4A4B204FB05F5CD61156942
:103EB0000F4E06EAC4442C4314611469CD69C5F35E
:103EC00012052C43146160E7D0F8082812F4807FB3
:103ED00006D1D3F8002B42F00052C3F8002B58E76C
:103EE000D3F8002B42F08052C3F8002B51E700BFFB
:103EF0000000F81F10B5844608464FEA920E02F003
:103F00000302002305E00CF58051096840F8041B0A
:103F100001337345F7D37AB10CF5805CDCF80040CF
:103F20000021CBB2DB0024FA03F300F8013B01319E
:103F3000013A92B2002AF4D110BD0B784A78012AD6
:103F400014D000EB4310D0F8002B002A06DB2BB175
:103F5000D0F8003B23F08043C0F8003BD0F8003B92
:103F600043F40013C0F8003B0020704700EB4310FF
:103F7000D0F80029002A06DB2BB1D0F8003923F055
:103F80008043C0F80039D0F8003943F40013C0F87A
:103F90000039E9E70B784A78012A0ED000EB43108C
:103FA000D0F8003B23F40013C0F8003B0B79023B30
:103FB000DBB2012B15D90020704700EB4310D0F87D
:103FC000003923F40013C0F800390B79023BDBB24F
:103FD000012BF0D8D0F8003943F08053C0F80039F5
:103FE000E9E7D0F8003B43F08053C0F8003BE2E73C
:103FF000D0F8003823F4FE63C0F80038D0F8003859
:10400000090101F4FE610B43C0F80038002070473D
:10401000D0F8003E23F00303C0F8003ED0F8043887
:1040200023F00203C0F8043800207047D0F8003EA7
:1040300023F00303C0F8003ED0F8043843F0020335
:10404000C0F804380020704742698069104070470A
:10405000D0F8183800F50060C0691840000C7047AF
:10406000D0F8183800F50060C069184080B2704779
:1040700000EB4111D1F8082B00F5006040691040B9
:104080007047D0F81028D0F8343801F00F0C23FA1C
:104090000CF3DB01DBB2134300EB411000F51060C1
:1040A000806818407047406900F00100704738B5DB
:1040B0000546C36823F0C043C360012913D019BB70
:1040C000C36843F08043C36000240120FCF7C6FCB2
:1040D00001342846FFF7E7FF08B1312CF5D9322C1F
:1040E00014D0002038BDC36843F00053C3600024DF
:1040F0000120FCF7B3FC01342846FFF7D4FF012868
:10410000EDD0312CF4D9EAE70120EBE70120E9E713
:10411000D0F8003923F4FF6323F00703C0F8003917
:10412000D0F8043843F48073C0F804380020704796
:10413000026C0F4B9A4203D9D0F8003B002B14DBE2
:104140000023C0F8103BD0F8103B43F40023C0F824
:10415000103BD0F8103B43F01803C0F8103BD0F8E8
:10416000103B43F0C043C0F8103B0020704700BF35
:104170000A30544F222303800048704790000020EB
:104180002223038000487047B400002022230380CC
:1041900000487047F0000020D0F8BC3200201873AF
:1041A000704700000A23038000487047E4000020A5
:1041B00070B582B0D0F8BC520023ADF80630002DA7
:1041C00000F082800C7814F0600425D0202C75D18A
:1041D0004B78023B092B1BD8DFE803F014091A1AAD
:1041E0001A1A1A1A0F058B782B60002469E0012235
:1041F000294600F09FFD002463E04B881B0A6B609A
:1042000000245EE00122291D00F094FD002458E006
:1042100000F055FA032454E04E780B2E4AD8DFE81C
:1042200006F0065049494949164949492E3D90F83A
:104230009C32DBB2032B03D000F041FA032440E0B0
:1042400002220DF1060100F075FD344639E04B887D
:104250001B0A222B09D0212B0DD1CA88092A28BF7D
:1042600009221A4900F066FD2BE0CA884A2A28BFB5
:104270004A221749F6E700F022FA032421E090F8D9
:104280009C32DBB2032B03D000F019FA032418E0B0
:10429000012205F1080100F04DFD12E090F89C327A
:1042A000DBB2032B02D18B78AB600AE000F007FA97
:1042B000032406E000F003FA032402E000F0FFF913
:1042C0000324204602B070BD0324FAE7D800002082
:1042D0000C00002010B50446812100F06CFF002383
:1042E00023876387D4F8BC0220B101F00BF80023C8
:1042F000C4F8BC32002010BD38B50446102000F0D0
:10430000FDFF88B10546C4F8BC02237C8BB90723A6
:104310006387042303228121204600F03AFF012312
:1043200023870020287338BD0023C4F8BC32022044
:10433000F9E70A236387ECE798B108B50346002044
:10434000C3F8B802C3F8C002C3F8CC0209B1C3F87D
:10435000B412012183F89C121A70184600F0D6FEA0
:1043600008BD0320704710B582B00023ADF80630B9
:1043700061B10446C0F8B812CB6A4BB10DF106002A
:104380009847C4F8CC02002002B010BD0320FBE720
:104390000020F9E708B500F0EDFE08BD08B5D0F83B
:1043A000B83213B11B68984708BD0320FCE708B575
:1043B000D0F8B8320BB15B689847002008BD38B51B
:1043C000044600F2AA25284600F065F90123C4F846
:1043D0009432B4F8B032C4F8983294F8AA1201F0CA
:1043E0001F03012B0DD0022B10D02BB101F0800147
:1043F000204600F0EFFE03E02946204600F01BFBBC
:1044000038BD2946204600F04EFBF9E729462046F4
:1044100000F07DFBF4E738B504460D4641BB13467A
:10442000D0F89422032A01D0084638BDD0F85C1198
:10443000D0F86021914209D890F89C32DBB2032B6E
:104440000FD0204600F093FC2846EEE7891AC0F80A
:104450005C118A4228BF0A46194600F080FC2846B3
:10446000E3E7D0F8B8321B69002BEAD09847E8E7B9
:1044700090F89C32DBB2032B01D00020D5E7D0F8B6
:10448000B8329B690BB19847CFE70020CDE738B52C
:1044900004460D4600294AD11346D0F89422022A38
:1044A00005D094F8A032012B3CD0284638BDC26913
:1044B000016A8A420ED88A4218D094F89C32DBB244
:1044C000032B27D08021204600F084FE204600F0F8
:1044D00059FCE6E7521AC261194600F038FC002385
:1044E0001A461946204600F0C8FEDAE78369994269
:1044F000E3D8D0F898229342DFD20022114600F090
:1045000026FC0021C4F898120B460A46204600F00B
:10451000B4FEC6E7D4F8B832DB68002BD2D0204610
:104520009847CFE7002384F8A0322846BEE790F8EA
:104530009C32DBB2032B01D00020B7E7D0F8B832B1
:104540005B690BB19847B1E70020AFE7012380F822
:104550009C320023C0F894324360C0F8A432D0F8F3
:10456000B832F3B170B50446D0F8BC221AB15B681A
:104570000BB100219847402300221146204600F04D
:1045800008FE0126A4F864614025C4F860512B465A
:1045900000228021204600F0FCFDA6842562002038
:1045A00070BD0320704701740020704790F89C3262
:1045B000DBB280F89D32042380F89C3200207047E3
:1045C00090F89C32DBB2042B01D00020704790F8A9
:1045D0009D32DBB280F89C32F7E7D0F8B82262B1A6
:1045E00008B590F89C32DBB2032B01D0002008BD47
:1045F000D36923B198470020F9E7032070470020D2
:10460000F5E7D0F8B82262B108B590F89C32DBB279
:10461000032B01D0002008BD136A23B19847002066
:10462000F9E7032070470020F5E7D0F8B82262B11F
:1046300008B590F89C32DBB2032B01D0002008BDF6
:10464000536A23B198470020F9E703207047002000
:10465000F5E70020704708B5012380F89C32D0F8B8
:10466000B83213B15B6801799847002008BD034652
:10467000002002E00130C0B201331A78002AF9D1DB
:10468000704708B54B88012B00D008BDC0F8A43294
:1046900000F06DFBF9E70B7803704B7843708B7873
:1046A000CA7843EA022343800B794A7943EA02231A
:1046B00083808B79CA7943EA0223C380704710B59F
:1046C0000446802100F086FD0021204600F082FD96
:1046D00010BD30B583B004460D460023ADF806305A
:1046E0004A88130A013B0E2B00F2BC80DFE803F07E
:1046F000153044BABA9EABBABABABABABABA080056
:10470000D0F8B432DB6923B10DF10601007C984783
:104710000AE02946FFF7D3FF18E0D0F8B4321B684F
:104720000DF10601007C9847EA88002A00F0A3807A
:10473000BDF80630002B00F099809A4228BF1A4637
:10474000ADF806200146204600F0F4FA03B030BD73
:10475000037C43B9D0F8B8329B6A0DF10600984744
:1047600002234370E0E7D0F8B832DB6A0DF10600AF
:10477000984702234370D7E7D2B2052A52D8DFE820
:1047800002F003101D2A3744D0F8B4325B6823B11D
:104790000DF10601007C9847C6E72946FFF78FFF19
:1047A000D4E7D0F8B4329B6823B10DF10601007C48
:1047B0009847B9E72946FFF782FFC7E7D0F8B43238
:1047C000DB6823B10DF10601007C9847ACE7294670
:1047D000FFF775FFBAE7D0F8B4321B6923B10DF1CA
:1047E0000601007C98479FE72946FFF768FFADE781
:1047F000D0F8B4325B6923B10DF10601007C984713
:1048000092E72946FFF75BFFA0E7D0F8B4329B6937
:1048100023B10DF10601007C984785E72946FFF793
:104820004EFF93E72946FFF74AFF8FE7037C33B932
:10483000D0F8B8325B6B0DF10600984774E7294653
:10484000FFF73DFF82E7037C43B9D0F8B8321B6B1A
:104850000DF1060098470723437065E72946FFF7E7
:104860002EFF73E72946FFF72AFF6FE72946204608
:10487000FFF725FF6AE7204600F079FA66E738B5CA
:1048800004468B88FBB9CB88EBB94B887F2B1AD8B1
:1048900003F07F0590F89C32DBB2032B0CD080F83C
:1048A0009E52294600F0CBFC204600F060FA35B15C
:1048B000022384F89C3209E0FFF701FF06E00123A0
:1048C00084F89C3202E02046FFF7F9FE38BD000074
:1048D00070B504460E468D782E4B1D70012D10D8F4
:1048E00090F89C32DBB2022B0FD0032B23D0FFF7C2
:1048F000E6FE284B19782046FFF759FD0325284688
:1049000070BDFFF7DCFE0325F9E78DB14560294650
:10491000FFF744FD054620B131462046FFF7CFFEA4
:10492000EDE7204600F023FA032384F89C32E6E703
:1049300000F01DFAE3E7CDB141688D4225D0C9B240
:10494000FFF735FD134B197861602046FFF726FD10
:104950000546B0B131462046FFF7B1FE2179204629
:10496000FFF725FD022384F89C32C8E7022380F874
:104970009C3245602946FFF71AFD204600F0F7F902
:10498000BDE7204600F0F3F9B9E700F0F0F90025A3
:10499000B5E700BF6807002008B5CB88012B0BD115
:1049A00090F89C32DBB2022B09D9032B09D10122EA
:1049B000011D00F0BFF901E0FFF781FE08BD5BB209
:1049C00013B9FFF77CFEF9E70146002341F8083FE1
:1049D000012200F0AFF9F1E708B590F89C32013BF5
:1049E000022B12D8CB88022B0CD10123C360D0F844
:1049F000A4320BB10323C360022200F10C0100F0CA
:104A000099F908BDFFF75BFEFBE7FFF758FEF8E7F3
:104A100008B590F89C32013B022B09D84B88012B3A
:104A200000D008BD0023C0F8A43200F0A0F9F8E7D8
:104A3000FFF745FEF5E738B50C7804F06004202C4C
:104A400006D0402C04D054B1FFF739FE002404E016
:104A5000D0F8B8329B6898470446204638BD4D7858
:104A6000092D1DD8DFE805F012191C161C08051CBD
:104A70000F0BFFF72EFEF0E7FFF701FFEDE7FFF763
:104A800027FF0446E9E7FFF787FFE6E7FFF7A4FF04
:104A90002C46E2E7FFF7F5FDDFE7FFF7B9FFDCE7BC
:104AA000FFF70DFED9E770B505460C460B7803F00D
:104AB0006003202B07D0402B05D023B1FFF7FFFD6B
:104AC0000026304670BD95F89C32013B022B18D869
:104AD0002379012B0FD8D5F8B8329B682146284698
:104AE00098470646E388002BEBD10028E9D12846F9
:104AF00000F03DF9E5E721462846FFF7E0FD0026F6
:104B0000DFE721462846FFF7DAFD0026D9E7F8B5AA
:104B100006460D468B880C7804F06004202C08D0E3
:104B2000D9B2402C05D06CB12946FFF7C8FD00244E
:104B300006E0D6F8B8329B682946304698470446C6
:104B40002046F8BD6F78012F2FD0032F05D0002FFE
:104B500059D02946FFF7B3FDF2E790F89C32DBB25B
:104B6000022B05D0032B12D02946FFF7A8FDE7E75B
:104B700009B1802904D129463046FFF7A0FDDFE7BF
:104B800000F028FB8021304600F024FBD8E76B883A
:104B900023B919B1802901D0EB881BB1304600F050
:104BA000E6F8CDE700F016FBF8E790F89C32DBB2B0
:104BB000022B05D0032B12D02946FFF780FDBFE75B
:104BC00009B1802904D129463046FFF778FDB7E7BF
:104BD00000F000FB8021304600F0FCFAB0E76B8863
:104BE000002BADD111F07F0F0AD1304600F0BFF895
:104BF000D6F8B8329B6829463046984704469FE766
:104C000000F0F7FAF1E790F89C22D2B2022A06D01F
:104C1000032A29D02946FFF752FD3C4690E709B107
:104C2000802913D113F0800F15D101F07F0101EB22
:104C30008101890001F5A8713144043100230B6022
:104C40000222304600F076F83C4679E72946FFF725
:104C500036FD3C4674E701F07F0101EB81018900DC
:104C6000103131440431E9E75BB2002B1FDB01F066
:104C70000F0202EB820200EB8202B2F8642122B33F
:104C8000002B27DB01F07F0303EB83039C0004F57B
:104C9000A8743444043409B1802924D1002323604A
:104CA00002222146304600F045F83C4648E701F034
:104CB0000F0202EB820200EB8202928C002ADFD10B
:104CC0002946FFF7FCFC3C463AE72946FFF7F7FC8C
:104CD0003C4635E701F07F0303EB83039C0010346F
:104CE00034440434D7E7304600F092FA10B101237F
:104CF0002360D5E700232360D2E7D0B170B50D461D
:104D000016460446FFF7B3FC431C5B009BB233809E
:104D10002B7003236B70022307E0EA5401345A1C02
:104D2000D2B20021A9540233DBB22278002AF4D196
:104D300070BD704708B513460222C0F89422836103
:104D4000C3610A46002100F089FA002008BD08B5B9
:104D500013460A46002100F081FA002008BD08B57C
:104D600013460A46002100F088FA002008BD08B565
:104D70000422C0F8942200231A46194600F06EFA65
:104D8000002008BD08B50522C0F8942200231A4669
:104D9000194600F072FA002008BD000008B5002294
:104DA0000B490C48FFF7C8FA48B90B490948FFF707
:104DB000DAFA38B90748FFF7EDFA30B908BDFBF762
:104DC00067FCF2E7FBF764FCF4E7FBF761FCF5E74F
:104DD000140100206C0700205800002012230B80D3
:104DE000004870474001002004230B8000487047B2
:104DF000540100200C230B80004870473401002030
:104E0000002393421ED200B510E00CF1370C01F8DC
:104E100013C000014FEA430C0CF1010C4FF0000EDF
:104E200001F80CE00133DBB2934209D24FEA107C67
:104E3000B0F1204FE9D20CF1300C01F813C0E8E7D3
:104E40005DF804FB7047000038B50B4BD3F89005B4
:104E5000D3F89445D3F89835C01800D138BD074D24
:104E60000822A91CFFF7CCFF042205F112012046FD
:104E7000FFF7C6FFF2E700BF0070FF1F58010020D8
:104E800008B51A230B80FFF7DFFF014808BD00BFFC
:104E90005801002008B50A4628B905490548FFF71A
:104EA0002CFF034808BD02490248FFF726FFF8E738
:104EB0003C0A00203470000810B50A46034C214615
:104EC0000348FFF71AFF204610BD00BF3C0A002030
:104ED0004470000808B50A4628B905490548FFF797
:104EE0000CFF034808BD02490248FFF706FFF8E738
:104EF0003C0A00205870000808B50A4628B9054940
:104F00000548FFF7FAFE034808BD02490248FFF7CB
:104F1000F4FEF8E73C0A00206470000808B5FBF7CF
:104F2000C3FB08BD10B5AAB0044600212591269107
:104F3000279128912991882203A801F059FC236820
:104F4000B3F1A04F01D02AB010BD4FF4005303932A
:104F50004FF080631E930123049305931823069357
:104F6000072307930223089309934FF480130A93AE
:104F700003A8FDF7B1FB00283ED1224CE36C43F0BF
:104F80000103E364E36C03F001030093009B4FF41F
:104F9000C0532593022326930023279303232893AA
:104FA0000A23299325A94FF09040FBF725FEE36CD7
:104FB00043F48053E364E36C03F480530193019B57
:104FC000A36D13F0805F1AD1A36D43F08053A365E6
:104FD000A36D03F080530293029BFCF779FDA36D50
:104FE00023F08053A365002211464320FBF75CFDAC
:104FF0004320FBF791FDA6E7FBF74AFBBDE7FCF773
:1050000067FDF0E70010024008B500F2C441D0F897
:105010000805FFF7D4F908BD08B501EBC10300EBA3
:105020008303D3F88C22D0F80805FFF7F4F908BD04
:1050300008B501EBC10300EB8303DA6CD0F8080577
:10504000FFF725FA08BD08B5D0F80805FFF7C5FA3F
:1050500008BD10B50446C368022B09D10121D4F85C
:105060000805FFF7A0FAD4F80805FFF76FFA10BD9E
:10507000FBF70EFBF2E7000010B504460268D2F819
:10508000003E43F00103C2F8003ED0F80805FFF7E8
:105090008DFA236A23B1034A136943F006031361AF
:1050A00010BD00BF00ED00E010B504460268D2F864
:1050B000003E23F00103C2F8003E036A23B9D4F88E
:1050C0000805FFF77DFA10BD034A136923F00603B4
:1050D0001361FFF723FFF2E700ED00E008B5D0F819
:1050E0000805FFF7A2FA08BD08B5D0F80805FFF7D4
:1050F00088FA08BD08B5D0F80805FFF7AAFA08BD78
:1051000008B5D0F80805FFF7A6FA08BD02780AB17D
:105110000020704710B503461548C0F80835C3F89D
:10512000C4024FF0A0430360062343600223C36020
:1051300083610023C3610362436283620363C362CA
:10514000FBF7E1FE80B90A4C80212046FCF750FCB9
:10515000402200212046FCF726FC80220121204627
:10516000FCF721FC002010BDFBF792FAEBE700BF33
:105170003C0C002008B5D0F8C402FBF762FF0328FE
:1051800005D8DFE800F003040203012008BD032076
:10519000FCE708B594461A466346D0F8C402FBF70C
:1051A000BDFF032805D8DFE800F003040203012057
:1051B00008BD0320FCE708B5D0F8C402FBF7F3FFF5
:1051C000032805D8DFE800F003040203012008BD2E
:1051D0000320FCE708B5D0F8C402FCF763F8032805
:1051E00005D8DFE800F003040203012008BD032016
:1051F000FCE708B5D0F8C402FCF797F8032805D8F7
:10520000DFE800F003040203012008BD0320FCE7EF
:10521000D0F8C43211F0800F08D101F07F0101EB0A
:10522000C10103EB810393F87E02704701F07F0117
:1052300001EBC10103EB810393F83E00704708B511
:10524000D0F8C402FBF756FF032805D8DFE800F0CA
:1052500003040203012008BD0320FCE708B5D0F8D1
:10526000C402FBF7FCFF032805D8DFE800F00304C5
:105270000203012008BD0320FCE708B5D0F8C402F2
:10528000FBF7CAFF032805D8DFE800F00304020398
:10529000012008BD0320FCE710B5044611B1012927
:1052A00016D010BD036A5BB92268D2F8003E23F025
:1052B0000103C2F8003ED4F80805FFF781F9F0E7D2
:1052C000FFF72CFE0C4A136923F006031361EBE78A
:1052D0000268D2F8003E43F00103C2F8003ED0F865
:1052E0000805FFF763F9236A002BDAD0024A136935
:1052F00043F006031361D4E700ED00E00048704777
:10530000481100207047000038B5084C4FF41E6566
:105310002846E56000F070F9A06020B10023C0E9E4
:105320000053606038BDE060606038BD5C110020F3
:105330002DE9F047089E0D4604460F46002B4AD142
:105340008A42944665D9B2FA82F343B102FA03FC69
:10535000C3F120029F4020FA02F217439C404FEA1B
:105360001C4E1FFA8CF5B7FBFEF1220C0EFB1177D9
:1053700042EA074201FB05F090420AD91CEB020207
:1053800001F1FF3780F01B81904240F21881023911
:105390006244121AA4B2B2FBFEF00EFB102244EAE1
:1053A000024400FB05F5A5420AD91CEB040400F1F8
:1053B000FF3280F00681A54240F203816444023846
:1053C00040EA0140641B00211EB1DC400023C6E915
:1053D0000043BDE8F0878B4208D9002E00F0EC8036
:1053E0000021C6E900050846BDE8F087B3FA83F15D
:1053F000002949D1AB4202D3824200F2F780841ADD
:1054000065EB030201201746002EE2D0C6E90047F3
:10541000DFE702B9FFDEB2FA82F3002B40F08F80A3
:105420008A1A4FEA1C471FFA8CFE0121B2FBF7F5DE
:1054300007FB1520220C42EA00420EFB05F09042C9
:1054400008D91CEB020205F1FF3802D2904200F2AB
:10545000CA804546121AA4B2B2FBF7F007FB10222D
:1054600044EA02440EFB00FEA64508D91CEB0404E6
:1054700000F1FF3202D2A64500F2BA801046A4EB3A
:105480000E0440EA05409FE7C1F120078B4022FA55
:1054900007FC4CEA030C05FA01F420FA07F3FD407F
:1054A000234300FA01F94FEA1C401FFA8CFEB5FBBA
:1054B000F0F81C0C00FB185544EA054408FB0EF5F7
:1054C000A54202FA01F20BD91CEB040408F1FF3AE1
:1054D00080F08780A54240F28480A8F102086444ED
:1054E000641B9DB2B4FBF0F300FB134445EA044493
:1054F00003FB0EFEA64508D91CEB040403F1FF30A4
:105500006BD2A64569D9023B644443EA0840A0FB3C
:105510000283A4EB0E049C42C6461D4655D352D0CE
:1055200056B1B9EB0E0364EB050404FA07F7CB4060
:10553000CC401F43C6E900740021BDE8F087C3F1E9
:10554000200102FA03FC20FA01F225FA01F19D4044
:105550002A434FEA1C471FFA8CFEB1FBF7F007FB0A
:105560001015110C41EA054100FB0EF58D4204FABD
:1055700003F408D91CEB010100F1FF382FD28D4252
:105580002DD902386144491B92B2B1FBF7F507FBF4
:10559000151142EA014205FB0EF1914208D91CEBBC
:1055A000020205F1FF3816D2914214D9023D62443D
:1055B000521A45EA004139E73146304609E7394693
:1055C000E7E61046FCE6C145AAD2B8EB020E63EB53
:1055D0000C050138A4E74546EAE7034695E740464F
:1055E000D1E7D0467CE7023D624433E708460BE74B
:1055F0006444023843E700BF024B0146186800F0DC
:1056000003B800BFB00600202DE9F04F01F10B06F2
:10561000162E83B0044624D8102900F2BA8000F078
:10562000A3FA102618220220B54F3A44A2F108012D
:1056300053688B4200F0BA805A68D96822F003029E
:105640001A449D68E9608D60516841F0010120466F
:10565000516003F1080500F08DFA284603B0BDE85B
:10566000F08F36F0070600F19480B14200F291808D
:1056700000F07AFAB6F5FC7FC0F09A81730A00F068
:105680008F80042B00F26F81B30903F1390003F11D
:10569000380CC3009A4F3B44A3F108055B689D4258
:1056A00006D10CE0002980F22781DB689D4206D0FC
:1056B0005A6822F00302911B0F29F3DD60463D6911
:1056C000DFF840C265457CD06A6822F00302931B74
:1056D0000F2B00F37B81002BC7E904CC80F26C8197
:1056E000B2F5007F80F01A81D308796801334FEA60
:1056F000521E012202FA0EF20A4357F833E0C5F8AF
:1057000008E007EBC3010839E9607A6047F83350D5
:10571000CEF80C50831001219940914257D8114284
:1057200006D120F003004900114200F10400FAD034
:1057300007EBC0094D468646D5F80C80454508D193
:105740001DE1002B80F22481D8F80C80454500F043
:105750001681D8F8042022F00302931B0F2BF0DDF2
:105760002046D8E9025408EB060146F00106C8F8C5
:105770000460EC60A56043F00104C7E90411C1E9CD
:1057800002CC4C6048F8023000F0F4F908F108054A
:1057900002E00C2323600025284603B0BDE8F08F0B
:1057A0004FF4007340204FF03F0C73E7D3689A42E8
:1057B00008BF02307FF440AF3D69DFF848C165455E
:1057C00082D17A688310012199409142A7D9BD689E
:1057D0006B6823F003094E4503D8A9EB06030F2B92
:1057E0007ADCDFF824B1494BDBF800201B6801327A
:1057F000334405EB090A00F0338103F580530F337E
:1058000023F47F6828F00F084146204601F042F853
:10581000411C024600F0F380824500F2EE803C4BD2
:10582000196841441960084600F04E81DBF8001009
:10583000019301311BBFA2EB0A010918CBF800202C
:10584000196012F0070B00F01781CBF108010A4430
:10585000CBF5805190440831A1EB0801C1F30B0A4C
:1058600051462046009201F015F8421CDDE9002364
:1058700000F04F81801A00EB0A081968BA6048F0FE
:1058800001005144BD425060196000F02981B9F116
:105890000F0F40F227816868A9F10C0C2CF0070C5F
:1058A00000F0010040EA0C0068604FF0050E05EBC7
:1058B0000C00BCF10F0FC0E901EE00F2328150681C
:1058C0001546144B1A688A4238BF1960124B1A6881
:1058D0008A4238BF196094E0AA1943F0010346F0E8
:1058E00001066E602046BA60536000F043F9083547
:1058F000284603B0BDE8F08FD9681A44A1E600BF7E
:10590000740100207C0100207C0500209C110020F7
:105910006C1100209411002098110020B2F5206F26
:105920004FEA522363D3142B00F2B78003F15C01DA
:10593000C9005B3307EB010E7958AEF1080E8E45B6
:1059400000F091804B6823F00303934202D98968E9
:105950008E45F7D1D1F80CE07A68C5E9021ECEF881
:105960000850CD60D6E6142B59D9542B00F29D80F7
:10597000330B03F16F0003F16E0CC3008AE60EF1E6
:10598000010E1EF0030F05F108057FF4D5AE51E0BE
:10599000424445465368D8F80C1043F00103536065
:1059A00055F8083F2046D9608B6000F0E3F8F3E635
:1059B000F00806F1080237E62A442046536843F00F
:1059C00001035360083500F0D5F8E5E6A919204633
:1059D00046F0010643F001046E60C7E90411C1E915
:1059E00002CC4C60AB5000F0C5F80835D4E6930902
:1059F00003F13901C90038339CE7BD425FD0BD686F
:105A0000686820F003084645A8EB060302D80F2B70
:105A10003FF762AF204600F0ADF80025BCE603F189
:105A20005C0003F15B0CC30034E659F808394B45C0
:105A300040F0968010F0030F00F1FF30F5D17B6845
:105A400023EA01037B60490099423FF6C0AE19B9D1
:105A5000BDE649000EF1040E1942FAD0704667E621
:105A600003F11008D0E69A104FF001087B6808FA9D
:105A700002F21A437A6070E702EB08014942C1F36F
:105A80000B0A51462046009200F004FF431CDDE95A
:105A900000237FF4EFAEDA46EFE6542B25D8130B44
:105AA00003F16F01C9006E3344E7B3F5AA7F25D82F
:105AB000F30B03F1780003F1770CC300EAE5294BFF
:105AC000186840441860B1E6CAF30B0CBCF1000F33
:105AD0007FF4ACAEBD68C84448F001006860F0E6F1
:105AE0001546EEE60123536094E7B3F5AA7F23D869
:105AF000D30B03F17801C90077331BE740F254520E
:105B0000934223D8B30C03F17D0003F17C0CC30056
