:020000040800F2
:100000000080012099030008350300083703000829
:10001000390300083B0300083D030008000000000E
:100020000000000000000000000000003F03000886
:1000300041030008000000004303000845030008D6
:10004000E9030008E9030008E9030008E9030008E0
:10005000E9030008E9030008E9030008E9030008D0
:10006000E9030008E9030008E9030008E9030008C0
:10007000E9030008E9030008E9030008E9030008B0
:10008000E9030008E9030008E9030008E9030008A0
:10009000E9030008E9030008E9030008E903000890
:1000A000E9030008E9030008E9030008E903000880
:1000B000E9030008E9030008E9030008E903000870
:1000C000E9030008E9030008E9030008E903000860
:1000D000E9030008E9030008E9030008E903000850
:1000E000E9030008E9030008E9030008E903000840
:1000F000E9030008E9030008E9030008E903000830
:10010000E9030008E9030008E9030008E90300081F
:10011000E9030008E9030008E9030008E90300080F
:10012000E9030008E9030008E9030008E9030008FF
:10013000E9030008E9030008E9030008E9030008EF
:10014000E9030008E9030008E9030008E9030008DF
:10015000E9030008E9030008E9030008E9030008CF
:10016000E9030008E9030008E9030008E9030008BF
:10017000E9030008E9030008000000000000000097
:08018000E9030008E90300088F
:100188000348044B834202D0034B03B1184770471E
:100198004805002048050020000000000548064BDF
:1001A8001B1AD90F01EBA301491002D0034B03B16D
:1001B8001847704748050020480500200000000047
:1001C80010B5064C237843B9FFF7DAFF044B13B197
:1001D8000448AFF300800123237010BD48050020B8
:1001E80000000000641B000808B5054B1BB1054959
:1001F8000548AFF30080BDE80840FFF7CFBF00BF58
:10020800000000004C050020641B000810B586B0F3
:100218000024019402940394049405940E4BDA6C20
:1002280042F00102DA64DB6C03F001030093009BE7
:10023800224620214FF0904000F096FA20230193A7
:10024800012302930394049401A94FF0904000F015
:1002580085F906B010BD00BF0010024072B6FEE777
:1002680000B597B04422002105A801F027FA002321
:10027800009301930293039304934FF4007000F0EA
:1002880089FA20BB022305934FF48072089210224A
:1002980009920F931093012211920A2212920722B7
:1002A80013921493159305A800F05EFB88B90F23E9
:1002B80000930323019300230293039304930421DF
:1002C800684600F05FFE30B917B05DF804FBFFF731
:1002D800C5FFFFF7C3FFFFF7C1FF08B500F0AAF895
:1002E800FFF7BEFFFFF792FF20214FF0904000F08C
:1002F80040FAC82000F0C0F8F6E7000082B00A4BC8
:100308001A6E42F001021A661A6E02F00102009299
:10031800009A9A6D42F080529A659B6D03F0805363
:100328000193019B02B0704700100240FEE7FEE710
:10033800FEE7FEE7FEE770477047704708B500F034
:1003480089F808BD10B503460C4A0D490D480068E8
:1003580040B10C4800680344521A934206D8094A2F
:10036800136010BD0748084C0460F2E701F00AFA70
:100378000C2303604FF0FF30F3E700BF008001203B
:100388000004000064050020880800207047000071
:10039800DFF834D0FFF7FAFF0C480D490D4A002367
:1003A80002E0D458C4500433C4188C42F9D30A4A22
:1003B8000A4C002301E013600432A242FBD301F08F
:1003C800E7F9FFF78AFFFEE7008001200000002020
:1003D80048050020D41B0008480500208808002094
:1003E800FEE70000104B1B780BB90120704710B5D1
:1003F80004464FF47A70B0FBF3F30C4A1068B0FB74
:10040800F3F000F097F868B90F2C01D901200AE041
:10041800002221464FF0FF3000F054F8044B1C60D6
:10042800002000E0012010BD040000200000002092
:100438000800002010B5032000F032F80020FFF774
:10044800D1FF10B10124204610BD0446FFF756FF26
:10045800F9E70000034B1B78034A11680B4413604B
:10046800704700BF0400002068050020014B186891
:10047800704700BF6805002038B50446FFF7F6FF4F
:100488000546B4F1FF3F02D0044B1B781C44FFF72C
:10049800EDFF401BA042FAD338BD00BF0400002086
:1004A800074AD36823F4E0631B041B0C000200F422
:1004B800E060034343F0BF6343F40033D360704705
:1004C80000ED00E000B5194BDB68C3F30223C3F16C
:1004D800070CBCF1040F28BF4FF0040C03F1040E05
:1004E800BEF1060F18D9033B4FF0FF3E0EFA0CFC85
:1004F80021EA0C0199400EFA03FE22EA0E020A4391
:1005080000280BDB1201D2B200F1604000F5614017
:1005180080F800235DF804FB0023E5E700F00F00F6
:100528001201D2B2024B1A54F4E700BF00ED00E00A
:1005380014ED00E00138B0F1807F0BD24FF0E023DA
:100548005861054AF02182F823100020986107229B
:100558001A6170470120704700ED00E070B582B065
:1005680000236EE085685E000324B44025EA040594
:10057800CC68B4402C438460456825EA0C054C6877
:10058800C4F300149C402C4344606DE0C56A25EA1E
:100598000C05C4F3C0049C402C43C4626AE0DD0827
:1005A800083550F8254003F0070C4FEA8C0C4FF043
:1005B8000F0E0EFA0CFE24EA0E0E0C6904FA0CF467
:1005C80044EA0E0440F825406CE0062400E00024CC
:1005D80004FA0EF42C430CF1020C5F4D45F82C4044
:1005E8005E4CA568D44325EA0206D1F804C01CF481
:1005F800801F01D042EA0506584DAE60ED6804EA56
:100608000506D1F804C01CF4001F01D042EA050613
:10061800524DEE606D6804EA0506D1F804C01CF47A
:10062800003F01D042EA05064C4D6E602D682C4013
:100638004E6816F4803F01D042EA0504474A146028
:1006480001330A6832FA03F400F083804FF0010C9A
:100658000CFA03FC1CEA0202F2D04C6804F0030412
:10066800013C012C7FF67EAF4C6804F0030EBEF10E
:10067800030F8BD04C6804F00304032C0CD0C4681F
:100688005D004FF0030C0CFA05FC24EA0C0C8C6896
:10069800AC4044EA0C04C4604C6804F00304022C27
:1006A8003FF47DAF04684FEA430E4FF0030C0CFA99
:1006B8000EFC24EA0C0C4C6804F0030404FA0EF453
:1006C80044EA0C0404604C6814F4403FB8D0244C4D
:1006D800256E45F001052566246E04F00104019499
:1006E800019C4FEA930C0CF102051B4C54F8255061
:1006F80003F0030E4FEA8E0E0F2404FA0EF425EAD7
:100708000405B0F1904F3FF462AF164CA04216D0EA
:1007180004F58064A04214D004F58064A04212D08D
:1007280004F58064A04210D004F58064A0420ED085
:1007380004F58064A0423FF448AF072448E7012449
:1007480046E7022444E7032442E7042440E705245B
:100758003EE702B070BD00BF000001400004014048
:1007680000100240000400480AB1816170478162AC
:100778007047436901EA030221EA030141EA0241A1
:1007880081617047024B186800F4C060704700BF71
:1007980000700040B0F5007F0FD01F4B1B6803F4BA
:1007A800C063B3F5806F34D01B4A136823F4C06369
:1007B80043F48063136000207047174B1B6803F4F1
:1007C800C063B3F5007F20D0134A136823F4C063D5
:1007D80043F400731360114B1B68322202FB03F3CE
:1007E8000F4AA2FB03239B0C013300E0013B0A4A9A
:1007F800526912F4806F01D0002BF7D1064B5B6968
:1008080013F4806F03D10020704700207047032045
:1008180070470020704700BF0070004000000020B3
:1008280083DE1B4330B583B00446204B9B6D13F029
:10083800805F0BD0FFF7A6FFB0F5007F17D0802CA4
:100848001FD82DD0702C2DD000211BE0174DAB6D7B
:1008580043F08053AB65AB6D03F080530193019B6C
:10086800FFF790FFAB6D23F08053AB65E4E7802C76
:1008780003D9A02C03D9022104E0002102E00121C0
:1008880000E003210A4A136823F007030B431360AF
:10089800136803F007038B4206D1002003B030BD74
:1008A8000221EFE70121EDE70120F7E70010024000
:1008B80000200240284A9368D26802F0030213F02D
:1008C8000C030AD00C2B06D0042B1FD0082B20D0E9
:1008D8000020024610E0012AF6D11F4A126812F0E1
:1008E800080F0CD11C4AD2F89420C2F303221B49EA
:1008F80051F8222043B100200C2B0DD07047164A26
:100908001268C2F30312F2E71046F5E71448002212
:10091800F2E714480022EFE70F4BDB6803F003030C
:10092800022B16D0032B00D10E4A0B49CB68C3F318
:1009380002130133C868C0F3062002FB00F0B0FBC5
:10094800F3F0CB68C3F3416301335B00B0FBF3F012
:10095800D4E7034AE9E700BF001002408C1B0008F7
:100968000024F40000127A00002800F0F182F0B5AB
:1009780083B00446964B9D6805F00C05DE6806F0CA
:100988000306036813F0100F5AD0E5B10C2D18D0E8
:10099800A369002B00F0BB808D4A136843F0010364
:1009A8001360FFF763FD0746894B1B6813F0020FBE
:1009B80040F09A80FFF75AFDC01B0228F4D90320A3
:1009C800D1E2012EE4D1824B1B6813F0020F03D051
:1009D800A369002B00F0BE82206A7D4B1B6813F0D0
:1009E800080F5BD07A4B1B6803F0F00398425CD881
:1009F800774B1A6842F008021A601A6822F0F0026F
:100A0800216A0A431A605A6822F47F42E16942EA7D
:100A180001225A60002D60D0FFF74CFF6C4B9B6899
:100A2800C3F303136B4AD35C03F01F03D8406A4B2C
:100A380018606A4B1868FFF7D5FC002840F09382CD
:100A4800236813F0010F00F08180082D75D00C2D5C
:100A580071D06368B3F5803F00F09780B3F5A02F9D
:100A680000F099805A4B1A6822F480321A601A688A
:100A780022F480221A606368002B00F09980FFF747
:100A8800F5FC0746524B1B6813F4003F5ED1FFF795
:100A9800EDFCC01B6428F5D9032064E24C4BD3F865
:100AA80094301B0903F0F003A0E7FFF7BBFE002812
:100AB80040F05282464B1A6842F008021A601A68DF
:100AC80022F0F002216A0A431A605A6822F47F422F
:100AD800E16942EA01225A609EE7206AFFF7A2FE16
:100AE800002899D001203EE2394B1A6842F00802EA
:100AF8001A601A6822F0F002216A0A431A605A68DA
:100B080022F47F42E16942EA01225A6098E7304ABA
:100B1800136823F001031360FFF7A8FC07462C4B6A
:100B28001B6813F0020F8BD0FFF7A0FCC01B022834
:100B3800F5D9032017E2032E8BD1254B1B6813F43C
:100B4800003F03D06368002B00F00882236813F08D
:100B5800020F58D0042D45D00C2D41D0E368002B4E
:100B680077D01B4A136843F480731360FFF77EFC49
:100B78000646174B1B6813F4806F61D1FFF776FCAC
:100B8800801B0228F5D90320EDE1114A136843F4CC
:100B9800803313606FE703F18043A3F53C331A6891
:100BA80042F480221A601A6842F480321A6062E7BE
:100BB800FFF75CFC0746064B1B6813F4003FC5D0E3
:100BC800FFF754FCC01B6428F5D90320CBE100BF14
:100BD800001002407C1B00080000002008000020D4
:100BE800022EBBD1A34B1B6813F4806F03D0E368BC
:100BF800002B00F0B5819F4A536823F0F853216910
:100C080043EA01635360236813F0080F4CD063690B
:100C18009BB3984AD2F8943043F00103C2F8943059
:100C2800FFF724FC0646934BD3F8943013F0020FD9
:100C38003AD1FFF71BFC801B0228F4D9032092E16C
:100C48008C4A536823F0F853216943EA01635360DF
:100C5800D9E7884A136823F480731360FFF706FC0A
:100C68000646844B1B6813F4806FCCD0FFF7FEFB5D
:100C7800801B0228F5D9032075E17E4AD2F894300A
:100C880023F00103C2F89430FFF7F0FB0646794BD6
:100C9800D3F8943013F0020F06D0FFF7E7FB801B60
:100CA8000228F4D903205EE1236813F0040F7AD0F8
:100CB800704B9B6D13F0805F36D16E4B9A6D42F08E
:100CC80080529A659B6D03F080530193019B012626
:100CD800694B1B6813F4807F28D0A368012B39D097
:100CE800052B3FD0634BD3F8902022F00102C3F8C4
:100CF8009020D3F8902022F00402C3F89020A36833
:100D0800002B3DD0FFF7B2FB07465A4BD3F8903083
:100D180013F0020F46D1FFF7A9FBC01B41F288333D
:100D28009842F2D903201EE10026D1E7524A1368FF
:100D380043F480731360FFF799FB07464E4B1B681B
:100D480013F4807FC9D1FFF791FBC01B0228F5D9A6
:100D5800032008E1474AD2F8903043F00103C2F873
:100D68009030CCE7434BD3F8902042F00402C3F80C
:100D78009020D3F8902042F00102C3F89020BEE7FB
:100D8800FFF774FB07463B4BD3F8903013F0020F84
:100D980008D0FFF76BFBC01B41F288339842F2D9A9
:100DA8000320E0E0EEB9A36A002B00F0DB80022B01
:100DB8001DD00C2D00F0DD802E4A136823F08073BF
:100DC8001360FFF753FB04462A4B1B6813F0007FA0
:100DD80000F0B780FFF74AFB001B0228F4D9032074
:100DE800C1E0244A936D23F080539365DBE7214BE0
:100DF800DB6803F00301E26A91420FD00C2D00F08A
:100E0800B4801C4B1B6813F0806F40F0B080194B06
:100E18001B6813F0805F31D00120A4E003F070025A
:100E2800216B0139B2EB011FE8D103F4FE42616B7B
:100E3800B2EB012FE2D103F40031A26B073A18BFDD
:100E480001229142DAD103F4C001E26B5208013A5F
:100E5800B1EB425FD2D103F0C063226C5208013A71
:100E6800B3EB426FCAD1034B1B6813F0007F4ED01F
:100E7800002078E000100240007000403E4A1368ED
:100E880023F080731360FFF7F1FA05463A4B1B68AD
:100E980013F0007F06D0FFF7E9FA401B0228F5D9C6
:100EA800032060E0344AD36834491940E36A206B70
:100EB800013843EA0013606B43EA0023E06B400803
:100EC800013843EA4053206C4008013843EA406344
:100ED800A06B000943EA40431943D160136843F00B
:100EE80080731360D36843F08073D360FFF7BEFA52
:100EF8000446214B1B6813F0007F06D1FFF7B6FAB2
:100F0800001B0228F5D903202DE000202BE01A4B06
:100F18001A6842F080721A60DA6842F08072DA6009
:100F2800FFF7A4FA0446144B1B6813F0007F06D1A0
:100F3800FFF79CFA031B022BF5D9032013E00020CE
:100F480011E00D4AD1680E4B0B40D36000200AE037
:100F580001207047012006E0012004E0012002E0A2
:100F6800012000E0002003B0F0BD0120FBE70120D4
:100F7800F9E70120F7E700BF001002408C809DF9D7
:100F8800FCFFEEFE002800F0AF8070B50D46044669
:100F9800594B1B6803F007038B420BD2564A136860
:100FA80023F007030B431360136803F007038B4216
:100FB80040F09C80236813F0020F0CD0A2684F4BBE
:100FC8009B6803F0F0039A4205D94C498B6823F0DB
:100FD800F0031A438A60236813F0010F39D063685D
:100FE800032B09D0022B26D063BB444A126812F0A7
:100FF800020F06D1012076E0404A126812F0007F05
:1010080076D03E498A6822F0030213438B60FFF7CB
:101018002DFA0646394B9B6803F00C036268B3EB64
:10102800820F16D0FFF722FA801B41F288339842CC
:10103800F0D9032057E0314A126812F4003FE0D19A
:10104800012050E02D4A126812F4806FD9D1012096
:1010580049E0236813F0020F0CD0A268274B9B6865
:1010680003F0F0039A4205D224498B6823F0F00379
:101078001A438A60204B1B6803F00703AB420AD966
:101088001D4A136823F007032B431360136803F00A
:101098000703AB422ED1236813F0040F06D0174A7A
:1010A800936823F4E063E1680B439360236813F0CB
:1010B800080F07D0114A936823F46053216943EA63
:1010C800C1039360FFF7F6FB0C4B9B68C3F3031354
:1010D8000B4AD35C03F01F03D8400A4B18600A4B35
:1010E8001868FFF77FF970BD012070470120FAE703
:1010F8000120F8E70120F6E7002002400010024036
:101108007C1B0008000000200800002038B5084CAF
:101118004FF41E652846E56000F00CF8A06020B189
:101128000023C0E90053606038BDE060606038BDEE
:101138006C050020024B0146186800F003B800BF98
:10114800400500202DE9F04F01F10B06162E83B063
:10115800044624D8102900F2BA8000F0A3FA102619
:1011680018220220B54F3A44A2F1080153688B4275
:1011780000F0BA805A68D96822F003021A449D68C0
:10118800E9608D60516841F001012046516003F12A
:10119800080500F08DFA284603B0BDE8F08F36F058
:1011A800070600F19480B14200F2918000F07AFACB
:1011B800B6F5FC7FC0F09A81730A00F08F80042B8B
:1011C80000F26F81B30903F1390003F1380CC30051
:1011D8009A4F3B44A3F108055B689D4206D10CE099
:1011E800002980F22781DB689D4206D05A6822F0E8
:1011F8000302911B0F29F3DD60463D69DFF840C209
:1012080065457CD06A6822F00302931B0F2B00F31C
:101218007B81002BC7E904CC80F26C81B2F5007F9A
:1012280080F01A81D308796801334FEA521E0122EF
:1012380002FA0EF20A4357F833E0C5F808E007EB64
:10124800C3010839E9607A6047F83350CEF80C508A
:10125800831001219940914257D8114206D120F0BC
:1012680003004900114200F10400FAD007EBC0095D
:101278004D468646D5F80C80454508D11DE1002B22
:1012880080F22481D8F80C80454500F01681D8F802
:10129800042022F00302931B0F2BF0DD2046D8E92F
:1012A800025408EB060146F00106C8F80460EC6039
:1012B800A56043F00104C7E90411C1E902CC4C6000
:1012C80048F8023000F0F4F908F1080502E00C23B0
:1012D80023600025284603B0BDE8F08F4FF4007363
:1012E80040204FF03F0C73E7D3689A4208BF0230A2
:1012F8007FF440AF3D69DFF848C1654582D17A681F
:101308008310012199409142A7D9BD686B6823F0E9
:1013180003094E4503D8A9EB06030F2B7ADCDFF847
:1013280024B1494BDBF800201B680132334405EB3C
:10133800090A00F0338103F580530F3323F47F68E3
:1013480028F00F084146204600F00AFA411C0246E0
:1013580000F0F380824500F2EE803C4B196841446E
:101368001960084600F04E81DBF800100193013146
:101378001BBFA2EB0A010918CBF80020196012F074
:10138800070B00F01781CBF108010A44CBF5805117
:1013980090440831A1EB0801C1F30B0A51462046DD
:1013A800009200F0DDF9421CDDE9002300F04F81D6
:1013B800801A00EB0A081968BA6048F00100514425
:1013C800BD425060196000F02981B9F10F0F40F259
:1013D80027816868A9F10C0C2CF0070C00F00100BB
:1013E80040EA0C0068604FF0050E05EB0C00BCF1FC
:1013F8000F0FC0E901EE00F2328150681546144B18
:101408001A688A4238BF1960124B1A688A4238BF74
:10141800196094E0AA1943F0010346F001066E60D2
:101428002046BA60536000F043F90835284603B0F7
:10143800BDE8F08FD9681A44A1E600BF0C0000206F
:101448001400002014040020AC0500207C050020B6
:10145800A4050020A8050020B2F5206F4FEA52230A
:1014680063D3142B00F2B78003F15C01C9005B332E
:1014780007EB010E7958AEF1080E8E4500F0918009
:101488004B6823F00303934202D989688E45F7D14C
:10149800D1F80CE07A68C5E9021ECEF80850CD6094
:1014A800D6E6142B59D9542B00F29D80330B03F147
:1014B8006F0003F16E0CC3008AE60EF1010E1EF0F8
:1014C800030F05F108057FF4D5AE51E042444546C7
:1014D8005368D8F80C1043F00103536055F8083FDF
:1014E8002046D9608B6000F0E3F8F3E6F00806F1D7
:1014F800080237E62A442046536843F00103536044
:10150800083500F0D5F8E5E6A919204646F00106A9
:1015180043F001046E60C7E90411C1E902CC4C60D4
:10152800AB5000F0C5F80835D4E6930903F139014A
:10153800C90038339CE7BD425FD0BD68686820F0B9
:1015480003084645A8EB060302D80F2B3FF762AF06
:10155800204600F0ADF80025BCE603F15C0003F17D
:101568005B0CC30034E659F808394B4540F09680C7
:1015780010F0030F00F1FF30F5D17B6823EA010377
:101588007B60490099423FF6C0AE19B9BDE64900F3
:101598000EF1040E1942FAD0704667E603F11008FE
:1015A800D0E69A104FF001087B6808FA02F21A4355
:1015B8007A6070E702EB08014942C1F30B0A514611
:1015C8002046009200F0CCF8431CDDE900237FF4AC
:1015D800EFAEDA46EFE6542B25D8130B03F16F0173
:1015E800C9006E3344E7B3F5AA7F25D8F30B03F19E
:1015F800780003F1770CC300EAE5294B18684044EA
:101608001860B1E6CAF30B0CBCF1000F7FF4ACAE66
:10161800BD68C84448F001006860F0E61546EEE68B
:101628000123536094E7B3F5AA7F23D8D30B03F1C2
:101638007801C90077331BE740F25452934223D80C
:10164800B30C03F17D0003F17C0CC300C0E5ABF1E2
:10165800080BD844A8EB02084FF0000AABE605F1E6
:1016680008012046009300F01BF9BD68009B6868DC
:101678001968C4E640F254518B420BD8930C03F11D
:101688007D01C9007C33F3E64FF47E737F204FF071
:101698007E0C9DE54FF47E717E23E9E67B6870E75A
:1016A8007C050020014800F097B800BFEC06002038
:1016B800014800F093B800BFEC060020830730B55E
:1016C80048D0541E002A3FD0CAB2034601E0013C6C
:1016D8003AD303F8012B9D07F9D1032C2DD9CDB2AC
:1016E80045EA05250F2C45EA054536D9A4F110022F
:1016F80022F00F0C03F1200EE6444FEA121C03F10E
:10170800100242E9045542E9025510327245F8D1F7
:101718000CF1010214F00C0F03EB021204F00F0C91
:1017280013D0ACF1040323F003030433134442F849
:10173800045B9342FBD10CF003042CB1C9B21C44E6
:1017480003F8011B9C42FBD130BD64461346002CB4
:10175800F4D1F9E703461446BFE71A46A446E0E782
:1017680038B5074D0022044608462A60FEF7EAFD10
:10177800431C00D038BD2B68002BFBD0236038BD3C
:10178800F4060020014B1868704700BF4005002090
:1017980070B50D4E0D4D761BB61006D0002455F8C9
:1017A800043B01349847A642F9D1094E094D761BEE
:1017B80000F0D4F9B61006D0002455F8043B0134E3
:1017C8009847A642F9D170BDC41B0008C41B000885
:1017D800D01B0008C41B0008704700BF704700BF3B
:1017E800024B13B1024800F005B870470000000032
:1017F800B51A0008002301461A46184600F06AB9CF
:10180800F8B5244F0C460646FFF74CFFBB685D68E9
:10181800C4F57E610F3125F003054B1923F47F636E
:1018280023F00F03A3F58054B4F5805F07DB002194
:101838003046FFF795FFBB682B44984204D03046EA
:10184800FFF736FF0020F8BD61423046FFF788FFFA
:1018580001300DD0104ABB682D1B45F001055D60B5
:10186800136830461B1B1360FFF722FF0120F8BDE9
:1018780000213046FFF774FFBA68831A0F2BDEDDAC
:1018880043F001035360054B03491B68C01A086005
:10189800D5E700BF0C0000207C05002014040020C0
:1018A800002961D0F8B50C460646FFF7FBFE54F850
:1018B800042C7B4FA4F1080522F0010105EB010C73
:1018C800B868DCF80430604523F0030300F08B802F
:1018D800D207CCF8043032D454F8082CAD1A11448D
:1018E800AA6807F1080082426AD00CEB0304D4F816
:1018F80004E0EC68D4601EF0010FA26000F097804D
:1019080041F001036B60CCF80010B1F5007F35D2CF
:101918007868CB080122490901338A40024357F805
:1019280033107A6007EBC302083AC5E9021247F898
:101938003350CD603046BDE8F840FFF7B9BE0CEB38
:1019480003025268D00710D4194407F10800DCF8E4
:101958000830834273D0DCF80C20DA60936041F0E1
:1019680001036B606950D0E7704741F00103B1F59E
:10197800007F44F8043CCCF80010C9D3B1F5206FBF
:101988004FEA512348D28B0903F1390003F1380299
:10199800C300F818FB580838984259D05A6822F002
:1019A80003028A4202D99B689842F7D1D868C5E9F0
:1019B80002308560DD603046BDE8F840FFF778BE4C
:1019C8000CEB03025268D20763D40B44DCE9021221
:1019D800CA60916043F001026A603046EB50BDE88E
:1019E800F840FFF765BE0B44D10707D454F8082C1C
:1019F800AD1A1344D5E90212CA60916043F001029E
:101A08006A60284ABD6012689A4293D8264B3046CD
:101A18001968FFF7F5FE8DE7142B0AD9542B1FD848
:101A28000B0B03F16F0003F16E02C300B1E7194419
:101A38008DE703F15C0003F15B02C300A9E741F005
:101A48000103C7E90455C5E902006B60695071E7F5
:101A580079689210012404FA02F20A437A60A6E730
:101A6800B3F5AA7F06D8CB0B03F1780003F1770210
:101A7800C3008EE740F25452934206D88B0C03F110
:101A88007D0003F17C02C30083E74FF47E737E225E
:101A98007FE741F001036B60CCF800104AE700BF14
:101AA8000C00002018040020AC05002038B5074DB4
:101AB800074C2C1BA41005D0013C55F8043D984751
:101AC800002CF9D1BDE8384000F04EB8D41B00080E
:101AD800D01B00082DE9F047DFF874A00646DAF8B5
:101AE800000098460F469146FFF776FE194B1C6892
:101AF80024B365681F2D24DC5EB96B1C0235DAF847
:101B08000000636044F82570FFF768FE0020BDE818
:101B1800F08704EB85010123C1F88890D4F8882167
:101B2800AB401A43022EC4F88821C1F80881E4D1D9
:101B3800D4F88C211A43C4F88C21DEE7064C1C60CB
:101B4800D7E7DAF80000FFF749FE4FF0FF30DEE78D
:101B580044050020F0060020F8060020F8B500BF74
:101B6800F8BC08BC9E467047F8B500BFF8BC08BC76
:041B78009E467047CE
:101B7C000000000000000000010203040607080931
:101B8C00A0860100400D0300801A060000350C00F1
:101B9C0040420F0080841E0000093D0000127A00B4
:101BAC000024F40000366E010048E801006CDC02F1
:081BBC0058F5FF7F0100000055
:0C1BC400E9170008F101000815110008E5
:041BD000C90100083F
:101BD40000093D00010000001000000000000000AA
:101BE400000000000C0000200C0000201400002065
:101BF400140000201C0000201C00002024000020F1
:101C0400240000202C0000202C00002034000020A0
:101C1400340000203C0000203C0000204400002050
:101C2400440000204C0000204C0000205400002000
:101C3400540000205C0000205C00002064000020B0
:101C4400640000206C0000206C0000207400002060
:101C5400740000207C0000207C0000208400002010
:101C6400840000208C0000208C00002094000020C0
:101C7400940000209C0000209C000020A400002070
:101C8400A4000020AC000020AC000020B400002020
:101C9400B4000020BC000020BC000020C4000020D0
:101CA400C4000020CC000020CC000020D400002080
:101CB400D4000020DC000020DC000020E400002030
:101CC400E4000020EC000020EC000020F4000020E0
:101CD400F4000020FC000020FC000020040100208F
:101CE400040100200C0100200C010020140100203C
:101CF400140100201C0100201C01002024010020EC
:101D0400240100202C0100202C010020340100209B
:101D1400340100203C0100203C010020440100204B
:101D2400440100204C0100204C01002054010020FB
:101D3400540100205C0100205C01002064010020AB
:101D4400640100206C0100206C010020740100205B
:101D5400740100207C0100207C010020840100200B
:101D6400840100208C0100208C01002094010020BB
:101D7400940100209C0100209C010020A40100206B
:101D8400A4010020AC010020AC010020B40100201B
:101D9400B4010020BC010020BC010020C4010020CB
:101DA400C4010020CC010020CC010020D40100207B
:101DB400D4010020DC010020DC010020E40100202B
:101DC400E4010020EC010020EC010020F4010020DB
:101DD400F4010020FC010020FC010020040200208A
:101DE400040200200C0200200C0200201402002037
:101DF400140200201C0200201C02002024020020E7
:101E0400240200202C0200202C0200203402002096
:101E1400340200203C0200203C0200204402002046
:101E2400440200204C0200204C02002054020020F6
:101E3400540200205C0200205C02002064020020A6
:101E4400640200206C0200206C0200207402002056
:101E5400740200207C0200207C0200208402002006
:101E6400840200208C0200208C02002094020020B6
:101E7400940200209C0200209C020020A402002066
:101E8400A4020020AC020020AC020020B402002016
:101E9400B4020020BC020020BC020020C4020020C6
:101EA400C4020020CC020020CC020020D402002076
:101EB400D4020020DC020020DC020020E402002026
:101EC400E4020020EC020020EC020020F4020020D6
:101ED400F4020020FC020020FC0200200403002085
:101EE400040300200C0300200C0300201403002032
:101EF400140300201C0300201C03002024030020E2
:101F0400240300202C0300202C0300203403002091
:101F1400340300203C0300203C0300204403002041
:101F2400440300204C0300204C03002054030020F1
:101F3400540300205C0300205C03002064030020A1
:101F4400640300206C0300206C0300207403002051
:101F5400740300207C0300207C0300208403002001
:101F6400840300208C0300208C03002094030020B1
:101F7400940300209C0300209C030020A403002061
:101F8400A4030020AC030020AC030020B403002011
:101F9400B4030020BC030020BC030020C4030020C1
:101FA400C4030020CC030020CC030020D403002071
:101FB400D4030020DC030020DC030020E403002021
:101FC400E4030020EC030020EC030020F4030020D1
:101FD400F4030020FC030020FC0300200404002080
:101FE40004040020FFFFFFFF0000020000000000C7
:101FF40000000000B0050020180600208006002024
:1020040000000000000000000000000000000000CC
:1020140000000000000000000000000000000000BC
:1020240000000000000000000000000000000000AC
:10203400000000000000000000000000000000009C
:10204400000000000000000000000000000000008C
:10205400000000000000000000000000000000007C
:10206400000000000000000000000000000000006C
:10207400000000000000000000000000000000005C
:10208400000000000000000001000000000000004B
:102094000E33CDAB34126DE6ECDE05000B00000010
:1020A400000000000000000000000000000000002C
:1020B400000000000000000000000000000000001C
:1020C400000000000000000000000000000000000C
:1020D40000000000000000000000000000000000FC
:1020E40000000000000000000000000000000000EC
:1020F40000000000000000000000000000000000DC
:1021040000000000000000000000000000000000CB
:0821140020040020E806002071
:040000050800039953
:00000001FF
